{"abi":[{"type":"constructor","inputs":[{"name":"_nexLabsAddress","type":"address","internalType":"address"},{"name":"_usdcAddress","type":"address","internalType":"address"},{"name":"_dinariUsdcAddress","type":"address","internalType":"address"},{"name":"_nexLabsAPY","type":"uint256","internalType":"uint256"},{"name":"_usdcAPY","type":"uint256","internalType":"uint256"},{"name":"_dinariUsdcAPY","type":"uint256","internalType":"uint256"}],"stateMutability":"nonpayable"},{"type":"function","name":"dinariUsdc","inputs":[],"outputs":[{"name":"","type":"address","internalType":"contract IERC20"}],"stateMutability":"view"},{"type":"function","name":"increaseStakeAmount","inputs":[{"name":"positionId","type":"uint256","internalType":"uint256"},{"name":"amount","type":"uint256","internalType":"uint256"}],"outputs":[],"stateMutability":"nonpayable"},{"type":"function","name":"nexLabs","inputs":[],"outputs":[{"name":"","type":"address","internalType":"contract IERC20"}],"stateMutability":"view"},{"type":"function","name":"numberOfStakersByTokenAddress","inputs":[{"name":"","type":"address","internalType":"address"}],"outputs":[{"name":"","type":"uint256","internalType":"uint256"}],"stateMutability":"view"},{"type":"function","name":"positions","inputs":[{"name":"positionId","type":"uint256","internalType":"uint256"}],"outputs":[{"name":"owner","type":"address","internalType":"address"},{"name":"stakeToken","type":"address","internalType":"address"},{"name":"rewardToken","type":"address","internalType":"address"},{"name":"stakeAmount","type":"uint256","internalType":"uint256"},{"name":"rewardEarned","type":"uint256","internalType":"uint256"},{"name":"apy","type":"uint256","internalType":"uint256"},{"name":"startTime","type":"uint256","internalType":"uint256"},{"name":"autoCompound","type":"bool","internalType":"bool"}],"stateMutability":"view"},{"type":"function","name":"stake","inputs":[{"name":"tokenAddress","type":"address","internalType":"address"},{"name":"rewardToken","type":"address","internalType":"address"},{"name":"amount","type":"uint256","internalType":"uint256"},{"name":"autoCompound","type":"bool","internalType":"bool"}],"outputs":[{"name":"positionId","type":"uint256","internalType":"uint256"}],"stateMutability":"nonpayable"},{"type":"function","name":"tokensAPY","inputs":[{"name":"","type":"address","internalType":"address"}],"outputs":[{"name":"","type":"uint256","internalType":"uint256"}],"stateMutability":"view"},{"type":"function","name":"unStake","inputs":[{"name":"positionId","type":"uint256","internalType":"uint256"}],"outputs":[],"stateMutability":"nonpayable"},{"type":"function","name":"usdc","inputs":[],"outputs":[{"name":"","type":"address","internalType":"contract IERC20"}],"stateMutability":"view"},{"type":"function","name":"withdrawReward","inputs":[{"name":"positionId","type":"uint256","internalType":"uint256"}],"outputs":[],"stateMutability":"nonpayable"},{"type":"event","name":"RewardWithdrawn","inputs":[{"name":"positionId","type":"uint256","indexed":true,"internalType":"uint256"},{"name":"user","type":"address","indexed":true,"internalType":"address"},{"name":"amount","type":"uint256","indexed":false,"internalType":"uint256"},{"name":"timestamp","type":"uint256","indexed":false,"internalType":"uint256"}],"anonymous":false},{"type":"event","name":"Staked","inputs":[{"name":"positionId","type":"uint256","indexed":true,"internalType":"uint256"},{"name":"user","type":"address","indexed":true,"internalType":"address"},{"name":"token","type":"address","indexed":false,"internalType":"address"},{"name":"rewardToken","type":"address","indexed":false,"internalType":"address"},{"name":"amount","type":"uint256","indexed":false,"internalType":"uint256"},{"name":"autoCompound","type":"bool","indexed":false,"internalType":"bool"},{"name":"timestamp","type":"uint256","indexed":false,"internalType":"uint256"}],"anonymous":false},{"type":"event","name":"StakedIncreased","inputs":[{"name":"positionId","type":"uint256","indexed":true,"internalType":"uint256"},{"name":"user","type":"address","indexed":true,"internalType":"address"},{"name":"token","type":"address","indexed":false,"internalType":"address"},{"name":"amount","type":"uint256","indexed":false,"internalType":"uint256"},{"name":"timestamp","type":"uint256","indexed":false,"internalType":"uint256"}],"anonymous":false},{"type":"event","name":"UnStaked","inputs":[{"name":"positionId","type":"uint256","indexed":true,"internalType":"uint256"},{"name":"user","type":"address","indexed":true,"internalType":"address"},{"name":"token","type":"address","indexed":false,"internalType":"address"},{"name":"amount","type":"uint256","indexed":false,"internalType":"uint256"},{"name":"timestamp","type":"uint256","indexed":false,"internalType":"uint256"}],"anonymous":false},{"type":"error","name":"SafeERC20FailedOperation","inputs":[{"name":"token","type":"address","internalType":"address"}]}],"bytecode":{"object":"0x60806040526001600360006101000a81548175ffffffffffffffffffffffffffffffffffffffffffff021916908375ffffffffffffffffffffffffffffffffffffffffffff16021790555034801561005657600080fd5b50604051612119380380612119833981810160405281019061007891906102aa565b856000806101000a81548173ffffffffffffffffffffffffffffffffffffffff021916908373ffffffffffffffffffffffffffffffffffffffff16021790555084600160006101000a81548173ffffffffffffffffffffffffffffffffffffffff021916908373ffffffffffffffffffffffffffffffffffffffff16021790555083600260006101000a81548173ffffffffffffffffffffffffffffffffffffffff021916908373ffffffffffffffffffffffffffffffffffffffff16021790555082600460008873ffffffffffffffffffffffffffffffffffffffff1673ffffffffffffffffffffffffffffffffffffffff1681526020019081526020016000208190555081600460008773ffffffffffffffffffffffffffffffffffffffff1673ffffffffffffffffffffffffffffffffffffffff1681526020019081526020016000208190555080600460008673ffffffffffffffffffffffffffffffffffffffff1673ffffffffffffffffffffffffffffffffffffffff16815260200190815260200160002081905550505050505050610337565b600080fd5b600073ffffffffffffffffffffffffffffffffffffffff82169050919050565b600061024182610216565b9050919050565b61025181610236565b811461025c57600080fd5b50565b60008151905061026e81610248565b92915050565b6000819050919050565b61028781610274565b811461029257600080fd5b50565b6000815190506102a48161027e565b92915050565b60008060008060008060c087890312156102c7576102c6610211565b5b60006102d589828a0161025f565b96505060206102e689828a0161025f565b95505060406102f789828a0161025f565b945050606061030889828a01610295565b935050608061031989828a01610295565b92505060a061032a89828a01610295565b9150509295509295509295565b611dd3806103466000396000f3fe608060405234801561001057600080fd5b506004361061009e5760003560e01c80635d3eea91116100665780635d3eea911461014957806399fbab8814610165578063adbd39901461019c578063cc574658146101b8578063e80f1071146101e85761009e565b806308050be5146100a35780633c6d0b48146100c15780633e413bee146100df578063523a3f08146100fd578063548d3e6714610119575b600080fd5b6100ab610218565b6040516100b8919061143a565b60405180910390f35b6100c961023e565b6040516100d6919061143a565b60405180910390f35b6100e7610262565b6040516100f4919061143a565b60405180910390f35b61011760048036038101906101129190611490565b610288565b005b610133600480360381019061012e91906114fb565b610480565b6040516101409190611537565b60405180910390f35b610163600480360381019061015e9190611490565b610498565b005b61017f600480360381019061017a9190611490565b610853565b60405161019398979695949392919061157c565b60405180910390f35b6101b660048036038101906101b191906115fa565b610a0b565b005b6101d260048036038101906101cd9190611666565b610c17565b6040516101df9190611537565b60405180910390f35b61020260048036038101906101fd91906114fb565b611111565b60405161020f9190611537565b60405180910390f35b600260009054906101000a900473ffffffffffffffffffffffffffffffffffffffff1681565b60008054906101000a900473ffffffffffffffffffffffffffffffffffffffff1681565b600160009054906101000a900473ffffffffffffffffffffffffffffffffffffffff1681565b60006006600083815260200190815260200160002090503373ffffffffffffffffffffffffffffffffffffffff168160000160009054906101000a900473ffffffffffffffffffffffffffffffffffffffff1673ffffffffffffffffffffffffffffffffffffffff1614610331576040517f08c379a000000000000000000000000000000000000000000000000000000000815260040161032890611750565b60405180910390fd5b600061033c82611129565b826004015461034b919061179f565b905060008111610390576040517f08c379a00000000000000000000000000000000000000000000000000000000081526004016103879061181f565b60405180910390fd5b8160070160009054906101000a900460ff16156103c757808260030160008282546103bb919061179f565b92505081905550610417565b61041633828460020160009054906101000a900473ffffffffffffffffffffffffffffffffffffffff1673ffffffffffffffffffffffffffffffffffffffff166112189092919063ffffffff16565b5b600082600401819055504282600601819055503373ffffffffffffffffffffffffffffffffffffffff16837f746e77ecea01d694db4b52c8fd03d2e4008fe44a603d88e09e40a60d297d94d8834260405161047392919061183f565b60405180910390a3505050565b60056020528060005260406000206000915090505481565b600060066000838152602001908152602001600020905060008160030154116104f6576040517f08c379a00000000000000000000000000000000000000000000000000000000081526004016104ed906118b4565b60405180910390fd5b600061050182611129565b8260040154610510919061179f565b90508160020160009054906101000a900473ffffffffffffffffffffffffffffffffffffffff1673ffffffffffffffffffffffffffffffffffffffff168260010160009054906101000a900473ffffffffffffffffffffffffffffffffffffffff1673ffffffffffffffffffffffffffffffffffffffff16036105f657600081836003015461059f919061179f565b90506105f033828560010160009054906101000a900473ffffffffffffffffffffffffffffffffffffffff1673ffffffffffffffffffffffffffffffffffffffff166112189092919063ffffffff16565b50610699565b6106493383600301548460010160009054906101000a900473ffffffffffffffffffffffffffffffffffffffff1673ffffffffffffffffffffffffffffffffffffffff166112189092919063ffffffff16565b61069833828460020160009054906101000a900473ffffffffffffffffffffffffffffffffffffffff1673ffffffffffffffffffffffffffffffffffffffff166112189092919063ffffffff16565b5b6001600560008460010160009054906101000a900473ffffffffffffffffffffffffffffffffffffffff1673ffffffffffffffffffffffffffffffffffffffff1673ffffffffffffffffffffffffffffffffffffffff168152602001908152602001600020600082825461070d91906118d4565b925050819055503373ffffffffffffffffffffffffffffffffffffffff16837fdf18aa82586a4d74d492128356a53dd770a7469c695cacabbd4411299c74b4898460010160009054906101000a900473ffffffffffffffffffffffffffffffffffffffff1685600301544260405161078793929190611908565b60405180910390a360066000848152602001908152602001600020600080820160006101000a81549073ffffffffffffffffffffffffffffffffffffffff02191690556001820160006101000a81549073ffffffffffffffffffffffffffffffffffffffff02191690556002820160006101000a81549073ffffffffffffffffffffffffffffffffffffffff021916905560038201600090556004820160009055600582016000905560068201600090556007820160006101000a81549060ff02191690555050505050565b6000806000806000806000806000600660008b8152602001908152602001600020604051806101000160405290816000820160009054906101000a900473ffffffffffffffffffffffffffffffffffffffff1673ffffffffffffffffffffffffffffffffffffffff1673ffffffffffffffffffffffffffffffffffffffff1681526020016001820160009054906101000a900473ffffffffffffffffffffffffffffffffffffffff1673ffffffffffffffffffffffffffffffffffffffff1673ffffffffffffffffffffffffffffffffffffffff1681526020016002820160009054906101000a900473ffffffffffffffffffffffffffffffffffffffff1673ffffffffffffffffffffffffffffffffffffffff1673ffffffffffffffffffffffffffffffffffffffff168152602001600382015481526020016004820154815260200160058201548152602001600682015481526020016007820160009054906101000a900460ff1615151515815250509050806000015181602001518260400151836060015184608001518560a001518660c001518760e001519850985098509850985098509850985050919395975091939597565b60006006600084815260200190815260200160002090503373ffffffffffffffffffffffffffffffffffffffff168160000160009054906101000a900473ffffffffffffffffffffffffffffffffffffffff1673ffffffffffffffffffffffffffffffffffffffff1614610ab4576040517f08c379a0000000000000000000000000000000000000000000000000000000008152600401610aab906119b1565b60405180910390fd5b60008211610af7576040517f08c379a0000000000000000000000000000000000000000000000000000000008152600401610aee90611a43565b60405180910390fd5b60008160010160009054906101000a900473ffffffffffffffffffffffffffffffffffffffff169050610b4d3330858473ffffffffffffffffffffffffffffffffffffffff16611297909392919063ffffffff16565b6000610b5883611129565b905083836003016000828254610b6e919061179f565b9250508190555080836004016000828254610b89919061179f565b925050819055504283600601819055503373ffffffffffffffffffffffffffffffffffffffff16857f6c867f693c9c5b8cd5eef34e0e307505a7189dce0b3e73b8e94e09672c15455f8560010160009054906101000a900473ffffffffffffffffffffffffffffffffffffffff168742604051610c0893929190611908565b60405180910390a35050505050565b600080600460008773ffffffffffffffffffffffffffffffffffffffff1673ffffffffffffffffffffffffffffffffffffffff1681526020019081526020016000205403610c9a576040517f08c379a0000000000000000000000000000000000000000000000000000000008152600401610c9190611aaf565b60405180910390fd5b60008311610cdd576040517f08c379a0000000000000000000000000000000000000000000000000000000008152600401610cd490611b41565b60405180910390fd5b8373ffffffffffffffffffffffffffffffffffffffff1660008054906101000a900473ffffffffffffffffffffffffffffffffffffffff1673ffffffffffffffffffffffffffffffffffffffff161480610d6257508373ffffffffffffffffffffffffffffffffffffffff168573ffffffffffffffffffffffffffffffffffffffff16145b610da1576040517f08c379a0000000000000000000000000000000000000000000000000000000008152600401610d9890611bad565b60405180910390fd5b6000600460008773ffffffffffffffffffffffffffffffffffffffff1673ffffffffffffffffffffffffffffffffffffffff1681526020019081526020016000205490506000869050610e173330878473ffffffffffffffffffffffffffffffffffffffff16611297909392919063ffffffff16565b6003600081819054906101000a900475ffffffffffffffffffffffffffffffffffffffffffff1680929190610e4b90611bef565b91906101000a81548175ffffffffffffffffffffffffffffffffffffffffffff021916908375ffffffffffffffffffffffffffffffffffffffffffff16021790555075ffffffffffffffffffffffffffffffffffffffffffff1692506040518061010001604052803373ffffffffffffffffffffffffffffffffffffffff1681526020018873ffffffffffffffffffffffffffffffffffffffff1681526020018773ffffffffffffffffffffffffffffffffffffffff168152602001868152602001600081526020018381526020014281526020018515158152506006600085815260200190815260200160002060008201518160000160006101000a81548173ffffffffffffffffffffffffffffffffffffffff021916908373ffffffffffffffffffffffffffffffffffffffff16021790555060208201518160010160006101000a81548173ffffffffffffffffffffffffffffffffffffffff021916908373ffffffffffffffffffffffffffffffffffffffff16021790555060408201518160020160006101000a81548173ffffffffffffffffffffffffffffffffffffffff021916908373ffffffffffffffffffffffffffffffffffffffff160217905550606082015181600301556080820151816004015560a0820151816005015560c0820151816006015560e08201518160070160006101000a81548160ff0219169083151502179055509050506001600560008973ffffffffffffffffffffffffffffffffffffffff1673ffffffffffffffffffffffffffffffffffffffff16815260200190815260200160002060008282546110a9919061179f565b925050819055503373ffffffffffffffffffffffffffffffffffffffff16837f8d6447383741d41c5d5c9183b2b6be0d6a8cc1f2b3f365aeacc2775251b0773789898989426040516110ff959493929190611c2d565b60405180910390a35050949350505050565b60046020528060005260406000206000915090505481565b60008082600601544261113c91906118d4565b905060006301e13380826111509190611caf565b905060008111801561117057508360070160009054906101000a900460ff165b156111e05760008460030154905060005b828110156111c5576000606487600501548461119d9190611ce0565b6111a79190611caf565b905080836111b5919061179f565b9250508080600101915050611181565b508460030154816111d691906118d4565b9350505050611213565b63bbf81e0082856005015486600301546111fa9190611ce0565b6112049190611ce0565b61120e9190611caf565b925050505b919050565b611292838473ffffffffffffffffffffffffffffffffffffffff1663a9059cbb858560405160240161124b929190611d22565b604051602081830303815290604052915060e01b6020820180517bffffffffffffffffffffffffffffffffffffffffffffffffffffffff8381831617835250505050611319565b505050565b611313848573ffffffffffffffffffffffffffffffffffffffff166323b872dd8686866040516024016112cc93929190611d4b565b604051602081830303815290604052915060e01b6020820180517bffffffffffffffffffffffffffffffffffffffffffffffffffffffff8381831617835250505050611319565b50505050565b600080602060008451602086016000885af18061133c576040513d6000823e3d81fd5b3d925060005191505060008214611357576001811415611373565b60008473ffffffffffffffffffffffffffffffffffffffff163b145b156113b557836040517f5274afe70000000000000000000000000000000000000000000000000000000081526004016113ac9190611d82565b60405180910390fd5b50505050565b600073ffffffffffffffffffffffffffffffffffffffff82169050919050565b6000819050919050565b60006114006113fb6113f6846113bb565b6113db565b6113bb565b9050919050565b6000611412826113e5565b9050919050565b600061142482611407565b9050919050565b61143481611419565b82525050565b600060208201905061144f600083018461142b565b92915050565b600080fd5b6000819050919050565b61146d8161145a565b811461147857600080fd5b50565b60008135905061148a81611464565b92915050565b6000602082840312156114a6576114a5611455565b5b60006114b48482850161147b565b91505092915050565b60006114c8826113bb565b9050919050565b6114d8816114bd565b81146114e357600080fd5b50565b6000813590506114f5816114cf565b92915050565b60006020828403121561151157611510611455565b5b600061151f848285016114e6565b91505092915050565b6115318161145a565b82525050565b600060208201905061154c6000830184611528565b92915050565b61155b816114bd565b82525050565b60008115159050919050565b61157681611561565b82525050565b600061010082019050611592600083018b611552565b61159f602083018a611552565b6115ac6040830189611552565b6115b96060830188611528565b6115c66080830187611528565b6115d360a0830186611528565b6115e060c0830185611528565b6115ed60e083018461156d565b9998505050505050505050565b6000806040838503121561161157611610611455565b5b600061161f8582860161147b565b92505060206116308582860161147b565b9150509250929050565b61164381611561565b811461164e57600080fd5b50565b6000813590506116608161163a565b92915050565b600080600080608085870312156116805761167f611455565b5b600061168e878288016114e6565b945050602061169f878288016114e6565b93505060406116b08782880161147b565b92505060606116c187828801611651565b91505092959194509250565b600082825260208201905092915050565b7f596f7520617265206e6f7420746865206f776e6572206f66207468697320706f60008201527f736974696f6e0000000000000000000000000000000000000000000000000000602082015250565b600061173a6026836116cd565b9150611745826116de565b604082019050919050565b600060208201905081810360008301526117698161172d565b9050919050565b7f4e487b7100000000000000000000000000000000000000000000000000000000600052601160045260246000fd5b60006117aa8261145a565b91506117b58361145a565b92508282019050808211156117cd576117cc611770565b5b92915050565b7f596f7520646964206e6f74206561726e20616e79207265776172647321000000600082015250565b6000611809601d836116cd565b9150611814826117d3565b602082019050919050565b60006020820190508181036000830152611838816117fc565b9050919050565b60006040820190506118546000830185611528565b6118616020830184611528565b9392505050565b7f4e6f207374616b6520616d6f756e7420746f20756e7374616b652e0000000000600082015250565b600061189e601b836116cd565b91506118a982611868565b602082019050919050565b600060208201905081810360008301526118cd81611891565b9050919050565b60006118df8261145a565b91506118ea8361145a565b925082820390508181111561190257611901611770565b5b92915050565b600060608201905061191d6000830186611552565b61192a6020830185611528565b6119376040830184611528565b949350505050565b7f4f6e6c79206f776e65722063616e20696e63726561736520746865207374616b60008201527f656420616d6f756e742100000000000000000000000000000000000000000000602082015250565b600061199b602a836116cd565b91506119a68261193f565b604082019050919050565b600060208201905081810360008301526119ca8161198e565b9050919050565b7f496e63726561736520616d6f756e74206d75737420626520677265617465722060008201527f7468616e207a65726f2e00000000000000000000000000000000000000000000602082015250565b6000611a2d602a836116cd565b9150611a38826119d1565b604082019050919050565b60006020820190508181036000830152611a5c81611a20565b9050919050565b7f546f6b656e206e6f7420737570706f7274656420666f72207374616b696e672e600082015250565b6000611a996020836116cd565b9150611aa482611a63565b602082019050919050565b60006020820190508181036000830152611ac881611a8c565b9050919050565b7f5374616b696e6720616d6f756e74206d7573742062652067726561746572207460008201527f68616e207a65726f2e0000000000000000000000000000000000000000000000602082015250565b6000611b2b6029836116cd565b9150611b3682611acf565b604082019050919050565b60006020820190508181036000830152611b5a81611b1e565b9050919050565b7f496e76616c69642072657761726420746f6b656e2e0000000000000000000000600082015250565b6000611b976015836116cd565b9150611ba282611b61565b602082019050919050565b60006020820190508181036000830152611bc681611b8a565b9050919050565b600075ffffffffffffffffffffffffffffffffffffffffffff82169050919050565b6000611bfa82611bcd565b915075ffffffffffffffffffffffffffffffffffffffffffff8203611c2257611c21611770565b5b600182019050919050565b600060a082019050611c426000830188611552565b611c4f6020830187611552565b611c5c6040830186611528565b611c69606083018561156d565b611c766080830184611528565b9695505050505050565b7f4e487b7100000000000000000000000000000000000000000000000000000000600052601260045260246000fd5b6000611cba8261145a565b9150611cc58361145a565b925082611cd557611cd4611c80565b5b828204905092915050565b6000611ceb8261145a565b9150611cf68361145a565b9250828202611d048161145a565b91508282048414831517611d1b57611d1a611770565b5b5092915050565b6000604082019050611d376000830185611552565b611d446020830184611528565b9392505050565b6000606082019050611d606000830186611552565b611d6d6020830185611552565b611d7a6040830184611528565b949350505050565b6000602082019050611d976000830184611552565b9291505056fea2646970667358221220242a402e949c48de46eca2c6d015e7740328fd2df888dad48e5080bfeb4cf41764736f6c634300081a0033","linkReferences":{}},"methodIdentifiers":{"dinariUsdc()":"08050be5","increaseStakeAmount(uint256,uint256)":"adbd3990","nexLabs()":"3c6d0b48","numberOfStakersByTokenAddress(address)":"548d3e67","positions(uint256)":"99fbab88","stake(address,address,uint256,bool)":"cc574658","tokensAPY(address)":"e80f1071","unStake(uint256)":"5d3eea91","usdc()":"3e413bee","withdrawReward(uint256)":"523a3f08"},"id":0}