{"abi":[{"type":"constructor","inputs":[{"name":"_nexLabsAddress","type":"address","internalType":"address"},{"name":"_usdcAddress","type":"address","internalType":"address"},{"name":"_dinariUsdcAddress","type":"address","internalType":"address"},{"name":"_nexLabsAPY","type":"uint256","internalType":"uint256"},{"name":"_usdcAPY","type":"uint256","internalType":"uint256"},{"name":"_dinariUsdcAPY","type":"uint256","internalType":"uint256"}],"stateMutability":"nonpayable"},{"type":"function","name":"dinariUsdc","inputs":[],"outputs":[{"name":"","type":"address","internalType":"contract IERC20"}],"stateMutability":"view"},{"type":"function","name":"increaseStakeAmount","inputs":[{"name":"positionId","type":"uint256","internalType":"uint256"},{"name":"amount","type":"uint256","internalType":"uint256"}],"outputs":[],"stateMutability":"nonpayable"},{"type":"function","name":"nexLabs","inputs":[],"outputs":[{"name":"","type":"address","internalType":"contract IERC20"}],"stateMutability":"view"},{"type":"function","name":"numberOfStakersByTokenAddress","inputs":[{"name":"","type":"address","internalType":"address"}],"outputs":[{"name":"","type":"uint256","internalType":"uint256"}],"stateMutability":"view"},{"type":"function","name":"positions","inputs":[{"name":"positionId","type":"uint256","internalType":"uint256"}],"outputs":[{"name":"owner","type":"address","internalType":"address"},{"name":"stakeToken","type":"address","internalType":"address"},{"name":"rewardToken","type":"address","internalType":"address"},{"name":"stakeAmount","type":"uint256","internalType":"uint256"},{"name":"rewardEarned","type":"uint256","internalType":"uint256"},{"name":"apy","type":"uint256","internalType":"uint256"},{"name":"startTime","type":"uint256","internalType":"uint256"},{"name":"autoCompound","type":"bool","internalType":"bool"}],"stateMutability":"view"},{"type":"function","name":"stake","inputs":[{"name":"tokenAddress","type":"address","internalType":"address"},{"name":"rewardToken","type":"address","internalType":"address"},{"name":"amount","type":"uint256","internalType":"uint256"},{"name":"autoCompound","type":"bool","internalType":"bool"}],"outputs":[{"name":"positionId","type":"uint256","internalType":"uint256"}],"stateMutability":"nonpayable"},{"type":"function","name":"tokensAPY","inputs":[{"name":"","type":"address","internalType":"address"}],"outputs":[{"name":"","type":"uint256","internalType":"uint256"}],"stateMutability":"view"},{"type":"function","name":"unStake","inputs":[{"name":"positionId","type":"uint256","internalType":"uint256"}],"outputs":[],"stateMutability":"nonpayable"},{"type":"function","name":"usdc","inputs":[],"outputs":[{"name":"","type":"address","internalType":"contract IERC20"}],"stateMutability":"view"},{"type":"function","name":"withdrawReward","inputs":[{"name":"positionId","type":"uint256","internalType":"uint256"}],"outputs":[],"stateMutability":"nonpayable"},{"type":"event","name":"RewardWithdrawn","inputs":[{"name":"positionId","type":"uint256","indexed":true,"internalType":"uint256"},{"name":"user","type":"address","indexed":true,"internalType":"address"},{"name":"amount","type":"uint256","indexed":false,"internalType":"uint256"},{"name":"timestamp","type":"uint256","indexed":false,"internalType":"uint256"}],"anonymous":false},{"type":"event","name":"Staked","inputs":[{"name":"positionId","type":"uint256","indexed":true,"internalType":"uint256"},{"name":"user","type":"address","indexed":true,"internalType":"address"},{"name":"token","type":"address","indexed":false,"internalType":"address"},{"name":"rewardToken","type":"address","indexed":false,"internalType":"address"},{"name":"amount","type":"uint256","indexed":false,"internalType":"uint256"},{"name":"autoCompound","type":"bool","indexed":false,"internalType":"bool"},{"name":"timestamp","type":"uint256","indexed":false,"internalType":"uint256"}],"anonymous":false},{"type":"event","name":"StakedIncreased","inputs":[{"name":"positionId","type":"uint256","indexed":true,"internalType":"uint256"},{"name":"user","type":"address","indexed":true,"internalType":"address"},{"name":"token","type":"address","indexed":false,"internalType":"address"},{"name":"amount","type":"uint256","indexed":false,"internalType":"uint256"},{"name":"timestamp","type":"uint256","indexed":false,"internalType":"uint256"}],"anonymous":false},{"type":"event","name":"UnStaked","inputs":[{"name":"positionId","type":"uint256","indexed":true,"internalType":"uint256"},{"name":"user","type":"address","indexed":true,"internalType":"address"},{"name":"token","type":"address","indexed":false,"internalType":"address"},{"name":"amount","type":"uint256","indexed":false,"internalType":"uint256"},{"name":"timestamp","type":"uint256","indexed":false,"internalType":"uint256"}],"anonymous":false},{"type":"error","name":"SafeERC20FailedOperation","inputs":[{"name":"token","type":"address","internalType":"address"}]}],"bytecode":{"object":"0x6080604052600380546001600160b01b031916600117905534801561002357600080fd5b50604051610fda380380610fda833981016040819052610042916100c0565b600080546001600160a01b039788166001600160a01b03199182168117835560018054988a1698831689179055600280549790991696909116861790975595865260046020526040808720939093559385528185205590835290912055610122565b80516001600160a01b03811681146100bb57600080fd5b919050565b60008060008060008060c087890312156100d957600080fd5b6100e2876100a4565b95506100f0602088016100a4565b94506100fe604088016100a4565b6060880151608089015160a090990151979a96995090979096909590945092505050565b610ea9806101316000396000f3fe608060405234801561001057600080fd5b506004361061009e5760003560e01c80635d3eea91116100665780635d3eea911461013c57806399fbab881461014f578063adbd399014610240578063cc57465814610253578063e80f10711461026657600080fd5b806308050be5146100a35780633c6d0b48146100d35780633e413bee146100e6578063523a3f08146100f9578063548d3e671461010e575b600080fd5b6002546100b6906001600160a01b031681565b6040516001600160a01b0390911681526020015b60405180910390f35b6000546100b6906001600160a01b031681565b6001546100b6906001600160a01b031681565b61010c610107366004610cff565b610286565b005b61012e61011c366004610d34565b60056020526000908152604090205481565b6040519081526020016100ca565b61010c61014a366004610cff565b610404565b6101f461015d366004610cff565b60009081526006602081815260409283902083516101008101855281546001600160a01b03908116808352600184015482169483018590526002840154909116958201869052600383015460608301819052600484015460808401819052600585015460a085018190529685015460c0850181905260079095015460ff16151560e090940184905291979496959094919390929091565b604080516001600160a01b03998a168152978916602089015295909716948601949094526060850192909252608084015260a083015260c082015290151560e0820152610100016100ca565b61010c61024e366004610d56565b6105f3565b61012e610261366004610d78565b61078e565b61012e610274366004610d34565b60046020526000908152604090205481565b600081815260066020526040902080546001600160a01b031633146103015760405162461bcd60e51b815260206004820152602660248201527f596f7520617265206e6f7420746865206f776e6572206f66207468697320706f60448201526539b4ba34b7b760d11b60648201526084015b60405180910390fd5b600061030c82610b17565b826004015461031b9190610de2565b90506000811161036d5760405162461bcd60e51b815260206004820152601d60248201527f596f7520646964206e6f74206561726e20616e7920726577617264732100000060448201526064016102f8565b600782015460ff1615610399578082600301600082825461038e9190610de2565b909155506103b29050565b60028201546103b2906001600160a01b03163383610beb565b600060048301554260068301819055604080518381526020810192909252339185917f746e77ecea01d694db4b52c8fd03d2e4008fe44a603d88e09e40a60d297d94d8910160405180910390a3505050565b600081815260066020526040902060038101546104635760405162461bcd60e51b815260206004820152601b60248201527f4e6f207374616b6520616d6f756e7420746f20756e7374616b652e000000000060448201526064016102f8565b600061046e82610b17565b826004015461047d9190610de2565b600283015460018401549192506001600160a01b039081169116036104d05760008183600301546104ae9190610de2565b60018401549091506104ca906001600160a01b03163383610beb565b5061050a565b600382015460018301546104f1916001600160a01b03909116903390610beb565b600282015461050a906001600160a01b03163383610beb565b6001828101546001600160a01b031660009081526005602052604081208054909190610537908490610dfb565b909155505060018201546003830154604080516001600160a01b0390931683526020830191909152428282015251339185917fdf18aa82586a4d74d492128356a53dd770a7469c695cacabbd4411299c74b4899181900360600190a350506000908152600660208190526040822080546001600160a01b0319908116825560018201805482169055600282018054909116905560038101839055600481018390556005810183905590810191909155600701805460ff19169055565b600082815260066020526040902080546001600160a01b0316331461066d5760405162461bcd60e51b815260206004820152602a60248201527f4f6e6c79206f776e65722063616e20696e63726561736520746865207374616b604482015269656420616d6f756e742160b01b60648201526084016102f8565b600082116106d05760405162461bcd60e51b815260206004820152602a60248201527f496e63726561736520616d6f756e74206d7573742062652067726561746572206044820152693a3430b7103d32b9379760b11b60648201526084016102f8565b60018101546001600160a01b03166106ea81333086610c4f565b60006106f583610b17565b90508383600301600082825461070b9190610de2565b92505081905550808360040160008282546107269190610de2565b909155505042600684018190556001840154604080516001600160a01b03909216825260208201879052810191909152339086907f6c867f693c9c5b8cd5eef34e0e307505a7189dce0b3e73b8e94e09672c15455f9060600160405180910390a35050505050565b6001600160a01b03841660009081526004602052604081205481036107f55760405162461bcd60e51b815260206004820181905260248201527f546f6b656e206e6f7420737570706f7274656420666f72207374616b696e672e60448201526064016102f8565b600083116108575760405162461bcd60e51b815260206004820152602960248201527f5374616b696e6720616d6f756e74206d757374206265206772656174657220746044820152683430b7103d32b9379760b91b60648201526084016102f8565b6000546001600160a01b03858116911614806108845750836001600160a01b0316856001600160a01b0316145b6108c85760405162461bcd60e51b815260206004820152601560248201527424b73b30b634b2103932bbb0b932103a37b5b2b71760591b60448201526064016102f8565b6001600160a01b0385166000818152600460205260409020549086906108f090333088610c4f565b600380546001600160b01b031690600061090983610e0e565b91906101000a8154816001600160b01b0302191690836001600160b01b031602179055506001600160b01b03169250604051806101000160405280336001600160a01b03168152602001886001600160a01b03168152602001876001600160a01b03168152602001868152602001600081526020018381526020014281526020018515158152506006600085815260200190815260200160002060008201518160000160006101000a8154816001600160a01b0302191690836001600160a01b0316021790555060208201518160010160006101000a8154816001600160a01b0302191690836001600160a01b0316021790555060408201518160020160006101000a8154816001600160a01b0302191690836001600160a01b03160217905550606082015181600301556080820151816004015560a0820151816005015560c0820151816006015560e08201518160070160006101000a81548160ff021916908315150217905550905050600160056000896001600160a01b03166001600160a01b031681526020019081526020016000206000828254610aab9190610de2565b9091555050604080516001600160a01b03808a168252881660208201529081018690528415156060820152426080820152339084907f8d6447383741d41c5d5c9183b2b6be0d6a8cc1f2b3f365aeacc2775251b077379060a00160405180910390a35050949350505050565b600080826006015442610b2a9190610dfb565b90506000610b3c6301e1338083610e3a565b9050600081118015610b525750600784015460ff165b15610bb557600384015460005b82811015610b9c5760006064876005015484610b7b9190610e5c565b610b859190610e3a565b9050610b918184610de2565b925050600101610b5f565b506003850154610bac9082610dfb565b95945050505050565b63bbf81e008285600501548660030154610bcf9190610e5c565b610bd99190610e5c565b610be39190610e3a565b949350505050565b6040516001600160a01b03838116602483015260448201839052610c4a91859182169063a9059cbb906064015b604051602081830303815290604052915060e01b6020820180516001600160e01b038381831617835250505050610c8e565b505050565b6040516001600160a01b038481166024830152838116604483015260648201839052610c889186918216906323b872dd90608401610c18565b50505050565b600080602060008451602086016000885af180610cb1576040513d6000823e3d81fd5b50506000513d91508115610cc9578060011415610cd6565b6001600160a01b0384163b155b15610c8857604051635274afe760e01b81526001600160a01b03851660048201526024016102f8565b600060208284031215610d1157600080fd5b5035919050565b80356001600160a01b0381168114610d2f57600080fd5b919050565b600060208284031215610d4657600080fd5b610d4f82610d18565b9392505050565b60008060408385031215610d6957600080fd5b50508035926020909101359150565b60008060008060808587031215610d8e57600080fd5b610d9785610d18565b9350610da560208601610d18565b92506040850135915060608501358015158114610dc157600080fd5b939692955090935050565b634e487b7160e01b600052601160045260246000fd5b80820180821115610df557610df5610dcc565b92915050565b81810381811115610df557610df5610dcc565b60006001600160b01b0382166002600160b01b03198101610e3157610e31610dcc565b60010192915050565b600082610e5757634e487b7160e01b600052601260045260246000fd5b500490565b8082028115828204841417610df557610df5610dcc56fea264697066735822122006bb1640cec3748c49f45543ec9ce5e94cee4a78f5e02c6af1d4209c1042d96364736f6c634300081a0033","linkReferences":{}},"methodIdentifiers":{"dinariUsdc()":"08050be5","increaseStakeAmount(uint256,uint256)":"adbd3990","nexLabs()":"3c6d0b48","numberOfStakersByTokenAddress(address)":"548d3e67","positions(uint256)":"99fbab88","stake(address,address,uint256,bool)":"cc574658","tokensAPY(address)":"e80f1071","unStake(uint256)":"5d3eea91","usdc()":"3e413bee","withdrawReward(uint256)":"523a3f08"},"id":0}