{"abi":[{"type":"constructor","inputs":[{"name":"_nexLabsAddress","type":"address","internalType":"address"},{"name":"_anfiAddress","type":"address","internalType":"address"},{"name":"_crypto5Address","type":"address","internalType":"address"},{"name":"_magnificent7Index","type":"address","internalType":"address"},{"name":"_arbitrumIndex","type":"address","internalType":"address"},{"name":"_nexLabsAPY","type":"uint256","internalType":"uint256"},{"name":"_anfiAPY","type":"uint256","internalType":"uint256"},{"name":"_crypto5APY","type":"uint256","internalType":"uint256"},{"name":"_magnificent7IndexAPY","type":"uint256","internalType":"uint256"},{"name":"_arbitrumIndexAPY","type":"uint256","internalType":"uint256"}],"stateMutability":"nonpayable"},{"type":"function","name":"anfi","inputs":[],"outputs":[{"name":"","type":"address","internalType":"contract IERC20"}],"stateMutability":"view"},{"type":"function","name":"arbitrumIndex","inputs":[],"outputs":[{"name":"","type":"address","internalType":"contract IERC20"}],"stateMutability":"view"},{"type":"function","name":"crypto5","inputs":[],"outputs":[{"name":"","type":"address","internalType":"contract IERC20"}],"stateMutability":"view"},{"type":"function","name":"increaseStakeAmount","inputs":[{"name":"positionId","type":"uint256","internalType":"uint256"},{"name":"amount","type":"uint256","internalType":"uint256"}],"outputs":[],"stateMutability":"nonpayable"},{"type":"function","name":"magnificent7Index","inputs":[],"outputs":[{"name":"","type":"address","internalType":"contract IERC20"}],"stateMutability":"view"},{"type":"function","name":"nexLabs","inputs":[],"outputs":[{"name":"","type":"address","internalType":"contract IERC20"}],"stateMutability":"view"},{"type":"function","name":"numberOfStakersByTokenAddress","inputs":[{"name":"","type":"address","internalType":"address"}],"outputs":[{"name":"","type":"uint256","internalType":"uint256"}],"stateMutability":"view"},{"type":"function","name":"positions","inputs":[{"name":"positionId","type":"uint256","internalType":"uint256"}],"outputs":[{"name":"owner","type":"address","internalType":"address"},{"name":"stakeToken","type":"address","internalType":"address"},{"name":"rewardToken","type":"address","internalType":"address"},{"name":"stakeAmount","type":"uint256","internalType":"uint256"},{"name":"rewardEarned","type":"uint256","internalType":"uint256"},{"name":"apy","type":"uint256","internalType":"uint256"},{"name":"startTime","type":"uint256","internalType":"uint256"},{"name":"autoCompound","type":"bool","internalType":"bool"}],"stateMutability":"view"},{"type":"function","name":"stake","inputs":[{"name":"tokenAddress","type":"address","internalType":"address"},{"name":"rewardToken","type":"address","internalType":"address"},{"name":"amount","type":"uint256","internalType":"uint256"},{"name":"autoCompound","type":"bool","internalType":"bool"}],"outputs":[{"name":"positionId","type":"uint256","internalType":"uint256"}],"stateMutability":"nonpayable"},{"type":"function","name":"tokensAPY","inputs":[{"name":"","type":"address","internalType":"address"}],"outputs":[{"name":"","type":"uint256","internalType":"uint256"}],"stateMutability":"view"},{"type":"function","name":"unStake","inputs":[{"name":"positionId","type":"uint256","internalType":"uint256"}],"outputs":[],"stateMutability":"nonpayable"},{"type":"function","name":"withdrawReward","inputs":[{"name":"positionId","type":"uint256","internalType":"uint256"}],"outputs":[],"stateMutability":"nonpayable"},{"type":"event","name":"RewardWithdrawn","inputs":[{"name":"positionId","type":"uint256","indexed":true,"internalType":"uint256"},{"name":"user","type":"address","indexed":true,"internalType":"address"},{"name":"amount","type":"uint256","indexed":false,"internalType":"uint256"},{"name":"timestamp","type":"uint256","indexed":false,"internalType":"uint256"}],"anonymous":false},{"type":"event","name":"Staked","inputs":[{"name":"positionId","type":"uint256","indexed":true,"internalType":"uint256"},{"name":"user","type":"address","indexed":true,"internalType":"address"},{"name":"token","type":"address","indexed":false,"internalType":"address"},{"name":"rewardToken","type":"address","indexed":false,"internalType":"address"},{"name":"amount","type":"uint256","indexed":false,"internalType":"uint256"},{"name":"autoCompound","type":"bool","indexed":false,"internalType":"bool"},{"name":"timestamp","type":"uint256","indexed":false,"internalType":"uint256"}],"anonymous":false},{"type":"event","name":"StakedIncreased","inputs":[{"name":"positionId","type":"uint256","indexed":true,"internalType":"uint256"},{"name":"user","type":"address","indexed":true,"internalType":"address"},{"name":"token","type":"address","indexed":false,"internalType":"address"},{"name":"amount","type":"uint256","indexed":false,"internalType":"uint256"},{"name":"timestamp","type":"uint256","indexed":false,"internalType":"uint256"}],"anonymous":false},{"type":"event","name":"UnStaked","inputs":[{"name":"positionId","type":"uint256","indexed":true,"internalType":"uint256"},{"name":"user","type":"address","indexed":true,"internalType":"address"},{"name":"token","type":"address","indexed":false,"internalType":"address"},{"name":"amount","type":"uint256","indexed":false,"internalType":"uint256"},{"name":"timestamp","type":"uint256","indexed":false,"internalType":"uint256"}],"anonymous":false},{"type":"error","name":"SafeERC20FailedOperation","inputs":[{"name":"token","type":"address","internalType":"address"}]}],"bytecode":{"object":"0x60806040526001600560006101000a81548175ffffffffffffffffffffffffffffffffffffffffffff021916908375ffffffffffffffffffffffffffffffffffffffffffff16021790555034801561005657600080fd5b50604051612292380380612292833981810160405281019061007891906103b8565b896000806101000a81548173ffffffffffffffffffffffffffffffffffffffff021916908373ffffffffffffffffffffffffffffffffffffffff16021790555088600160006101000a81548173ffffffffffffffffffffffffffffffffffffffff021916908373ffffffffffffffffffffffffffffffffffffffff16021790555087600260006101000a81548173ffffffffffffffffffffffffffffffffffffffff021916908373ffffffffffffffffffffffffffffffffffffffff16021790555086600360006101000a81548173ffffffffffffffffffffffffffffffffffffffff021916908373ffffffffffffffffffffffffffffffffffffffff16021790555085600460006101000a81548173ffffffffffffffffffffffffffffffffffffffff021916908373ffffffffffffffffffffffffffffffffffffffff16021790555084600660008c73ffffffffffffffffffffffffffffffffffffffff1673ffffffffffffffffffffffffffffffffffffffff1681526020019081526020016000208190555083600660008b73ffffffffffffffffffffffffffffffffffffffff1673ffffffffffffffffffffffffffffffffffffffff1681526020019081526020016000208190555082600660008a73ffffffffffffffffffffffffffffffffffffffff1673ffffffffffffffffffffffffffffffffffffffff1681526020019081526020016000208190555081600660008973ffffffffffffffffffffffffffffffffffffffff1673ffffffffffffffffffffffffffffffffffffffff1681526020019081526020016000208190555080600660008873ffffffffffffffffffffffffffffffffffffffff1673ffffffffffffffffffffffffffffffffffffffff1681526020019081526020016000208190555050505050505050505050610497565b600080fd5b600073ffffffffffffffffffffffffffffffffffffffff82169050919050565b600061034f82610324565b9050919050565b61035f81610344565b811461036a57600080fd5b50565b60008151905061037c81610356565b92915050565b6000819050919050565b61039581610382565b81146103a057600080fd5b50565b6000815190506103b28161038c565b92915050565b6000806000806000806000806000806101408b8d0312156103dc576103db61031f565b5b60006103ea8d828e0161036d565b9a505060206103fb8d828e0161036d565b995050604061040c8d828e0161036d565b985050606061041d8d828e0161036d565b975050608061042e8d828e0161036d565b96505060a061043f8d828e016103a3565b95505060c06104508d828e016103a3565b94505060e06104618d828e016103a3565b9350506101006104738d828e016103a3565b9250506101206104858d828e016103a3565b9150509295989b9194979a5092959850565b611dec806104a66000396000f3fe608060405234801561001057600080fd5b50600436106100b45760003560e01c80638e3833a7116100715780638e3833a71461017b57806399fbab8814610199578063adbd3990146101d0578063bf074c9d146101ec578063cc5746581461020a578063e80f10711461023a576100b4565b806315690efb146100b95780633c6d0b48146100d7578063523a3f08146100f5578063548d3e67146101115780635d3eea9114610141578063651d0f761461015d575b600080fd5b6100c161026a565b6040516100ce91906114bf565b60405180910390f35b6100df610290565b6040516100ec91906114bf565b60405180910390f35b61010f600480360381019061010a9190611515565b6102b4565b005b61012b60048036038101906101269190611580565b610469565b60405161013891906115bc565b60405180910390f35b61015b60048036038101906101569190611515565b610481565b005b61016561083c565b60405161017291906114bf565b60405180910390f35b610183610862565b60405161019091906114bf565b60405180910390f35b6101b360048036038101906101ae9190611515565b610888565b6040516101c7989796959493929190611601565b60405180910390f35b6101ea60048036038101906101e5919061167f565b610a40565b005b6101f4610c4c565b60405161020191906114bf565b60405180910390f35b610224600480360381019061021f91906116eb565b610c72565b60405161023191906115bc565b60405180910390f35b610254600480360381019061024f9190611580565b61116c565b60405161026191906115bc565b60405180910390f35b600460009054906101000a900473ffffffffffffffffffffffffffffffffffffffff1681565b60008054906101000a900473ffffffffffffffffffffffffffffffffffffffff1681565b60006008600083815260200190815260200160002090503373ffffffffffffffffffffffffffffffffffffffff168160000160009054906101000a900473ffffffffffffffffffffffffffffffffffffffff1673ffffffffffffffffffffffffffffffffffffffff161461035d576040517f08c379a0000000000000000000000000000000000000000000000000000000008152600401610354906117d5565b60405180910390fd5b600061036882611184565b82600401546103779190611824565b90508160070160009054906101000a900460ff16156103b057808260030160008282546103a49190611824565b92505081905550610400565b6103ff33828460020160009054906101000a900473ffffffffffffffffffffffffffffffffffffffff1673ffffffffffffffffffffffffffffffffffffffff1661129d9092919063ffffffff16565b5b600082600401819055504282600601819055503373ffffffffffffffffffffffffffffffffffffffff16837f746e77ecea01d694db4b52c8fd03d2e4008fe44a603d88e09e40a60d297d94d8834260405161045c929190611858565b60405180910390a3505050565b60076020528060005260406000206000915090505481565b600060086000838152602001908152602001600020905060008160030154116104df576040517f08c379a00000000000000000000000000000000000000000000000000000000081526004016104d6906118cd565b60405180910390fd5b60006104ea82611184565b82600401546104f99190611824565b90508160020160009054906101000a900473ffffffffffffffffffffffffffffffffffffffff1673ffffffffffffffffffffffffffffffffffffffff168260010160009054906101000a900473ffffffffffffffffffffffffffffffffffffffff1673ffffffffffffffffffffffffffffffffffffffff16036105df5760008183600301546105889190611824565b90506105d933828560010160009054906101000a900473ffffffffffffffffffffffffffffffffffffffff1673ffffffffffffffffffffffffffffffffffffffff1661129d9092919063ffffffff16565b50610682565b6106323383600301548460010160009054906101000a900473ffffffffffffffffffffffffffffffffffffffff1673ffffffffffffffffffffffffffffffffffffffff1661129d9092919063ffffffff16565b61068133828460020160009054906101000a900473ffffffffffffffffffffffffffffffffffffffff1673ffffffffffffffffffffffffffffffffffffffff1661129d9092919063ffffffff16565b5b6001600760008460010160009054906101000a900473ffffffffffffffffffffffffffffffffffffffff1673ffffffffffffffffffffffffffffffffffffffff1673ffffffffffffffffffffffffffffffffffffffff16815260200190815260200160002060008282546106f691906118ed565b925050819055503373ffffffffffffffffffffffffffffffffffffffff16837fdf18aa82586a4d74d492128356a53dd770a7469c695cacabbd4411299c74b4898460010160009054906101000a900473ffffffffffffffffffffffffffffffffffffffff1685600301544260405161077093929190611921565b60405180910390a360086000848152602001908152602001600020600080820160006101000a81549073ffffffffffffffffffffffffffffffffffffffff02191690556001820160006101000a81549073ffffffffffffffffffffffffffffffffffffffff02191690556002820160006101000a81549073ffffffffffffffffffffffffffffffffffffffff021916905560038201600090556004820160009055600582016000905560068201600090556007820160006101000a81549060ff02191690555050505050565b600260009054906101000a900473ffffffffffffffffffffffffffffffffffffffff1681565b600160009054906101000a900473ffffffffffffffffffffffffffffffffffffffff1681565b6000806000806000806000806000600860008b8152602001908152602001600020604051806101000160405290816000820160009054906101000a900473ffffffffffffffffffffffffffffffffffffffff1673ffffffffffffffffffffffffffffffffffffffff1673ffffffffffffffffffffffffffffffffffffffff1681526020016001820160009054906101000a900473ffffffffffffffffffffffffffffffffffffffff1673ffffffffffffffffffffffffffffffffffffffff1673ffffffffffffffffffffffffffffffffffffffff1681526020016002820160009054906101000a900473ffffffffffffffffffffffffffffffffffffffff1673ffffffffffffffffffffffffffffffffffffffff1673ffffffffffffffffffffffffffffffffffffffff168152602001600382015481526020016004820154815260200160058201548152602001600682015481526020016007820160009054906101000a900460ff1615151515815250509050806000015181602001518260400151836060015184608001518560a001518660c001518760e001519850985098509850985098509850985050919395975091939597565b60006008600084815260200190815260200160002090503373ffffffffffffffffffffffffffffffffffffffff168160000160009054906101000a900473ffffffffffffffffffffffffffffffffffffffff1673ffffffffffffffffffffffffffffffffffffffff1614610ae9576040517f08c379a0000000000000000000000000000000000000000000000000000000008152600401610ae0906119ca565b60405180910390fd5b60008211610b2c576040517f08c379a0000000000000000000000000000000000000000000000000000000008152600401610b2390611a5c565b60405180910390fd5b60008160010160009054906101000a900473ffffffffffffffffffffffffffffffffffffffff169050610b823330858473ffffffffffffffffffffffffffffffffffffffff1661131c909392919063ffffffff16565b6000610b8d83611184565b905083836003016000828254610ba39190611824565b9250508190555080836004016000828254610bbe9190611824565b925050819055504283600601819055503373ffffffffffffffffffffffffffffffffffffffff16857f6c867f693c9c5b8cd5eef34e0e307505a7189dce0b3e73b8e94e09672c15455f8560010160009054906101000a900473ffffffffffffffffffffffffffffffffffffffff168742604051610c3d93929190611921565b60405180910390a35050505050565b600360009054906101000a900473ffffffffffffffffffffffffffffffffffffffff1681565b600080600660008773ffffffffffffffffffffffffffffffffffffffff1673ffffffffffffffffffffffffffffffffffffffff1681526020019081526020016000205403610cf5576040517f08c379a0000000000000000000000000000000000000000000000000000000008152600401610cec90611ac8565b60405180910390fd5b60008311610d38576040517f08c379a0000000000000000000000000000000000000000000000000000000008152600401610d2f90611b5a565b60405180910390fd5b8373ffffffffffffffffffffffffffffffffffffffff1660008054906101000a900473ffffffffffffffffffffffffffffffffffffffff1673ffffffffffffffffffffffffffffffffffffffff161480610dbd57508373ffffffffffffffffffffffffffffffffffffffff168573ffffffffffffffffffffffffffffffffffffffff16145b610dfc576040517f08c379a0000000000000000000000000000000000000000000000000000000008152600401610df390611bc6565b60405180910390fd5b6000600660008773ffffffffffffffffffffffffffffffffffffffff1673ffffffffffffffffffffffffffffffffffffffff1681526020019081526020016000205490506000869050610e723330878473ffffffffffffffffffffffffffffffffffffffff1661131c909392919063ffffffff16565b6005600081819054906101000a900475ffffffffffffffffffffffffffffffffffffffffffff1680929190610ea690611c08565b91906101000a81548175ffffffffffffffffffffffffffffffffffffffffffff021916908375ffffffffffffffffffffffffffffffffffffffffffff16021790555075ffffffffffffffffffffffffffffffffffffffffffff1692506040518061010001604052803373ffffffffffffffffffffffffffffffffffffffff1681526020018873ffffffffffffffffffffffffffffffffffffffff1681526020018773ffffffffffffffffffffffffffffffffffffffff168152602001868152602001600081526020018381526020014281526020018515158152506008600085815260200190815260200160002060008201518160000160006101000a81548173ffffffffffffffffffffffffffffffffffffffff021916908373ffffffffffffffffffffffffffffffffffffffff16021790555060208201518160010160006101000a81548173ffffffffffffffffffffffffffffffffffffffff021916908373ffffffffffffffffffffffffffffffffffffffff16021790555060408201518160020160006101000a81548173ffffffffffffffffffffffffffffffffffffffff021916908373ffffffffffffffffffffffffffffffffffffffff160217905550606082015181600301556080820151816004015560a0820151816005015560c0820151816006015560e08201518160070160006101000a81548160ff0219169083151502179055509050506001600760008973ffffffffffffffffffffffffffffffffffffffff1673ffffffffffffffffffffffffffffffffffffffff16815260200190815260200160002060008282546111049190611824565b925050819055503373ffffffffffffffffffffffffffffffffffffffff16837f8d6447383741d41c5d5c9183b2b6be0d6a8cc1f2b3f365aeacc2775251b07737898989894260405161115a959493929190611c46565b60405180910390a35050949350505050565b60066020528060005260406000206000915090505481565b60008082600601544261119791906118ed565b9050600061016d670de0b6b3a764000085600501546111b69190611c99565b6111c09190611d0a565b90508360070160009054906101000a900460ff16156112565760008460030154905060005b62015180846111f49190611d0a565b81101561123b57600068056bc75e2d6310000084846112139190611c99565b61121d9190611d0a565b9050808361122b9190611824565b92505080806001019150506111e5565b5084600301548161124c91906118ed565b9350505050611298565b68056bc75e2d6310000062015180838387600301546112759190611c99565b61127f9190611c99565b6112899190611d0a565b6112939190611d0a565b925050505b919050565b611317838473ffffffffffffffffffffffffffffffffffffffff1663a9059cbb85856040516024016112d0929190611d3b565b604051602081830303815290604052915060e01b6020820180517bffffffffffffffffffffffffffffffffffffffffffffffffffffffff838183161783525050505061139e565b505050565b611398848573ffffffffffffffffffffffffffffffffffffffff166323b872dd86868660405160240161135193929190611d64565b604051602081830303815290604052915060e01b6020820180517bffffffffffffffffffffffffffffffffffffffffffffffffffffffff838183161783525050505061139e565b50505050565b600080602060008451602086016000885af1806113c1576040513d6000823e3d81fd5b3d9250600051915050600082146113dc5760018114156113f8565b60008473ffffffffffffffffffffffffffffffffffffffff163b145b1561143a57836040517f5274afe70000000000000000000000000000000000000000000000000000000081526004016114319190611d9b565b60405180910390fd5b50505050565b600073ffffffffffffffffffffffffffffffffffffffff82169050919050565b6000819050919050565b600061148561148061147b84611440565b611460565b611440565b9050919050565b60006114978261146a565b9050919050565b60006114a98261148c565b9050919050565b6114b98161149e565b82525050565b60006020820190506114d460008301846114b0565b92915050565b600080fd5b6000819050919050565b6114f2816114df565b81146114fd57600080fd5b50565b60008135905061150f816114e9565b92915050565b60006020828403121561152b5761152a6114da565b5b600061153984828501611500565b91505092915050565b600061154d82611440565b9050919050565b61155d81611542565b811461156857600080fd5b50565b60008135905061157a81611554565b92915050565b600060208284031215611596576115956114da565b5b60006115a48482850161156b565b91505092915050565b6115b6816114df565b82525050565b60006020820190506115d160008301846115ad565b92915050565b6115e081611542565b82525050565b60008115159050919050565b6115fb816115e6565b82525050565b600061010082019050611617600083018b6115d7565b611624602083018a6115d7565b61163160408301896115d7565b61163e60608301886115ad565b61164b60808301876115ad565b61165860a08301866115ad565b61166560c08301856115ad565b61167260e08301846115f2565b9998505050505050505050565b60008060408385031215611696576116956114da565b5b60006116a485828601611500565b92505060206116b585828601611500565b9150509250929050565b6116c8816115e6565b81146116d357600080fd5b50565b6000813590506116e5816116bf565b92915050565b60008060008060808587031215611705576117046114da565b5b60006117138782880161156b565b94505060206117248782880161156b565b935050604061173587828801611500565b9250506060611746878288016116d6565b91505092959194509250565b600082825260208201905092915050565b7f596f7520617265206e6f7420746865206f776e6572206f66207468697320706f60008201527f736974696f6e0000000000000000000000000000000000000000000000000000602082015250565b60006117bf602683611752565b91506117ca82611763565b604082019050919050565b600060208201905081810360008301526117ee816117b2565b9050919050565b7f4e487b7100000000000000000000000000000000000000000000000000000000600052601160045260246000fd5b600061182f826114df565b915061183a836114df565b9250828201905080821115611852576118516117f5565b5b92915050565b600060408201905061186d60008301856115ad565b61187a60208301846115ad565b9392505050565b7f4e6f207374616b6520616d6f756e7420746f20756e7374616b652e0000000000600082015250565b60006118b7601b83611752565b91506118c282611881565b602082019050919050565b600060208201905081810360008301526118e6816118aa565b9050919050565b60006118f8826114df565b9150611903836114df565b925082820390508181111561191b5761191a6117f5565b5b92915050565b600060608201905061193660008301866115d7565b61194360208301856115ad565b61195060408301846115ad565b949350505050565b7f4f6e6c79206f776e65722063616e20696e63726561736520746865207374616b60008201527f656420616d6f756e742100000000000000000000000000000000000000000000602082015250565b60006119b4602a83611752565b91506119bf82611958565b604082019050919050565b600060208201905081810360008301526119e3816119a7565b9050919050565b7f496e63726561736520616d6f756e74206d75737420626520677265617465722060008201527f7468616e207a65726f2e00000000000000000000000000000000000000000000602082015250565b6000611a46602a83611752565b9150611a51826119ea565b604082019050919050565b60006020820190508181036000830152611a7581611a39565b9050919050565b7f546f6b656e206e6f7420737570706f7274656420666f72207374616b696e672e600082015250565b6000611ab2602083611752565b9150611abd82611a7c565b602082019050919050565b60006020820190508181036000830152611ae181611aa5565b9050919050565b7f5374616b696e6720616d6f756e74206d7573742062652067726561746572207460008201527f68616e207a65726f2e0000000000000000000000000000000000000000000000602082015250565b6000611b44602983611752565b9150611b4f82611ae8565b604082019050919050565b60006020820190508181036000830152611b7381611b37565b9050919050565b7f496e76616c69642072657761726420746f6b656e2e0000000000000000000000600082015250565b6000611bb0601583611752565b9150611bbb82611b7a565b602082019050919050565b60006020820190508181036000830152611bdf81611ba3565b9050919050565b600075ffffffffffffffffffffffffffffffffffffffffffff82169050919050565b6000611c1382611be6565b915075ffffffffffffffffffffffffffffffffffffffffffff8203611c3b57611c3a6117f5565b5b600182019050919050565b600060a082019050611c5b60008301886115d7565b611c6860208301876115d7565b611c7560408301866115ad565b611c8260608301856115f2565b611c8f60808301846115ad565b9695505050505050565b6000611ca4826114df565b9150611caf836114df565b9250828202611cbd816114df565b91508282048414831517611cd457611cd36117f5565b5b5092915050565b7f4e487b7100000000000000000000000000000000000000000000000000000000600052601260045260246000fd5b6000611d15826114df565b9150611d20836114df565b925082611d3057611d2f611cdb565b5b828204905092915050565b6000604082019050611d5060008301856115d7565b611d5d60208301846115ad565b9392505050565b6000606082019050611d7960008301866115d7565b611d8660208301856115d7565b611d9360408301846115ad565b949350505050565b6000602082019050611db060008301846115d7565b9291505056fea2646970667358221220960a98bb2a1714f13ea1a5cba392c49707874a9661bd92099f9eb7152decabd164736f6c634300081a0033","linkReferences":{}},"methodIdentifiers":{"anfi()":"8e3833a7","arbitrumIndex()":"15690efb","crypto5()":"651d0f76","increaseStakeAmount(uint256,uint256)":"adbd3990","magnificent7Index()":"bf074c9d","nexLabs()":"3c6d0b48","numberOfStakersByTokenAddress(address)":"548d3e67","positions(uint256)":"99fbab88","stake(address,address,uint256,bool)":"cc574658","tokensAPY(address)":"e80f1071","unStake(uint256)":"5d3eea91","withdrawReward(uint256)":"523a3f08"},"id":0}