{"abi":[{"type":"constructor","inputs":[{"name":"_nexLabsAddress","type":"address","internalType":"address"},{"name":"_tokenAddresses","type":"address[]","internalType":"address[]"},{"name":"_tokenAPYs","type":"uint256[]","internalType":"uint256[]"},{"name":"_feePercent","type":"uint256","internalType":"uint256"}],"stateMutability":"nonpayable"},{"type":"function","name":"feePercent","inputs":[],"outputs":[{"name":"","type":"uint256","internalType":"uint256"}],"stateMutability":"view"},{"type":"function","name":"increaseStakeAmount","inputs":[{"name":"positionId","type":"uint256","internalType":"uint256"},{"name":"amount","type":"uint256","internalType":"uint256"}],"outputs":[],"stateMutability":"nonpayable"},{"type":"function","name":"nexLabs","inputs":[],"outputs":[{"name":"","type":"address","internalType":"contract IERC20"}],"stateMutability":"view"},{"type":"function","name":"numberOfStakersByTokenAddress","inputs":[{"name":"","type":"address","internalType":"address"}],"outputs":[{"name":"","type":"uint256","internalType":"uint256"}],"stateMutability":"view"},{"type":"function","name":"positions","inputs":[{"name":"positionId","type":"uint256","internalType":"uint256"}],"outputs":[{"name":"owner","type":"address","internalType":"address"},{"name":"stakeToken","type":"address","internalType":"address"},{"name":"rewardToken","type":"address","internalType":"address"},{"name":"stakeAmount","type":"uint256","internalType":"uint256"},{"name":"rewardEarned","type":"uint256","internalType":"uint256"},{"name":"apy","type":"uint256","internalType":"uint256"},{"name":"startTime","type":"uint256","internalType":"uint256"},{"name":"autoCompound","type":"bool","internalType":"bool"}],"stateMutability":"view"},{"type":"function","name":"stake","inputs":[{"name":"tokenAddress","type":"address","internalType":"address"},{"name":"rewardToken","type":"address","internalType":"address"},{"name":"amount","type":"uint256","internalType":"uint256"},{"name":"autoCompound","type":"bool","internalType":"bool"}],"outputs":[{"name":"positionId","type":"uint256","internalType":"uint256"}],"stateMutability":"nonpayable"},{"type":"function","name":"tokensAPY","inputs":[{"name":"","type":"address","internalType":"address"}],"outputs":[{"name":"","type":"uint256","internalType":"uint256"}],"stateMutability":"view"},{"type":"function","name":"unStake","inputs":[{"name":"positionId","type":"uint256","internalType":"uint256"}],"outputs":[],"stateMutability":"nonpayable"},{"type":"function","name":"withdrawReward","inputs":[{"name":"positionId","type":"uint256","internalType":"uint256"}],"outputs":[],"stateMutability":"nonpayable"},{"type":"event","name":"RewardWithdrawn","inputs":[{"name":"positionId","type":"uint256","indexed":true,"internalType":"uint256"},{"name":"user","type":"address","indexed":true,"internalType":"address"},{"name":"amount","type":"uint256","indexed":false,"internalType":"uint256"},{"name":"timestamp","type":"uint256","indexed":false,"internalType":"uint256"}],"anonymous":false},{"type":"event","name":"Staked","inputs":[{"name":"positionId","type":"uint256","indexed":true,"internalType":"uint256"},{"name":"user","type":"address","indexed":true,"internalType":"address"},{"name":"token","type":"address","indexed":false,"internalType":"address"},{"name":"rewardToken","type":"address","indexed":false,"internalType":"address"},{"name":"amount","type":"uint256","indexed":false,"internalType":"uint256"},{"name":"autoCompound","type":"bool","indexed":false,"internalType":"bool"},{"name":"timestamp","type":"uint256","indexed":false,"internalType":"uint256"}],"anonymous":false},{"type":"event","name":"StakedIncreased","inputs":[{"name":"positionId","type":"uint256","indexed":true,"internalType":"uint256"},{"name":"user","type":"address","indexed":true,"internalType":"address"},{"name":"token","type":"address","indexed":false,"internalType":"address"},{"name":"amount","type":"uint256","indexed":false,"internalType":"uint256"},{"name":"timestamp","type":"uint256","indexed":false,"internalType":"uint256"}],"anonymous":false},{"type":"event","name":"UnStaked","inputs":[{"name":"positionId","type":"uint256","indexed":true,"internalType":"uint256"},{"name":"user","type":"address","indexed":true,"internalType":"address"},{"name":"token","type":"address","indexed":false,"internalType":"address"},{"name":"amountUstaked","type":"uint256","indexed":false,"internalType":"uint256"},{"name":"rewardAmountUnstaked","type":"uint256","indexed":false,"internalType":"uint256"},{"name":"timestamp","type":"uint256","indexed":false,"internalType":"uint256"}],"anonymous":false},{"type":"error","name":"SafeERC20FailedOperation","inputs":[{"name":"token","type":"address","internalType":"address"}]}],"bytecode":{"object":"0x6080604052600160025f6101000a81548175ffffffffffffffffffffffffffffffffffffffffffff021916908375ffffffffffffffffffffffffffffffffffffffffffff160217905550348015610054575f80fd5b5060405161248838038061248883398181016040528101906100769190610446565b81518351146100ba576040517f08c379a00000000000000000000000000000000000000000000000000000000081526004016100b19061053c565b60405180910390fd5b835f806101000a81548173ffffffffffffffffffffffffffffffffffffffff021916908373ffffffffffffffffffffffffffffffffffffffff160217905550806001819055505f5b835181101561018e5782818151811061011e5761011d61055a565b5b602002602001015160035f86848151811061013c5761013b61055a565b5b602002602001015173ffffffffffffffffffffffffffffffffffffffff1673ffffffffffffffffffffffffffffffffffffffff1681526020019081526020015f20819055508080600101915050610102565b5050505050610587565b5f604051905090565b5f80fd5b5f80fd5b5f73ffffffffffffffffffffffffffffffffffffffff82169050919050565b5f6101d2826101a9565b9050919050565b6101e2816101c8565b81146101ec575f80fd5b50565b5f815190506101fd816101d9565b92915050565b5f80fd5b5f601f19601f8301169050919050565b7f4e487b71000000000000000000000000000000000000000000000000000000005f52604160045260245ffd5b61024d82610207565b810181811067ffffffffffffffff8211171561026c5761026b610217565b5b80604052505050565b5f61027e610198565b905061028a8282610244565b919050565b5f67ffffffffffffffff8211156102a9576102a8610217565b5b602082029050602081019050919050565b5f80fd5b5f6102d06102cb8461028f565b610275565b905080838252602082019050602084028301858111156102f3576102f26102ba565b5b835b8181101561031c578061030888826101ef565b8452602084019350506020810190506102f5565b5050509392505050565b5f82601f83011261033a57610339610203565b5b815161034a8482602086016102be565b91505092915050565b5f67ffffffffffffffff82111561036d5761036c610217565b5b602082029050602081019050919050565b5f819050919050565b6103908161037e565b811461039a575f80fd5b50565b5f815190506103ab81610387565b92915050565b5f6103c36103be84610353565b610275565b905080838252602082019050602084028301858111156103e6576103e56102ba565b5b835b8181101561040f57806103fb888261039d565b8452602084019350506020810190506103e8565b5050509392505050565b5f82601f83011261042d5761042c610203565b5b815161043d8482602086016103b1565b91505092915050565b5f805f806080858703121561045e5761045d6101a1565b5b5f61046b878288016101ef565b945050602085015167ffffffffffffffff81111561048c5761048b6101a5565b5b61049887828801610326565b935050604085015167ffffffffffffffff8111156104b9576104b86101a5565b5b6104c587828801610419565b92505060606104d68782880161039d565b91505092959194509250565b5f82825260208201905092915050565b7f4d69736d61746368656420746f6b656e20616e6420415059206c656e677468735f82015250565b5f6105266020836104e2565b9150610531826104f2565b602082019050919050565b5f6020820190508181035f8301526105538161051a565b9050919050565b7f4e487b71000000000000000000000000000000000000000000000000000000005f52603260045260245ffd5b611ef4806105945f395ff3fe608060405234801561000f575f80fd5b5060043610610091575f3560e01c80637fd6f15c116100645780637fd6f15c1461011b57806399fbab8814610139578063adbd399014610170578063cc5746581461018c578063e80f1071146101bc57610091565b80633c6d0b4814610095578063523a3f08146100b3578063548d3e67146100cf5780635d3eea91146100ff575b5f80fd5b61009d6101ec565b6040516100aa9190611542565b60405180910390f35b6100cd60048036038101906100c89190611592565b61020f565b005b6100e960048036038101906100e491906115f8565b6103ba565b6040516100f69190611632565b60405180910390f35b61011960048036038101906101149190611592565b6103cf565b005b6101236108b1565b6040516101309190611632565b60405180910390f35b610153600480360381019061014e9190611592565b6108b7565b604051610167989796959493929190611674565b60405180910390f35b61018a600480360381019061018591906116f0565b610a62565b005b6101a660048036038101906101a19190611758565b610ca3565b6040516101b39190611632565b60405180910390f35b6101d660048036038101906101d191906115f8565b6111c8565b6040516101e39190611632565b60405180910390f35b5f8054906101000a900473ffffffffffffffffffffffffffffffffffffffff1681565b5f60055f8381526020019081526020015f2090503373ffffffffffffffffffffffffffffffffffffffff16815f015f9054906101000a900473ffffffffffffffffffffffffffffffffffffffff1673ffffffffffffffffffffffffffffffffffffffff16146102b3576040517f08c379a00000000000000000000000000000000000000000000000000000000081526004016102aa9061183c565b60405180910390fd5b5f6102bd826111dd565b82600401546102cc9190611887565b9050816007015f9054906101000a900460ff16156103035780826003015f8282546102f79190611887565b92505081905550610352565b6103513382846002015f9054906101000a900473ffffffffffffffffffffffffffffffffffffffff1673ffffffffffffffffffffffffffffffffffffffff166112f09092919063ffffffff16565b5b5f82600401819055504282600601819055503373ffffffffffffffffffffffffffffffffffffffff16837f746e77ecea01d694db4b52c8fd03d2e4008fe44a603d88e09e40a60d297d94d883426040516103ad9291906118ba565b60405180910390a3505050565b6004602052805f5260405f205f915090505481565b5f60055f8381526020019081526020015f2090503373ffffffffffffffffffffffffffffffffffffffff16815f015f9054906101000a900473ffffffffffffffffffffffffffffffffffffffff1673ffffffffffffffffffffffffffffffffffffffff1614610473576040517f08c379a000000000000000000000000000000000000000000000000000000000815260040161046a90611951565b60405180910390fd5b5f8160030154116104b9576040517f08c379a00000000000000000000000000000000000000000000000000000000081526004016104b0906119b9565b60405180910390fd5b5f6104c3826111dd565b82600401546104d29190611887565b90505f806104e28360015461136f565b91509150836002015f9054906101000a900473ffffffffffffffffffffffffffffffffffffffff1673ffffffffffffffffffffffffffffffffffffffff16846001015f9054906101000a900473ffffffffffffffffffffffffffffffffffffffff1673ffffffffffffffffffffffffffffffffffffffff1603610614575f8185600301546105709190611887565b90506105c03382876001015f9054906101000a900473ffffffffffffffffffffffffffffffffffffffff1673ffffffffffffffffffffffffffffffffffffffff166112f09092919063ffffffff16565b61060e3084876001015f9054906101000a900473ffffffffffffffffffffffffffffffffffffffff1673ffffffffffffffffffffffffffffffffffffffff166112f09092919063ffffffff16565b50610703565b610666338560030154866001015f9054906101000a900473ffffffffffffffffffffffffffffffffffffffff1673ffffffffffffffffffffffffffffffffffffffff166112f09092919063ffffffff16565b6106b43382866002015f9054906101000a900473ffffffffffffffffffffffffffffffffffffffff1673ffffffffffffffffffffffffffffffffffffffff166112f09092919063ffffffff16565b6107023083866001015f9054906101000a900473ffffffffffffffffffffffffffffffffffffffff1673ffffffffffffffffffffffffffffffffffffffff166112f09092919063ffffffff16565b5b600160045f866001015f9054906101000a900473ffffffffffffffffffffffffffffffffffffffff1673ffffffffffffffffffffffffffffffffffffffff1673ffffffffffffffffffffffffffffffffffffffff1681526020019081526020015f205f82825461077391906119d7565b925050819055503373ffffffffffffffffffffffffffffffffffffffff16857f976fa465a6a0d38397fdef3740568444098c3887c61f0a45d37a0a33463a9bb5866001015f9054906101000a900473ffffffffffffffffffffffffffffffffffffffff16876003015485426040516107ee9493929190611a0a565b60405180910390a360055f8681526020019081526020015f205f8082015f6101000a81549073ffffffffffffffffffffffffffffffffffffffff0219169055600182015f6101000a81549073ffffffffffffffffffffffffffffffffffffffff0219169055600282015f6101000a81549073ffffffffffffffffffffffffffffffffffffffff0219169055600382015f9055600482015f9055600582015f9055600682015f9055600782015f6101000a81549060ff021916905550505050505050565b60015481565b5f805f805f805f805f60055f8b81526020019081526020015f20604051806101000160405290815f82015f9054906101000a900473ffffffffffffffffffffffffffffffffffffffff1673ffffffffffffffffffffffffffffffffffffffff1673ffffffffffffffffffffffffffffffffffffffff168152602001600182015f9054906101000a900473ffffffffffffffffffffffffffffffffffffffff1673ffffffffffffffffffffffffffffffffffffffff1673ffffffffffffffffffffffffffffffffffffffff168152602001600282015f9054906101000a900473ffffffffffffffffffffffffffffffffffffffff1673ffffffffffffffffffffffffffffffffffffffff1673ffffffffffffffffffffffffffffffffffffffff16815260200160038201548152602001600482015481526020016005820154815260200160068201548152602001600782015f9054906101000a900460ff1615151515815250509050805f015181602001518260400151836060015184608001518560a001518660c001518760e001519850985098509850985098509850985050919395975091939597565b5f60055f8481526020019081526020015f2090503373ffffffffffffffffffffffffffffffffffffffff16815f015f9054906101000a900473ffffffffffffffffffffffffffffffffffffffff1673ffffffffffffffffffffffffffffffffffffffff1614610b06576040517f08c379a0000000000000000000000000000000000000000000000000000000008152600401610afd90611abd565b60405180910390fd5b5f8211610b48576040517f08c379a0000000000000000000000000000000000000000000000000000000008152600401610b3f90611b4b565b60405180910390fd5b5f80610b568460015461136f565b915091505f836001015f9054906101000a900473ffffffffffffffffffffffffffffffffffffffff169050610bae3330848473ffffffffffffffffffffffffffffffffffffffff166113ab909392919063ffffffff16565b610bdb3330858473ffffffffffffffffffffffffffffffffffffffff166113ab909392919063ffffffff16565b5f610be5856111dd565b905082856003015f828254610bfa9190611887565b9250508190555080856004015f828254610c149190611887565b925050819055504285600601819055503373ffffffffffffffffffffffffffffffffffffffff16877f6c867f693c9c5b8cd5eef34e0e307505a7189dce0b3e73b8e94e09672c15455f876001015f9054906101000a900473ffffffffffffffffffffffffffffffffffffffff168642604051610c9293929190611b69565b60405180910390a350505050505050565b5f8060035f8773ffffffffffffffffffffffffffffffffffffffff1673ffffffffffffffffffffffffffffffffffffffff1681526020019081526020015f205403610d23576040517f08c379a0000000000000000000000000000000000000000000000000000000008152600401610d1a90611be8565b60405180910390fd5b5f8311610d65576040517f08c379a0000000000000000000000000000000000000000000000000000000008152600401610d5c90611c76565b60405180910390fd5b8373ffffffffffffffffffffffffffffffffffffffff165f8054906101000a900473ffffffffffffffffffffffffffffffffffffffff1673ffffffffffffffffffffffffffffffffffffffff161480610de957508373ffffffffffffffffffffffffffffffffffffffff168573ffffffffffffffffffffffffffffffffffffffff16145b610e28576040517f08c379a0000000000000000000000000000000000000000000000000000000008152600401610e1f90611cde565b60405180910390fd5b5f60035f8773ffffffffffffffffffffffffffffffffffffffff1673ffffffffffffffffffffffffffffffffffffffff1681526020019081526020015f205490505f80610e778660015461136f565b915091505f889050610eac3330848473ffffffffffffffffffffffffffffffffffffffff166113ab909392919063ffffffff16565b610ed93330858473ffffffffffffffffffffffffffffffffffffffff166113ab909392919063ffffffff16565b60025f81819054906101000a900475ffffffffffffffffffffffffffffffffffffffffffff1680929190610f0c90611d1d565b91906101000a81548175ffffffffffffffffffffffffffffffffffffffffffff021916908375ffffffffffffffffffffffffffffffffffffffffffff16021790555075ffffffffffffffffffffffffffffffffffffffffffff1694506040518061010001604052803373ffffffffffffffffffffffffffffffffffffffff1681526020018a73ffffffffffffffffffffffffffffffffffffffff1681526020018973ffffffffffffffffffffffffffffffffffffffff1681526020018381526020015f815260200185815260200142815260200187151581525060055f8781526020019081526020015f205f820151815f015f6101000a81548173ffffffffffffffffffffffffffffffffffffffff021916908373ffffffffffffffffffffffffffffffffffffffff1602179055506020820151816001015f6101000a81548173ffffffffffffffffffffffffffffffffffffffff021916908373ffffffffffffffffffffffffffffffffffffffff1602179055506040820151816002015f6101000a81548173ffffffffffffffffffffffffffffffffffffffff021916908373ffffffffffffffffffffffffffffffffffffffff160217905550606082015181600301556080820151816004015560a0820151816005015560c0820151816006015560e0820151816007015f6101000a81548160ff021916908315150217905550905050600160045f8b73ffffffffffffffffffffffffffffffffffffffff1673ffffffffffffffffffffffffffffffffffffffff1681526020019081526020015f205f82825461115e9190611887565b925050819055503373ffffffffffffffffffffffffffffffffffffffff16857f8d6447383741d41c5d5c9183b2b6be0d6a8cc1f2b3f365aeacc2775251b077378b8b868b426040516111b4959493929190611d5a565b60405180910390a350505050949350505050565b6003602052805f5260405f205f915090505481565b5f808260060154426111ef91906119d7565b90505f61016d670de0b6b3a7640000856005015461120d9190611dab565b6112179190611e19565b9050836007015f9054906101000a900460ff16156112a9575f846003015490505f5b62015180846112489190611e19565b81101561128e575f68056bc75e2d6310000084846112669190611dab565b6112709190611e19565b9050808361127e9190611887565b9250508080600101915050611239565b5084600301548161129f91906119d7565b93505050506112eb565b68056bc75e2d6310000062015180838387600301546112c89190611dab565b6112d29190611dab565b6112dc9190611e19565b6112e69190611e19565b925050505b919050565b61136a838473ffffffffffffffffffffffffffffffffffffffff1663a9059cbb8585604051602401611323929190611e49565b604051602081830303815290604052915060e01b6020820180517bffffffffffffffffffffffffffffffffffffffffffffffffffffffff838183161783525050505061142d565b505050565b5f805f61271084866113819190611dab565b61138b9190611e19565b90505f818661139a91906119d7565b905081819350935050509250929050565b611427848573ffffffffffffffffffffffffffffffffffffffff166323b872dd8686866040516024016113e093929190611e70565b604051602081830303815290604052915060e01b6020820180517bffffffffffffffffffffffffffffffffffffffffffffffffffffffff838183161783525050505061142d565b50505050565b5f8060205f8451602086015f885af18061144c576040513d5f823e3d81fd5b3d92505f519150505f8214611465576001811415611480565b5f8473ffffffffffffffffffffffffffffffffffffffff163b145b156114c257836040517f5274afe70000000000000000000000000000000000000000000000000000000081526004016114b99190611ea5565b60405180910390fd5b50505050565b5f73ffffffffffffffffffffffffffffffffffffffff82169050919050565b5f819050919050565b5f61150a611505611500846114c8565b6114e7565b6114c8565b9050919050565b5f61151b826114f0565b9050919050565b5f61152c82611511565b9050919050565b61153c81611522565b82525050565b5f6020820190506115555f830184611533565b92915050565b5f80fd5b5f819050919050565b6115718161155f565b811461157b575f80fd5b50565b5f8135905061158c81611568565b92915050565b5f602082840312156115a7576115a661155b565b5b5f6115b48482850161157e565b91505092915050565b5f6115c7826114c8565b9050919050565b6115d7816115bd565b81146115e1575f80fd5b50565b5f813590506115f2816115ce565b92915050565b5f6020828403121561160d5761160c61155b565b5b5f61161a848285016115e4565b91505092915050565b61162c8161155f565b82525050565b5f6020820190506116455f830184611623565b92915050565b611654816115bd565b82525050565b5f8115159050919050565b61166e8161165a565b82525050565b5f610100820190506116885f83018b61164b565b611695602083018a61164b565b6116a2604083018961164b565b6116af6060830188611623565b6116bc6080830187611623565b6116c960a0830186611623565b6116d660c0830185611623565b6116e360e0830184611665565b9998505050505050505050565b5f80604083850312156117065761170561155b565b5b5f6117138582860161157e565b92505060206117248582860161157e565b9150509250929050565b6117378161165a565b8114611741575f80fd5b50565b5f813590506117528161172e565b92915050565b5f805f80608085870312156117705761176f61155b565b5b5f61177d878288016115e4565b945050602061178e878288016115e4565b935050604061179f8782880161157e565b92505060606117b087828801611744565b91505092959194509250565b5f82825260208201905092915050565b7f596f7520617265206e6f7420746865206f776e6572206f66207468697320706f5f8201527f736974696f6e0000000000000000000000000000000000000000000000000000602082015250565b5f6118266026836117bc565b9150611831826117cc565b604082019050919050565b5f6020820190508181035f8301526118538161181a565b9050919050565b7f4e487b71000000000000000000000000000000000000000000000000000000005f52601160045260245ffd5b5f6118918261155f565b915061189c8361155f565b92508282019050808211156118b4576118b361185a565b5b92915050565b5f6040820190506118cd5f830185611623565b6118da6020830184611623565b9392505050565b7f596f7520617265206e6f7420746865206f776e6572206f66207468697320706f5f8201527f736974696f6e2100000000000000000000000000000000000000000000000000602082015250565b5f61193b6027836117bc565b9150611946826118e1565b604082019050919050565b5f6020820190508181035f8301526119688161192f565b9050919050565b7f4e6f207374616b6520616d6f756e7420746f20756e7374616b652e00000000005f82015250565b5f6119a3601b836117bc565b91506119ae8261196f565b602082019050919050565b5f6020820190508181035f8301526119d081611997565b9050919050565b5f6119e18261155f565b91506119ec8361155f565b9250828203905081811115611a0457611a0361185a565b5b92915050565b5f608082019050611a1d5f83018761164b565b611a2a6020830186611623565b611a376040830185611623565b611a446060830184611623565b95945050505050565b7f4f6e6c79206f776e65722063616e20696e63726561736520746865207374616b5f8201527f656420616d6f756e742100000000000000000000000000000000000000000000602082015250565b5f611aa7602a836117bc565b9150611ab282611a4d565b604082019050919050565b5f6020820190508181035f830152611ad481611a9b565b9050919050565b7f496e63726561736520616d6f756e74206d7573742062652067726561746572205f8201527f7468616e207a65726f2e00000000000000000000000000000000000000000000602082015250565b5f611b35602a836117bc565b9150611b4082611adb565b604082019050919050565b5f6020820190508181035f830152611b6281611b29565b9050919050565b5f606082019050611b7c5f83018661164b565b611b896020830185611623565b611b966040830184611623565b949350505050565b7f546f6b656e206e6f7420737570706f7274656420666f72207374616b696e672e5f82015250565b5f611bd26020836117bc565b9150611bdd82611b9e565b602082019050919050565b5f6020820190508181035f830152611bff81611bc6565b9050919050565b7f5374616b696e6720616d6f756e74206d757374206265206772656174657220745f8201527f68616e207a65726f2e0000000000000000000000000000000000000000000000602082015250565b5f611c606029836117bc565b9150611c6b82611c06565b604082019050919050565b5f6020820190508181035f830152611c8d81611c54565b9050919050565b7f496e76616c69642072657761726420746f6b656e2e00000000000000000000005f82015250565b5f611cc86015836117bc565b9150611cd382611c94565b602082019050919050565b5f6020820190508181035f830152611cf581611cbc565b9050919050565b5f75ffffffffffffffffffffffffffffffffffffffffffff82169050919050565b5f611d2782611cfc565b915075ffffffffffffffffffffffffffffffffffffffffffff8203611d4f57611d4e61185a565b5b600182019050919050565b5f60a082019050611d6d5f83018861164b565b611d7a602083018761164b565b611d876040830186611623565b611d946060830185611665565b611da16080830184611623565b9695505050505050565b5f611db58261155f565b9150611dc08361155f565b9250828202611dce8161155f565b91508282048414831517611de557611de461185a565b5b5092915050565b7f4e487b71000000000000000000000000000000000000000000000000000000005f52601260045260245ffd5b5f611e238261155f565b9150611e2e8361155f565b925082611e3e57611e3d611dec565b5b828204905092915050565b5f604082019050611e5c5f83018561164b565b611e696020830184611623565b9392505050565b5f606082019050611e835f83018661164b565b611e90602083018561164b565b611e9d6040830184611623565b949350505050565b5f602082019050611eb85f83018461164b565b9291505056fea2646970667358221220c68d6dd87365d0c537a994292a2916eecafa63621d8fd297bbffc0d31d3a6bdd64736f6c634300081a0033","linkReferences":{}},"methodIdentifiers":{"feePercent()":"7fd6f15c","increaseStakeAmount(uint256,uint256)":"adbd3990","nexLabs()":"3c6d0b48","numberOfStakersByTokenAddress(address)":"548d3e67","positions(uint256)":"99fbab88","stake(address,address,uint256,bool)":"cc574658","tokensAPY(address)":"e80f1071","unStake(uint256)":"5d3eea91","withdrawReward(uint256)":"523a3f08"},"id":0}