{"abi":[{"type":"constructor","inputs":[{"name":"_nexLabsAddress","type":"address","internalType":"address"},{"name":"_tokenAddress","type":"address[]","internalType":"address[]"},{"name":"_feePercent","type":"uint256","internalType":"uint256"},{"name":"_erc4626Factory","type":"address","internalType":"address"}],"stateMutability":"nonpayable"},{"type":"function","name":"calculateWeightOfPools","inputs":[],"outputs":[{"name":"","type":"uint256[]","internalType":"uint256[]"}],"stateMutability":"view"},{"type":"function","name":"feePercent","inputs":[],"outputs":[{"name":"","type":"uint256","internalType":"uint256"}],"stateMutability":"view"},{"type":"function","name":"nexLabsToken","inputs":[],"outputs":[{"name":"","type":"address","internalType":"contract IERC20"}],"stateMutability":"view"},{"type":"function","name":"numberOfStakersByTokenAddress","inputs":[{"name":"","type":"address","internalType":"address"}],"outputs":[{"name":"","type":"uint256","internalType":"uint256"}],"stateMutability":"view"},{"type":"function","name":"owner","inputs":[],"outputs":[{"name":"","type":"address","internalType":"address"}],"stateMutability":"view"},{"type":"function","name":"poolTokens","inputs":[{"name":"","type":"uint256","internalType":"uint256"}],"outputs":[{"name":"","type":"address","internalType":"address"}],"stateMutability":"view"},{"type":"function","name":"pools","inputs":[{"name":"","type":"address","internalType":"address"}],"outputs":[{"name":"vault","type":"address","internalType":"address"},{"name":"totalStaked","type":"uint256","internalType":"uint256"}],"stateMutability":"view"},{"type":"function","name":"positions","inputs":[{"name":"positionId","type":"uint256","internalType":"uint256"}],"outputs":[{"name":"positionOwner","type":"address","internalType":"address"},{"name":"stakeToken","type":"address","internalType":"address"},{"name":"vault","type":"address","internalType":"address"},{"name":"stakeAmount","type":"uint256","internalType":"uint256"},{"name":"shares","type":"uint256","internalType":"uint256"},{"name":"startTime","type":"uint256","internalType":"uint256"}],"stateMutability":"view"},{"type":"function","name":"renounceOwnership","inputs":[],"outputs":[],"stateMutability":"nonpayable"},{"type":"function","name":"stake","inputs":[{"name":"tokenAddress","type":"address","internalType":"address"},{"name":"amount","type":"uint256","internalType":"uint256"}],"outputs":[{"name":"positionId","type":"uint256","internalType":"uint256"}],"stateMutability":"nonpayable"},{"type":"function","name":"transferOwnership","inputs":[{"name":"newOwner","type":"address","internalType":"address"}],"outputs":[],"stateMutability":"nonpayable"},{"type":"function","name":"unstake","inputs":[{"name":"positionId","type":"uint256","internalType":"uint256"},{"name":"rewardToken","type":"address","internalType":"address"}],"outputs":[],"stateMutability":"nonpayable"},{"type":"event","name":"Initialized","inputs":[{"name":"version","type":"uint64","indexed":false,"internalType":"uint64"}],"anonymous":false},{"type":"event","name":"OwnershipTransferred","inputs":[{"name":"previousOwner","type":"address","indexed":true,"internalType":"address"},{"name":"newOwner","type":"address","indexed":true,"internalType":"address"}],"anonymous":false},{"type":"event","name":"Staked","inputs":[{"name":"positionId","type":"uint256","indexed":true,"internalType":"uint256"},{"name":"user","type":"address","indexed":true,"internalType":"address"},{"name":"tokenAddress","type":"address","indexed":true,"internalType":"address"},{"name":"vault","type":"address","indexed":false,"internalType":"address"},{"name":"amount","type":"uint256","indexed":false,"internalType":"uint256"},{"name":"timestamp","type":"uint256","indexed":false,"internalType":"uint256"}],"anonymous":false},{"type":"event","name":"UnStaked","inputs":[{"name":"positionId","type":"uint256","indexed":true,"internalType":"uint256"},{"name":"user","type":"address","indexed":true,"internalType":"address"},{"name":"tokenAddress","type":"address","indexed":true,"internalType":"address"},{"name":"vault","type":"address","indexed":false,"internalType":"address"},{"name":"amount","type":"uint256","indexed":false,"internalType":"uint256"},{"name":"timestamp","type":"uint256","indexed":false,"internalType":"uint256"}],"anonymous":false},{"type":"error","name":"InvalidInitialization","inputs":[]},{"type":"error","name":"NotInitializing","inputs":[]},{"type":"error","name":"OwnableInvalidOwner","inputs":[{"name":"owner","type":"address","internalType":"address"}]},{"type":"error","name":"OwnableUnauthorizedAccount","inputs":[{"name":"account","type":"address","internalType":"address"}]},{"type":"error","name":"SafeERC20FailedOperation","inputs":[{"name":"token","type":"address","internalType":"address"}]}],"bytecode":{"object":"0x608060405234801561000f575f80fd5b50604051610e7d380380610e7d83398101604081905261002e91610210565b600180546001600160a01b038087166001600160a01b031992831617835560038590556004929092555f8054928416929091169190911781555b83518110156101d757600284828151811061008557610085610308565b60209081029190910181015182546001810184555f93845291832090910180546001600160a01b0319166001600160a01b03928316179055815486519116906381122b84908790859081106100dc576100dc610308565b60200260200101516040518263ffffffff1660e01b815260040161010f91906001600160a01b0391909116815260200190565b6020604051808303815f875af115801561012b573d5f803e3d5ffd5b505050506040513d601f19601f8201168201806040525081019061014f919061031c565b90506040518060400160405280826001600160a01b031681526020015f81525060055f87858151811061018457610184610308565b6020908102919091018101516001600160a01b0390811683528282019390935260409091015f20835181546001600160a01b03191693169290921782559190910151600191820155919091019050610068565b505050505061033c565b80516001600160a01b03811681146101f7575f80fd5b919050565b634e487b7160e01b5f52604160045260245ffd5b5f805f8060808587031215610223575f80fd5b61022c856101e1565b60208601519094506001600160401b03811115610247575f80fd5b8501601f81018713610257575f80fd5b80516001600160401b03811115610270576102706101fc565b604051600582901b90603f8201601f191681016001600160401b038111828210171561029e5761029e6101fc565b60405291825260208184018101929081018a8411156102bb575f80fd5b6020850194505b838510156102e1576102d3856101e1565b8152602094850194016102c2565b50604089015190965094506102fd9250506060870190506101e1565b905092959194509250565b634e487b7160e01b5f52603260045260245ffd5b5f6020828403121561032c575f80fd5b610335826101e1565b9392505050565b610b34806103495f395ff3fe608060405234801561000f575f80fd5b50600436106100b1575f3560e01c806399fbab881161006e57806399fbab8814610168578063a4063dbc14610229578063adc9772e1461027a578063dced1a5a1461028d578063e0224900146102a0578063f2fde38b146102b5575f80fd5b8063548d3e67146100b55780635d15ac91146100e7578063715018a6146101125780637fd6f15c1461011c5780638381e182146101255780638da5cb5b14610138575b5f80fd5b6100d46100c336600461097d565b60076020525f908152604090205481565b6040519081526020015b60405180910390f35b6001546100fa906001600160a01b031681565b6040516001600160a01b0390911681526020016100de565b61011a6102c8565b005b6100d460035481565b61011a61013336600461099d565b6102db565b7f9016d09d72d40fdae2fd8ceac6b6234c7706214fd39c1cd1e609a0528c199300546001600160a01b03166100fa565b6101eb6101763660046109c7565b5f90815260066020908152604091829020825160c08101845281546001600160a01b0390811680835260018401548216948301859052600284015490911694820185905260038301546060830181905260048401546080840181905260059094015460a0909301839052909593949390929190565b604080516001600160a01b039788168152958716602087015293909516928401929092526060830152608082015260a081019190915260c0016100de565b61025b61023736600461097d565b60056020525f9081526040902080546001909101546001600160a01b039091169082565b604080516001600160a01b0390931683526020830191909152016100de565b6100d46102883660046109de565b6103f1565b6100fa61029b3660046109c7565b6105f4565b6102a861061c565b6040516100de9190610a06565b61011a6102c336600461097d565b61075a565b6102d0610797565b6102d95f6107f2565b565b5f82815260066020526040902080546001600160a01b031633146103565760405162461bcd60e51b815260206004820152602760248201527f596f7520617265206e6f7420746865206f776e6572206f66207468697320706f60448201526639b4ba34b7b71760c91b60648201526084015b60405180910390fd5b5f8160030154116103a95760405162461bcd60e51b815260206004820152601b60248201527f4e6f207374616b6520616d6f756e7420746f20756e7374616b652e0000000000604482015260640161034d565b50505f90815260066020526040812080546001600160a01b03199081168255600182018054821690556002820180549091169055600381018290556004810182905560050155565b5f6001600160a01b0383166104485760405162461bcd60e51b815260206004820181905260248201527f546f6b656e206e6f7420737570706f7274656420666f72207374616b696e672e604482015260640161034d565b5f82116104a95760405162461bcd60e51b815260206004820152602960248201527f5374616b696e6720616d6f756e74206d757374206265206772656174657220746044820152683430b7103d32b9379760b91b606482015260840161034d565b5f806104b784600354610862565b9092509050846104d26001600160a01b038216333085610896565b6104e76001600160a01b038216333086610896565b60048054905f6104f683610a5c565b909155506040805160c0810182523381526001600160a01b038981166020808401828152848601838152606086018a81525f608088018181524260a08a019081528b8352600687528a832099518a54908a166001600160a01b0319918216178b5595516001808c018054928c1692891692909217909155945160028b01805491909a16961695909517909755905160038801559451600487015590516005958601559183529290925291822001805492965084929091906105b8908490610a74565b90915550506001600160a01b0386165f9081526007602052604081208054600192906105e5908490610a74565b90915550939695505050505050565b60028181548110610603575f80fd5b5f918252602090912001546001600160a01b0316905081565b60605f8060028054905067ffffffffffffffff81111561063e5761063e610a8d565b604051908082528060200260200182016040528015610667578160200160208202803683370190505b5090505f5b6002548110156106c75760055f6002838154811061068c5761068c610aa1565b5f9182526020808320909101546001600160a01b031683528201929092526040019020600101546106bd9084610a74565b925060010161066c565b505f5b600254811015610753578260055f600284815481106106eb576106eb610aa1565b5f9182526020808320909101546001600160a01b0316835282019290925260400190206001015461072490670de0b6b3a7640000610ab5565b61072e9190610acc565b82828151811061074057610740610aa1565b60209081029190910101526001016106ca565b5092915050565b610762610797565b6001600160a01b03811661078b57604051631e4fbdf760e01b81525f600482015260240161034d565b610794816107f2565b50565b336107c97f9016d09d72d40fdae2fd8ceac6b6234c7706214fd39c1cd1e609a0528c199300546001600160a01b031690565b6001600160a01b0316146102d95760405163118cdaa760e01b815233600482015260240161034d565b7f9016d09d72d40fdae2fd8ceac6b6234c7706214fd39c1cd1e609a0528c19930080546001600160a01b031981166001600160a01b03848116918217845560405192169182907f8be0079c531659141344cd1fd0a4f28419497f9722a3daafe3b4186f6b6457e0905f90a3505050565b5f80806127106108728587610ab5565b61087c9190610acc565b90505f6108898287610aeb565b9196919550909350505050565b604080516001600160a01b0385811660248301528416604482015260648082018490528251808303909101815260849091019091526020810180516001600160e01b03166323b872dd60e01b1790526108f09085906108f6565b50505050565b5f8060205f8451602086015f885af180610915576040513d5f823e3d81fd5b50505f513d9150811561092c578060011415610939565b6001600160a01b0384163b155b156108f057604051635274afe760e01b81526001600160a01b038516600482015260240161034d565b80356001600160a01b0381168114610978575f80fd5b919050565b5f6020828403121561098d575f80fd5b61099682610962565b9392505050565b5f80604083850312156109ae575f80fd5b823591506109be60208401610962565b90509250929050565b5f602082840312156109d7575f80fd5b5035919050565b5f80604083850312156109ef575f80fd5b6109f883610962565b946020939093013593505050565b602080825282518282018190525f918401906040840190835b81811015610a3d578351835260209384019390920191600101610a1f565b509095945050505050565b634e487b7160e01b5f52601160045260245ffd5b5f60018201610a6d57610a6d610a48565b5060010190565b80820180821115610a8757610a87610a48565b92915050565b634e487b7160e01b5f52604160045260245ffd5b634e487b7160e01b5f52603260045260245ffd5b8082028115828204841417610a8757610a87610a48565b5f82610ae657634e487b7160e01b5f52601260045260245ffd5b500490565b81810381811115610a8757610a87610a4856fea264697066735822122073e4f1027080b6ba634aef9534c54460d80b6dcf8644fce07adad5a91323de1964736f6c634300081a0033","linkReferences":{}},"methodIdentifiers":{"calculateWeightOfPools()":"e0224900","feePercent()":"7fd6f15c","nexLabsToken()":"5d15ac91","numberOfStakersByTokenAddress(address)":"548d3e67","owner()":"8da5cb5b","poolTokens(uint256)":"dced1a5a","pools(address)":"a4063dbc","positions(uint256)":"99fbab88","renounceOwnership()":"715018a6","stake(address,uint256)":"adc9772e","transferOwnership(address)":"f2fde38b","unstake(uint256,address)":"8381e182"},"storageLayout":{"storage":[{"astId":260,"contract":"contracts/NexStaging.sol:NexStaging","label":"erc4626Factory","offset":0,"slot":"0","type":"t_contract(ERC4626Factory)709"},{"astId":263,"contract":"contracts/NexStaging.sol:NexStaging","label":"nexLabsToken","offset":0,"slot":"1","type":"t_contract(IERC20)2253"},{"astId":266,"contract":"contracts/NexStaging.sol:NexStaging","label":"poolTokens","offset":0,"slot":"2","type":"t_array(t_address)dyn_storage"},{"astId":268,"contract":"contracts/NexStaging.sol:NexStaging","label":"feePercent","offset":0,"slot":"3","type":"t_uint256"},{"astId":270,"contract":"contracts/NexStaging.sol:NexStaging","label":"_nextId","offset":0,"slot":"4","type":"t_uint256"},{"astId":293,"contract":"contracts/NexStaging.sol:NexStaging","label":"pools","offset":0,"slot":"5","type":"t_mapping(t_address,t_struct(Pools)275_storage)"},{"astId":298,"contract":"contracts/NexStaging.sol:NexStaging","label":"_positions","offset":0,"slot":"6","type":"t_mapping(t_uint256,t_struct(StakePositions)288_storage)"},{"astId":302,"contract":"contracts/NexStaging.sol:NexStaging","label":"numberOfStakersByTokenAddress","offset":0,"slot":"7","type":"t_mapping(t_address,t_uint256)"}],"types":{"t_address":{"encoding":"inplace","label":"address","numberOfBytes":"20"},"t_array(t_address)dyn_storage":{"encoding":"dynamic_array","label":"address[]","numberOfBytes":"32","base":"t_address"},"t_contract(ERC4626Factory)709":{"encoding":"inplace","label":"contract ERC4626Factory","numberOfBytes":"20"},"t_contract(IERC20)2253":{"encoding":"inplace","label":"contract IERC20","numberOfBytes":"20"},"t_mapping(t_address,t_struct(Pools)275_storage)":{"encoding":"mapping","key":"t_address","label":"mapping(address => struct NexStaging.Pools)","numberOfBytes":"32","value":"t_struct(Pools)275_storage"},"t_mapping(t_address,t_uint256)":{"encoding":"mapping","key":"t_address","label":"mapping(address => uint256)","numberOfBytes":"32","value":"t_uint256"},"t_mapping(t_uint256,t_struct(StakePositions)288_storage)":{"encoding":"mapping","key":"t_uint256","label":"mapping(uint256 => struct NexStaging.StakePositions)","numberOfBytes":"32","value":"t_struct(StakePositions)288_storage"},"t_struct(Pools)275_storage":{"encoding":"inplace","label":"struct NexStaging.Pools","numberOfBytes":"64","members":[{"astId":272,"contract":"contracts/NexStaging.sol:NexStaging","label":"vault","offset":0,"slot":"0","type":"t_address"},{"astId":274,"contract":"contracts/NexStaging.sol:NexStaging","label":"totalStaked","offset":0,"slot":"1","type":"t_uint256"}]},"t_struct(StakePositions)288_storage":{"encoding":"inplace","label":"struct NexStaging.StakePositions","numberOfBytes":"192","members":[{"astId":277,"contract":"contracts/NexStaging.sol:NexStaging","label":"owner","offset":0,"slot":"0","type":"t_address"},{"astId":279,"contract":"contracts/NexStaging.sol:NexStaging","label":"stakeToken","offset":0,"slot":"1","type":"t_address"},{"astId":281,"contract":"contracts/NexStaging.sol:NexStaging","label":"vault","offset":0,"slot":"2","type":"t_address"},{"astId":283,"contract":"contracts/NexStaging.sol:NexStaging","label":"stakeAmount","offset":0,"slot":"3","type":"t_uint256"},{"astId":285,"contract":"contracts/NexStaging.sol:NexStaging","label":"shares","offset":0,"slot":"4","type":"t_uint256"},{"astId":287,"contract":"contracts/NexStaging.sol:NexStaging","label":"startTime","offset":0,"slot":"5","type":"t_uint256"}]},"t_uint256":{"encoding":"inplace","label":"uint256","numberOfBytes":"32"}}},"id":1}