{"abi":[{"type":"constructor","inputs":[{"name":"_nexLabsAddress","type":"address","internalType":"address"},{"name":"_tokenAddresses","type":"address[]","internalType":"address[]"},{"name":"_tokenAPYs","type":"uint256[]","internalType":"uint256[]"}],"stateMutability":"nonpayable"},{"type":"function","name":"increaseStakeAmount","inputs":[{"name":"positionId","type":"uint256","internalType":"uint256"},{"name":"amount","type":"uint256","internalType":"uint256"}],"outputs":[],"stateMutability":"nonpayable"},{"type":"function","name":"nexLabs","inputs":[],"outputs":[{"name":"","type":"address","internalType":"contract IERC20"}],"stateMutability":"view"},{"type":"function","name":"numberOfStakersByTokenAddress","inputs":[{"name":"","type":"address","internalType":"address"}],"outputs":[{"name":"","type":"uint256","internalType":"uint256"}],"stateMutability":"view"},{"type":"function","name":"positions","inputs":[{"name":"positionId","type":"uint256","internalType":"uint256"}],"outputs":[{"name":"owner","type":"address","internalType":"address"},{"name":"stakeToken","type":"address","internalType":"address"},{"name":"rewardToken","type":"address","internalType":"address"},{"name":"stakeAmount","type":"uint256","internalType":"uint256"},{"name":"rewardEarned","type":"uint256","internalType":"uint256"},{"name":"apy","type":"uint256","internalType":"uint256"},{"name":"startTime","type":"uint256","internalType":"uint256"},{"name":"autoCompound","type":"bool","internalType":"bool"}],"stateMutability":"view"},{"type":"function","name":"stake","inputs":[{"name":"tokenAddress","type":"address","internalType":"address"},{"name":"rewardToken","type":"address","internalType":"address"},{"name":"amount","type":"uint256","internalType":"uint256"},{"name":"autoCompound","type":"bool","internalType":"bool"}],"outputs":[{"name":"positionId","type":"uint256","internalType":"uint256"}],"stateMutability":"nonpayable"},{"type":"function","name":"tokensAPY","inputs":[{"name":"","type":"address","internalType":"address"}],"outputs":[{"name":"","type":"uint256","internalType":"uint256"}],"stateMutability":"view"},{"type":"function","name":"unStake","inputs":[{"name":"positionId","type":"uint256","internalType":"uint256"}],"outputs":[],"stateMutability":"nonpayable"},{"type":"function","name":"withdrawReward","inputs":[{"name":"positionId","type":"uint256","internalType":"uint256"}],"outputs":[],"stateMutability":"nonpayable"},{"type":"event","name":"RewardWithdrawn","inputs":[{"name":"positionId","type":"uint256","indexed":true,"internalType":"uint256"},{"name":"user","type":"address","indexed":true,"internalType":"address"},{"name":"amount","type":"uint256","indexed":false,"internalType":"uint256"},{"name":"timestamp","type":"uint256","indexed":false,"internalType":"uint256"}],"anonymous":false},{"type":"event","name":"Staked","inputs":[{"name":"positionId","type":"uint256","indexed":true,"internalType":"uint256"},{"name":"user","type":"address","indexed":true,"internalType":"address"},{"name":"token","type":"address","indexed":false,"internalType":"address"},{"name":"rewardToken","type":"address","indexed":false,"internalType":"address"},{"name":"amount","type":"uint256","indexed":false,"internalType":"uint256"},{"name":"autoCompound","type":"bool","indexed":false,"internalType":"bool"},{"name":"timestamp","type":"uint256","indexed":false,"internalType":"uint256"}],"anonymous":false},{"type":"event","name":"StakedIncreased","inputs":[{"name":"positionId","type":"uint256","indexed":true,"internalType":"uint256"},{"name":"user","type":"address","indexed":true,"internalType":"address"},{"name":"token","type":"address","indexed":false,"internalType":"address"},{"name":"amount","type":"uint256","indexed":false,"internalType":"uint256"},{"name":"timestamp","type":"uint256","indexed":false,"internalType":"uint256"}],"anonymous":false},{"type":"event","name":"UnStaked","inputs":[{"name":"positionId","type":"uint256","indexed":true,"internalType":"uint256"},{"name":"user","type":"address","indexed":true,"internalType":"address"},{"name":"token","type":"address","indexed":false,"internalType":"address"},{"name":"amount","type":"uint256","indexed":false,"internalType":"uint256"},{"name":"timestamp","type":"uint256","indexed":false,"internalType":"uint256"}],"anonymous":false},{"type":"error","name":"SafeERC20FailedOperation","inputs":[{"name":"token","type":"address","internalType":"address"}]}],"bytecode":{"object":"0x608060405260018060006101000a81548175ffffffffffffffffffffffffffffffffffffffffffff021916908375ffffffffffffffffffffffffffffffffffffffffffff16021790555034801561005557600080fd5b5060405161237338038061237383398181016040528101906100779190610459565b80518251146100bb576040517f08c379a00000000000000000000000000000000000000000000000000000000081526004016100b290610541565b60405180910390fd5b826000806101000a81548173ffffffffffffffffffffffffffffffffffffffff021916908373ffffffffffffffffffffffffffffffffffffffff16021790555060005b825181101561018c5781818151811061011a57610119610561565b5b60200260200101516002600085848151811061013957610138610561565b5b602002602001015173ffffffffffffffffffffffffffffffffffffffff1673ffffffffffffffffffffffffffffffffffffffff1681526020019081526020016000208190555080806001019150506100fe565b50505050610590565b6000604051905090565b600080fd5b600080fd5b600073ffffffffffffffffffffffffffffffffffffffff82169050919050565b60006101d4826101a9565b9050919050565b6101e4816101c9565b81146101ef57600080fd5b50565b600081519050610201816101db565b92915050565b600080fd5b6000601f19601f8301169050919050565b7f4e487b7100000000000000000000000000000000000000000000000000000000600052604160045260246000fd5b6102558261020c565b810181811067ffffffffffffffff821117156102745761027361021d565b5b80604052505050565b6000610287610195565b9050610293828261024c565b919050565b600067ffffffffffffffff8211156102b3576102b261021d565b5b602082029050602081019050919050565b600080fd5b60006102dc6102d784610298565b61027d565b905080838252602082019050602084028301858111156102ff576102fe6102c4565b5b835b81811015610328578061031488826101f2565b845260208401935050602081019050610301565b5050509392505050565b600082601f83011261034757610346610207565b5b81516103578482602086016102c9565b91505092915050565b600067ffffffffffffffff82111561037b5761037a61021d565b5b602082029050602081019050919050565b6000819050919050565b61039f8161038c565b81146103aa57600080fd5b50565b6000815190506103bc81610396565b92915050565b60006103d56103d084610360565b61027d565b905080838252602082019050602084028301858111156103f8576103f76102c4565b5b835b81811015610421578061040d88826103ad565b8452602084019350506020810190506103fa565b5050509392505050565b600082601f8301126104405761043f610207565b5b81516104508482602086016103c2565b91505092915050565b6000806000606084860312156104725761047161019f565b5b6000610480868287016101f2565b935050602084015167ffffffffffffffff8111156104a1576104a06101a4565b5b6104ad86828701610332565b925050604084015167ffffffffffffffff8111156104ce576104cd6101a4565b5b6104da8682870161042b565b9150509250925092565b600082825260208201905092915050565b7f4d69736d61746368656420746f6b656e20616e6420415059206c656e67746873600082015250565b600061052b6020836104e4565b9150610536826104f5565b602082019050919050565b6000602082019050818103600083015261055a8161051e565b9050919050565b7f4e487b7100000000000000000000000000000000000000000000000000000000600052603260045260246000fd5b611dd48061059f6000396000f3fe608060405234801561001057600080fd5b50600436106100885760003560e01c806399fbab881161005b57806399fbab8814610113578063adbd39901461014a578063cc57465814610166578063e80f10711461019657610088565b80633c6d0b481461008d578063523a3f08146100ab578063548d3e67146100c75780635d3eea91146100f7575b600080fd5b6100956101c6565b6040516100a29190611415565b60405180910390f35b6100c560048036038101906100c0919061146b565b6101ea565b005b6100e160048036038101906100dc91906114d6565b61039f565b6040516100ee9190611512565b60405180910390f35b610111600480360381019061010c919061146b565b6103b7565b005b61012d6004803603810190610128919061146b565b610804565b604051610141989796959493929190611557565b60405180910390f35b610164600480360381019061015f91906115d5565b6109bc565b005b610180600480360381019061017b9190611641565b610bc8565b60405161018d9190611512565b60405180910390f35b6101b060048036038101906101ab91906114d6565b6110c2565b6040516101bd9190611512565b60405180910390f35b60008054906101000a900473ffffffffffffffffffffffffffffffffffffffff1681565b60006004600083815260200190815260200160002090503373ffffffffffffffffffffffffffffffffffffffff168160000160009054906101000a900473ffffffffffffffffffffffffffffffffffffffff1673ffffffffffffffffffffffffffffffffffffffff1614610293576040517f08c379a000000000000000000000000000000000000000000000000000000000815260040161028a9061172b565b60405180910390fd5b600061029e826110da565b82600401546102ad919061177a565b90508160070160009054906101000a900460ff16156102e657808260030160008282546102da919061177a565b92505081905550610336565b61033533828460020160009054906101000a900473ffffffffffffffffffffffffffffffffffffffff1673ffffffffffffffffffffffffffffffffffffffff166111f39092919063ffffffff16565b5b600082600401819055504282600601819055503373ffffffffffffffffffffffffffffffffffffffff16837f746e77ecea01d694db4b52c8fd03d2e4008fe44a603d88e09e40a60d297d94d883426040516103929291906117ae565b60405180910390a3505050565b60036020528060005260406000206000915090505481565b60006004600083815260200190815260200160002090503373ffffffffffffffffffffffffffffffffffffffff168160000160009054906101000a900473ffffffffffffffffffffffffffffffffffffffff1673ffffffffffffffffffffffffffffffffffffffff1614610460576040517f08c379a000000000000000000000000000000000000000000000000000000000815260040161045790611849565b60405180910390fd5b60008160030154116104a7576040517f08c379a000000000000000000000000000000000000000000000000000000000815260040161049e906118b5565b60405180910390fd5b60006104b2826110da565b82600401546104c1919061177a565b90508160020160009054906101000a900473ffffffffffffffffffffffffffffffffffffffff1673ffffffffffffffffffffffffffffffffffffffff168260010160009054906101000a900473ffffffffffffffffffffffffffffffffffffffff1673ffffffffffffffffffffffffffffffffffffffff16036105a7576000818360030154610550919061177a565b90506105a133828560010160009054906101000a900473ffffffffffffffffffffffffffffffffffffffff1673ffffffffffffffffffffffffffffffffffffffff166111f39092919063ffffffff16565b5061064a565b6105fa3383600301548460010160009054906101000a900473ffffffffffffffffffffffffffffffffffffffff1673ffffffffffffffffffffffffffffffffffffffff166111f39092919063ffffffff16565b61064933828460020160009054906101000a900473ffffffffffffffffffffffffffffffffffffffff1673ffffffffffffffffffffffffffffffffffffffff166111f39092919063ffffffff16565b5b6001600360008460010160009054906101000a900473ffffffffffffffffffffffffffffffffffffffff1673ffffffffffffffffffffffffffffffffffffffff1673ffffffffffffffffffffffffffffffffffffffff16815260200190815260200160002060008282546106be91906118d5565b925050819055503373ffffffffffffffffffffffffffffffffffffffff16837fdf18aa82586a4d74d492128356a53dd770a7469c695cacabbd4411299c74b4898460010160009054906101000a900473ffffffffffffffffffffffffffffffffffffffff1685600301544260405161073893929190611909565b60405180910390a360046000848152602001908152602001600020600080820160006101000a81549073ffffffffffffffffffffffffffffffffffffffff02191690556001820160006101000a81549073ffffffffffffffffffffffffffffffffffffffff02191690556002820160006101000a81549073ffffffffffffffffffffffffffffffffffffffff021916905560038201600090556004820160009055600582016000905560068201600090556007820160006101000a81549060ff02191690555050505050565b6000806000806000806000806000600460008b8152602001908152602001600020604051806101000160405290816000820160009054906101000a900473ffffffffffffffffffffffffffffffffffffffff1673ffffffffffffffffffffffffffffffffffffffff1673ffffffffffffffffffffffffffffffffffffffff1681526020016001820160009054906101000a900473ffffffffffffffffffffffffffffffffffffffff1673ffffffffffffffffffffffffffffffffffffffff1673ffffffffffffffffffffffffffffffffffffffff1681526020016002820160009054906101000a900473ffffffffffffffffffffffffffffffffffffffff1673ffffffffffffffffffffffffffffffffffffffff1673ffffffffffffffffffffffffffffffffffffffff168152602001600382015481526020016004820154815260200160058201548152602001600682015481526020016007820160009054906101000a900460ff1615151515815250509050806000015181602001518260400151836060015184608001518560a001518660c001518760e001519850985098509850985098509850985050919395975091939597565b60006004600084815260200190815260200160002090503373ffffffffffffffffffffffffffffffffffffffff168160000160009054906101000a900473ffffffffffffffffffffffffffffffffffffffff1673ffffffffffffffffffffffffffffffffffffffff1614610a65576040517f08c379a0000000000000000000000000000000000000000000000000000000008152600401610a5c906119b2565b60405180910390fd5b60008211610aa8576040517f08c379a0000000000000000000000000000000000000000000000000000000008152600401610a9f90611a44565b60405180910390fd5b60008160010160009054906101000a900473ffffffffffffffffffffffffffffffffffffffff169050610afe3330858473ffffffffffffffffffffffffffffffffffffffff16611272909392919063ffffffff16565b6000610b09836110da565b905083836003016000828254610b1f919061177a565b9250508190555080836004016000828254610b3a919061177a565b925050819055504283600601819055503373ffffffffffffffffffffffffffffffffffffffff16857f6c867f693c9c5b8cd5eef34e0e307505a7189dce0b3e73b8e94e09672c15455f8560010160009054906101000a900473ffffffffffffffffffffffffffffffffffffffff168742604051610bb993929190611909565b60405180910390a35050505050565b600080600260008773ffffffffffffffffffffffffffffffffffffffff1673ffffffffffffffffffffffffffffffffffffffff1681526020019081526020016000205403610c4b576040517f08c379a0000000000000000000000000000000000000000000000000000000008152600401610c4290611ab0565b60405180910390fd5b60008311610c8e576040517f08c379a0000000000000000000000000000000000000000000000000000000008152600401610c8590611b42565b60405180910390fd5b8373ffffffffffffffffffffffffffffffffffffffff1660008054906101000a900473ffffffffffffffffffffffffffffffffffffffff1673ffffffffffffffffffffffffffffffffffffffff161480610d1357508373ffffffffffffffffffffffffffffffffffffffff168573ffffffffffffffffffffffffffffffffffffffff16145b610d52576040517f08c379a0000000000000000000000000000000000000000000000000000000008152600401610d4990611bae565b60405180910390fd5b6000600260008773ffffffffffffffffffffffffffffffffffffffff1673ffffffffffffffffffffffffffffffffffffffff1681526020019081526020016000205490506000869050610dc83330878473ffffffffffffffffffffffffffffffffffffffff16611272909392919063ffffffff16565b6001600081819054906101000a900475ffffffffffffffffffffffffffffffffffffffffffff1680929190610dfc90611bf0565b91906101000a81548175ffffffffffffffffffffffffffffffffffffffffffff021916908375ffffffffffffffffffffffffffffffffffffffffffff16021790555075ffffffffffffffffffffffffffffffffffffffffffff1692506040518061010001604052803373ffffffffffffffffffffffffffffffffffffffff1681526020018873ffffffffffffffffffffffffffffffffffffffff1681526020018773ffffffffffffffffffffffffffffffffffffffff168152602001868152602001600081526020018381526020014281526020018515158152506004600085815260200190815260200160002060008201518160000160006101000a81548173ffffffffffffffffffffffffffffffffffffffff021916908373ffffffffffffffffffffffffffffffffffffffff16021790555060208201518160010160006101000a81548173ffffffffffffffffffffffffffffffffffffffff021916908373ffffffffffffffffffffffffffffffffffffffff16021790555060408201518160020160006101000a81548173ffffffffffffffffffffffffffffffffffffffff021916908373ffffffffffffffffffffffffffffffffffffffff160217905550606082015181600301556080820151816004015560a0820151816005015560c0820151816006015560e08201518160070160006101000a81548160ff0219169083151502179055509050506001600360008973ffffffffffffffffffffffffffffffffffffffff1673ffffffffffffffffffffffffffffffffffffffff168152602001908152602001600020600082825461105a919061177a565b925050819055503373ffffffffffffffffffffffffffffffffffffffff16837f8d6447383741d41c5d5c9183b2b6be0d6a8cc1f2b3f365aeacc2775251b0773789898989426040516110b0959493929190611c2e565b60405180910390a35050949350505050565b60026020528060005260406000206000915090505481565b6000808260060154426110ed91906118d5565b9050600061016d670de0b6b3a7640000856005015461110c9190611c81565b6111169190611cf2565b90508360070160009054906101000a900460ff16156111ac5760008460030154905060005b620151808461114a9190611cf2565b81101561119157600068056bc75e2d6310000084846111699190611c81565b6111739190611cf2565b90508083611181919061177a565b925050808060010191505061113b565b508460030154816111a291906118d5565b93505050506111ee565b68056bc75e2d6310000062015180838387600301546111cb9190611c81565b6111d59190611c81565b6111df9190611cf2565b6111e99190611cf2565b925050505b919050565b61126d838473ffffffffffffffffffffffffffffffffffffffff1663a9059cbb8585604051602401611226929190611d23565b604051602081830303815290604052915060e01b6020820180517bffffffffffffffffffffffffffffffffffffffffffffffffffffffff83818316178352505050506112f4565b505050565b6112ee848573ffffffffffffffffffffffffffffffffffffffff166323b872dd8686866040516024016112a793929190611d4c565b604051602081830303815290604052915060e01b6020820180517bffffffffffffffffffffffffffffffffffffffffffffffffffffffff83818316178352505050506112f4565b50505050565b600080602060008451602086016000885af180611317576040513d6000823e3d81fd5b3d92506000519150506000821461133257600181141561134e565b60008473ffffffffffffffffffffffffffffffffffffffff163b145b1561139057836040517f5274afe70000000000000000000000000000000000000000000000000000000081526004016113879190611d83565b60405180910390fd5b50505050565b600073ffffffffffffffffffffffffffffffffffffffff82169050919050565b6000819050919050565b60006113db6113d66113d184611396565b6113b6565b611396565b9050919050565b60006113ed826113c0565b9050919050565b60006113ff826113e2565b9050919050565b61140f816113f4565b82525050565b600060208201905061142a6000830184611406565b92915050565b600080fd5b6000819050919050565b61144881611435565b811461145357600080fd5b50565b6000813590506114658161143f565b92915050565b60006020828403121561148157611480611430565b5b600061148f84828501611456565b91505092915050565b60006114a382611396565b9050919050565b6114b381611498565b81146114be57600080fd5b50565b6000813590506114d0816114aa565b92915050565b6000602082840312156114ec576114eb611430565b5b60006114fa848285016114c1565b91505092915050565b61150c81611435565b82525050565b60006020820190506115276000830184611503565b92915050565b61153681611498565b82525050565b60008115159050919050565b6115518161153c565b82525050565b60006101008201905061156d600083018b61152d565b61157a602083018a61152d565b611587604083018961152d565b6115946060830188611503565b6115a16080830187611503565b6115ae60a0830186611503565b6115bb60c0830185611503565b6115c860e0830184611548565b9998505050505050505050565b600080604083850312156115ec576115eb611430565b5b60006115fa85828601611456565b925050602061160b85828601611456565b9150509250929050565b61161e8161153c565b811461162957600080fd5b50565b60008135905061163b81611615565b92915050565b6000806000806080858703121561165b5761165a611430565b5b6000611669878288016114c1565b945050602061167a878288016114c1565b935050604061168b87828801611456565b925050606061169c8782880161162c565b91505092959194509250565b600082825260208201905092915050565b7f596f7520617265206e6f7420746865206f776e6572206f66207468697320706f60008201527f736974696f6e0000000000000000000000000000000000000000000000000000602082015250565b60006117156026836116a8565b9150611720826116b9565b604082019050919050565b6000602082019050818103600083015261174481611708565b9050919050565b7f4e487b7100000000000000000000000000000000000000000000000000000000600052601160045260246000fd5b600061178582611435565b915061179083611435565b92508282019050808211156117a8576117a761174b565b5b92915050565b60006040820190506117c36000830185611503565b6117d06020830184611503565b9392505050565b7f596f7520617265206e6f7420746865206f776e6572206f66207468697320706f60008201527f736974696f6e2100000000000000000000000000000000000000000000000000602082015250565b60006118336027836116a8565b915061183e826117d7565b604082019050919050565b6000602082019050818103600083015261186281611826565b9050919050565b7f4e6f207374616b6520616d6f756e7420746f20756e7374616b652e0000000000600082015250565b600061189f601b836116a8565b91506118aa82611869565b602082019050919050565b600060208201905081810360008301526118ce81611892565b9050919050565b60006118e082611435565b91506118eb83611435565b92508282039050818111156119035761190261174b565b5b92915050565b600060608201905061191e600083018661152d565b61192b6020830185611503565b6119386040830184611503565b949350505050565b7f4f6e6c79206f776e65722063616e20696e63726561736520746865207374616b60008201527f656420616d6f756e742100000000000000000000000000000000000000000000602082015250565b600061199c602a836116a8565b91506119a782611940565b604082019050919050565b600060208201905081810360008301526119cb8161198f565b9050919050565b7f496e63726561736520616d6f756e74206d75737420626520677265617465722060008201527f7468616e207a65726f2e00000000000000000000000000000000000000000000602082015250565b6000611a2e602a836116a8565b9150611a39826119d2565b604082019050919050565b60006020820190508181036000830152611a5d81611a21565b9050919050565b7f546f6b656e206e6f7420737570706f7274656420666f72207374616b696e672e600082015250565b6000611a9a6020836116a8565b9150611aa582611a64565b602082019050919050565b60006020820190508181036000830152611ac981611a8d565b9050919050565b7f5374616b696e6720616d6f756e74206d7573742062652067726561746572207460008201527f68616e207a65726f2e0000000000000000000000000000000000000000000000602082015250565b6000611b2c6029836116a8565b9150611b3782611ad0565b604082019050919050565b60006020820190508181036000830152611b5b81611b1f565b9050919050565b7f496e76616c69642072657761726420746f6b656e2e0000000000000000000000600082015250565b6000611b986015836116a8565b9150611ba382611b62565b602082019050919050565b60006020820190508181036000830152611bc781611b8b565b9050919050565b600075ffffffffffffffffffffffffffffffffffffffffffff82169050919050565b6000611bfb82611bce565b915075ffffffffffffffffffffffffffffffffffffffffffff8203611c2357611c2261174b565b5b600182019050919050565b600060a082019050611c43600083018861152d565b611c50602083018761152d565b611c5d6040830186611503565b611c6a6060830185611548565b611c776080830184611503565b9695505050505050565b6000611c8c82611435565b9150611c9783611435565b9250828202611ca581611435565b91508282048414831517611cbc57611cbb61174b565b5b5092915050565b7f4e487b7100000000000000000000000000000000000000000000000000000000600052601260045260246000fd5b6000611cfd82611435565b9150611d0883611435565b925082611d1857611d17611cc3565b5b828204905092915050565b6000604082019050611d38600083018561152d565b611d456020830184611503565b9392505050565b6000606082019050611d61600083018661152d565b611d6e602083018561152d565b611d7b6040830184611503565b949350505050565b6000602082019050611d98600083018461152d565b9291505056fea26469706673582212207eadd18cf0b2c7ff344455c134348ad191d6499eceda1dd0187e42650f823fa464736f6c634300081a0033","linkReferences":{}},"methodIdentifiers":{"increaseStakeAmount(uint256,uint256)":"adbd3990","nexLabs()":"3c6d0b48","numberOfStakersByTokenAddress(address)":"548d3e67","positions(uint256)":"99fbab88","stake(address,address,uint256,bool)":"cc574658","tokensAPY(address)":"e80f1071","unStake(uint256)":"5d3eea91","withdrawReward(uint256)":"523a3f08"},"id":0}