{"abi":[{"type":"fallback","stateMutability":"payable"},{"type":"receive","stateMutability":"payable"},{"type":"function","name":"feePercent","inputs":[],"outputs":[{"name":"","type":"uint256","internalType":"uint256"}],"stateMutability":"view"},{"type":"function","name":"initialize","inputs":[{"name":"_nexLabsAddress","type":"address","internalType":"address"},{"name":"_tokenAddresses","type":"address[]","internalType":"address[]"},{"name":"_indexTokens","type":"address[]","internalType":"address[]"},{"name":"_feePercent","type":"uint256","internalType":"uint256"},{"name":"_erc4626Factory","type":"address","internalType":"address"},{"name":"_uniswapRouter","type":"address","internalType":"address"}],"outputs":[],"stateMutability":"nonpayable"},{"type":"function","name":"nexLabsToken","inputs":[],"outputs":[{"name":"","type":"address","internalType":"contract IERC20"}],"stateMutability":"view"},{"type":"function","name":"numberOfStakersByTokenAddress","inputs":[{"name":"","type":"address","internalType":"address"}],"outputs":[{"name":"","type":"uint256","internalType":"uint256"}],"stateMutability":"view"},{"type":"function","name":"owner","inputs":[],"outputs":[{"name":"","type":"address","internalType":"address"}],"stateMutability":"view"},{"type":"function","name":"poolTokens","inputs":[{"name":"","type":"uint256","internalType":"uint256"}],"outputs":[{"name":"","type":"address","internalType":"address"}],"stateMutability":"view"},{"type":"function","name":"pools","inputs":[{"name":"","type":"address","internalType":"address"}],"outputs":[{"name":"vault","type":"address","internalType":"address"},{"name":"indexToken","type":"address","internalType":"contract IERC20"},{"name":"totalStaked","type":"uint256","internalType":"uint256"},{"name":"totalSupply","type":"uint256","internalType":"uint256"}],"stateMutability":"view"},{"type":"function","name":"positions","inputs":[{"name":"positionId","type":"uint256","internalType":"uint256"}],"outputs":[{"name":"positionOwner","type":"address","internalType":"address"},{"name":"stakeToken","type":"address","internalType":"address"},{"name":"vault","type":"address","internalType":"address"},{"name":"stakeAmount","type":"uint256","internalType":"uint256"},{"name":"shares","type":"uint256","internalType":"uint256"},{"name":"startTime","type":"uint256","internalType":"uint256"}],"stateMutability":"view"},{"type":"function","name":"qouter","inputs":[{"name":"tokenIn","type":"address","internalType":"address"},{"name":"tokenOut","type":"address","internalType":"address"},{"name":"amount","type":"uint256","internalType":"uint256"},{"name":"fee","type":"uint24","internalType":"uint24"}],"outputs":[{"name":"amountOut","type":"uint256","internalType":"uint256"}],"stateMutability":"nonpayable"},{"type":"function","name":"qouterV2","inputs":[],"outputs":[{"name":"","type":"address","internalType":"contract IQuoterV2"}],"stateMutability":"view"},{"type":"function","name":"renounceOwnership","inputs":[],"outputs":[],"stateMutability":"nonpayable"},{"type":"function","name":"shareHolder","inputs":[{"name":"","type":"address","internalType":"address"}],"outputs":[{"name":"","type":"uint256","internalType":"uint256"}],"stateMutability":"view"},{"type":"function","name":"stake","inputs":[{"name":"tokenAddress","type":"address","internalType":"address"},{"name":"amount","type":"uint256","internalType":"uint256"}],"outputs":[{"name":"positionId","type":"uint256","internalType":"uint256"}],"stateMutability":"nonpayable"},{"type":"function","name":"transferOwnership","inputs":[{"name":"newOwner","type":"address","internalType":"address"}],"outputs":[],"stateMutability":"nonpayable"},{"type":"function","name":"uniswapRouter","inputs":[],"outputs":[{"name":"","type":"address","internalType":"contract ISwapRouter"}],"stateMutability":"view"},{"type":"function","name":"unstake","inputs":[{"name":"positionId","type":"uint256","internalType":"uint256"},{"name":"rewardToken","type":"address","internalType":"address"},{"name":"receiver","type":"address","internalType":"address"}],"outputs":[],"stateMutability":"nonpayable"},{"type":"function","name":"weth","inputs":[],"outputs":[{"name":"","type":"address","internalType":"contract IWETH9"}],"stateMutability":"view"},{"type":"event","name":"Initialized","inputs":[{"name":"version","type":"uint64","indexed":false,"internalType":"uint64"}],"anonymous":false},{"type":"event","name":"OwnershipTransferred","inputs":[{"name":"previousOwner","type":"address","indexed":true,"internalType":"address"},{"name":"newOwner","type":"address","indexed":true,"internalType":"address"}],"anonymous":false},{"type":"event","name":"RewardsDistributed","inputs":[{"name":"tokenAddress","type":"address","indexed":true,"internalType":"address"},{"name":"amount","type":"uint256","indexed":false,"internalType":"uint256"},{"name":"timestamp","type":"uint256","indexed":false,"internalType":"uint256"}],"anonymous":false},{"type":"event","name":"Staked","inputs":[{"name":"positionId","type":"uint256","indexed":true,"internalType":"uint256"},{"name":"user","type":"address","indexed":true,"internalType":"address"},{"name":"tokenAddress","type":"address","indexed":true,"internalType":"address"},{"name":"vault","type":"address","indexed":false,"internalType":"address"},{"name":"amount","type":"uint256","indexed":false,"internalType":"uint256"},{"name":"shares","type":"uint256","indexed":false,"internalType":"uint256"},{"name":"timestamp","type":"uint256","indexed":false,"internalType":"uint256"}],"anonymous":false},{"type":"event","name":"Unstaked","inputs":[{"name":"positionId","type":"uint256","indexed":true,"internalType":"uint256"},{"name":"user","type":"address","indexed":true,"internalType":"address"},{"name":"tokenAddress","type":"address","indexed":true,"internalType":"address"},{"name":"vault","type":"address","indexed":false,"internalType":"address"},{"name":"amount","type":"uint256","indexed":false,"internalType":"uint256"},{"name":"shares","type":"uint256","indexed":false,"internalType":"uint256"},{"name":"timestamp","type":"uint256","indexed":false,"internalType":"uint256"}],"anonymous":false},{"type":"error","name":"InvalidInitialization","inputs":[]},{"type":"error","name":"NotInitializing","inputs":[]},{"type":"error","name":"OwnableInvalidOwner","inputs":[{"name":"owner","type":"address","internalType":"address"}]},{"type":"error","name":"OwnableUnauthorizedAccount","inputs":[{"name":"account","type":"address","internalType":"address"}]},{"type":"error","name":"SafeERC20FailedOperation","inputs":[{"name":"token","type":"address","internalType":"address"}]}],"bytecode":{"object":"0x6080604052348015600e575f80fd5b50611bdf8061001c5f395ff3fe608060405260043610610101575f3560e01c80637fd6f15c11610094578063adc9772e11610063578063adc9772e1461045a578063dced1a5a14610479578063f071f4fd14610498578063f2fde38b146104c3578063f712fe29146104e257610169565b80637fd6f15c146102ec5780638da5cb5b1461030157806399fbab8814610315578063a4063dbc146103e257610169565b80635d15ac91116100d05780635d15ac911461027b5780635d43361a1461029a578063715018a6146102b9578063735de9f7146102cd57610169565b8063373ee31d146101c85780633fc8cef3146101e75780634f5aa4c214610223578063548d3e671461024257610169565b3661016957610167600580548060200260200160405190810160405280929190818152602001828054801561015d57602002820191905f5260205f20905b81546001600160a01b0316815260019091019060200180831161013f575b5050505050610501565b005b610167600580548060200260200160405190810160405280929190818152602001828054801561015d57602002820191905f5260205f209081546001600160a01b0316815260019091019060200180831161013f575050505050610501565b3480156101d3575f80fd5b506101676101e2366004611872565b6106a7565b3480156101f2575f80fd5b50600354610206906001600160a01b031681565b6040516001600160a01b0390911681526020015b60405180910390f35b34801561022e575f80fd5b5061016761023d366004611917565b610a1d565b34801561024d575f80fd5b5061026d61025c366004611956565b600a6020525f908152604090205481565b60405190815260200161021a565b348015610286575f80fd5b50600454610206906001600160a01b031681565b3480156102a5575f80fd5b50600254610206906001600160a01b031681565b3480156102c4575f80fd5b50610167610d5d565b3480156102d8575f80fd5b50600154610206906001600160a01b031681565b3480156102f7575f80fd5b5061026d60065481565b34801561030c575f80fd5b50610206610d70565b348015610320575f80fd5b506103a461032f366004611978565b5f90815260096020908152604091829020825160c08101845281546001600160a01b0390811680835260018401548216948301859052600284015490911694820185905260038301546060830181905260048401546080840181905260059094015460a0909301839052909593949390929190565b604080516001600160a01b039788168152958716602087015293909516928401929092526060830152608082015260a081019190915260c00161021a565b3480156103ed575f80fd5b5061042f6103fc366004611956565b60086020525f908152604090208054600182015460028301546003909301546001600160a01b0392831693919092169184565b604080516001600160a01b03958616815294909316602085015291830152606082015260800161021a565b348015610465575f80fd5b5061026d61047436600461198f565b610d9e565b348015610484575f80fd5b50610206610493366004611978565b611109565b3480156104a3575f80fd5b5061026d6104b2366004611956565b600b6020525f908152604090205481565b3480156104ce575f80fd5b506101676104dd366004611956565b611131565b3480156104ed575f80fd5b5061026d6104fc3660046119b9565b61116e565b5f61050a611242565b90505f5b82518110156106a2575f60085f85848151811061052d5761052d611a10565b60200260200101516001600160a01b03166001600160a01b031681526020019081526020015f2090505f83838151811061056957610569611a10565b60209081029190910101516003546040516370a0823160e01b81523060048201526001600160a01b03909116906370a0823190602401602060405180830381865afa1580156105ba573d5f803e3d5ffd5b505050506040513d601f19601f820116820180604052508101906105de9190611a24565b6105e89190611a4f565b60018054600354918501549293505f92610616926001600160a01b0392831692908116911685610bb8611380565b905080836002015f82825461062b9190611a6c565b9250508190555085848151811061064457610644611a10565b60200260200101516001600160a01b03167fe4e801442ed461792c0bdfa7f5c25444d391d67d68422437bd9005796c67cb23824260405161068f929190918252602082015260400190565b60405180910390a250505060010161050e565b505050565b7ff0c57e16840df040f15088dc2f81fe391c3923bec73e23a9662efc9c229c6a008054600160401b810460ff16159067ffffffffffffffff165f811580156106ec5750825b90505f8267ffffffffffffffff1660011480156107085750303b155b905081158015610716575080155b156107345760405163f92ee8a960e01b815260040160405180910390fd5b845467ffffffffffffffff19166001178555831561075e57845460ff60401b1916600160401b1785555b6107673361146d565b88518a51146107cb5760405162461bcd60e51b815260206004820152602560248201527f546f6b656e20616e6420696e64657820746f6b656e206c656e677468206d69736044820152640dac2e8c6d60db1b60648201526084015b60405180910390fd5b865f806101000a8154816001600160a01b0302191690836001600160a01b031602179055508560015f6101000a8154816001600160a01b0302191690836001600160a01b031602179055508a60045f6101000a8154816001600160a01b0302191690836001600160a01b031602179055508760068190555060016007819055505f5b8a518110156109c9575f80548c516001600160a01b03909116906381122b84908e908590811061087f5761087f611a10565b60200260200101516040518263ffffffff1660e01b81526004016108b291906001600160a01b0391909116815260200190565b6020604051808303815f875af11580156108ce573d5f803e3d5ffd5b505050506040513d601f19601f820116820180604052508101906108f29190611a7f565b90506040518060800160405280826001600160a01b031681526020018d848151811061092057610920611a10565b60200260200101516001600160a01b031681526020015f81526020015f81525060085f8e858151811061095557610955611a10565b6020908102919091018101516001600160a01b0390811683528282019390935260409182015f20845181549085166001600160a01b0319918216178255918501516001808301805492909616919093161790935590830151600283015560609092015160039091015591909101905061084d565b508315610a1057845460ff60401b19168555604051600181527fc7f505b2f371ae2175ee4913f4499e1f2633a7b5936321eed1cdaeb6115181d29060200160405180910390a15b5050505050505050505050565b5f83815260096020526040902080546001600160a01b03163314610a935760405162461bcd60e51b815260206004820152602760248201527f596f7520617265206e6f7420746865206f776e6572206f66207468697320706f60448201526639b4ba34b7b71760c91b60648201526084016107c2565b5f816003015411610ae65760405162461bcd60e51b815260206004820152601b60248201527f4e6f207374616b6520616d6f756e7420746f20756e7374616b652e000000000060448201526064016107c2565b60018101546001600160a01b03165f90815260086020526040812060038301546006549192918291610b179161147e565b8454600487810154604051632d182be560e21b8152918201526001600160a01b038981166024830152336044830152939550919350919091169063b460af94906064016020604051808303815f875af1158015610b76573d5f803e3d5ffd5b505050506040513d601f19601f82011682018060405250810190610b9a9190611a24565b5060018401546001600160a01b0390811690871603610bf1576001830154610bcc906001600160a01b031633836114ac565b610bec610bd7610d70565b60018501546001600160a01b031690846114ac565b610c63565b600180549085015460038601545f92610c1a926001600160a01b03918216929116908a9061150b565b90505f80610c2a8360065461147e565b9092509050610c436001600160a01b038a1633836114ac565b610c5f610c4e610d70565b6001600160a01b038b1690846114ac565b5050505b6001840154835460038601546004870154604080516001600160a01b0394851681526020810193909352820152426060820152911690339089907f48d6ef2d69851719de58c2636e4c6ff5d38f62766e0c8cf6cec14be151611f159060800160405180910390a48360030154836002015f828254610ce19190611a9a565b90915550506004840154335f908152600b602052604081208054909190610d09908490611a9a565b9091555050505f9586525050600960205250506040822080546001600160a01b0319908116825560018201805482169055600282018054909116905560038101839055600481018390556005019190915550565b610d656115f9565b610d6e5f61162b565b565b7f9016d09d72d40fdae2fd8ceac6b6234c7706214fd39c1cd1e609a0528c199300546001600160a01b031690565b5f6001600160a01b038316610df55760405162461bcd60e51b815260206004820181905260248201527f546f6b656e206e6f7420737570706f7274656420666f72207374616b696e672e60448201526064016107c2565b5f8211610e565760405162461bcd60e51b815260206004820152602960248201527f5374616b696e6720616d6f756e74206d757374206265206772656174657220746044820152683430b7103d32b9379760b91b60648201526084016107c2565b6001600160a01b038084165f9081526008602052604090208054909116610ebf5760405162461bcd60e51b815260206004820152601960248201527f506f6f6c206e6f7420666f756e6420666f7220746f6b656e2e0000000000000060448201526064016107c2565b5f80610ecd8560065461147e565b909250905085610ee86001600160a01b03821633308561169b565b610f0633610ef4610d70565b6001600160a01b03841691908661169b565b83546040516394bf804d60e01b8152600481018490523360248201526001600160a01b03909116906394bf804d906044016020604051808303815f875af1158015610f53573d5f803e3d5ffd5b505050506040513d601f19601f82011682018060405250810190610f779190611a24565b506007805483915f610f8883611aad565b909155506040805160c081018252338082526001600160a01b038c811660208085018281525f92835260088252868320548416868801908152606087018c8152608088018b81524260a08a019081528b8752600986528a872099518a549089166001600160a01b0319918216178b55945160018b018054918a16918716919091179055925160028a01805491909816941693909317909555935160038701555160048601559151600590940193909355908252600b905290812080549298508392909190611057908490611a6c565b9250508190555082856002015f8282546110719190611a6c565b90915550506001600160a01b0388165f908152600a6020526040812080546001929061109e908490611a6c565b90915550508454604080516001600160a01b0392831681526020810186905290810183905242606082015290891690339088907f722cb9cda4bfb3cf33eec057c052c1cc3c3ded6b612f5f983349038e53572f899060800160405180910390a4505050505092915050565b60058181548110611118575f80fd5b5f918252602090912001546001600160a01b0316905081565b6111396115f9565b6001600160a01b03811661116257604051631e4fbdf760e01b81525f60048201526024016107c2565b61116b8161162b565b50565b6040805160a0810182526001600160a01b0386811682528581166020830190815282840186815262ffffff868116606086019081525f608087018181526002549851636352813560e11b81528851881660048201529551871660248701529351604486015290519091166064840152905183166084830152939091169063c6a5026a9060a4016080604051808303815f875af1158015611210573d5f803e3d5ffd5b505050506040513d601f19601f820116820180604052508101906112349190611ac5565b509198975050505050505050565b60605f8060058054905067ffffffffffffffff811115611264576112646117bb565b60405190808252806020026020018201604052801561128d578160200160208202803683370190505b5090505f5b6005548110156112ed5760085f600583815481106112b2576112b2611a10565b5f9182526020808320909101546001600160a01b031683528201929092526040019020600201546112e39084611a6c565b9250600101611292565b505f5b600554811015611379578260085f6005848154811061131157611311611a10565b5f9182526020808320909101546001600160a01b0316835282019290925260400190206002015461134a90670de0b6b3a7640000611a4f565b6113549190611b14565b82828151811061136657611366611a10565b60209081029190910101526001016112f0565b5092915050565b5f80604051806101000160405280876001600160a01b03168152602001866001600160a01b031681526020018462ffffff168152602001306001600160a01b031681526020014261012c6113d49190611a6c565b81526020018581526020015f81526020015f6001600160a01b031681525090505f876001600160a01b031663414bf389836040518263ffffffff1660e01b81526004016114219190611b33565b6020604051808303815f875af115801561143d573d5f803e3d5ffd5b505050506040513d601f19601f820116820180604052508101906114619190611a24565b98975050505050505050565b6114756116da565b61116b81611723565b5f8061271061148d8486611a4f565b6114979190611b14565b91506114a38285611a9a565b90509250929050565b6040516001600160a01b038381166024830152604482018390526106a291859182169063a9059cbb906064015b604051602081830303815290604052915060e01b6020820180516001600160e01b03838183161783525050505061172b565b5f80604051806101000160405280866001600160a01b03168152602001856001600160a01b03168152602001610bb862ffffff168152602001306001600160a01b031681526020014261012c6115619190611a6c565b81526020018481526020015f81526020015f6001600160a01b031681525090505f866001600160a01b031663414bf389836040518263ffffffff1660e01b81526004016115ae9190611b33565b6020604051808303815f875af11580156115ca573d5f803e3d5ffd5b505050506040513d601f19601f820116820180604052508101906115ee9190611a24565b979650505050505050565b33611602610d70565b6001600160a01b031614610d6e5760405163118cdaa760e01b81523360048201526024016107c2565b7f9016d09d72d40fdae2fd8ceac6b6234c7706214fd39c1cd1e609a0528c19930080546001600160a01b031981166001600160a01b03848116918217845560405192169182907f8be0079c531659141344cd1fd0a4f28419497f9722a3daafe3b4186f6b6457e0905f90a3505050565b6040516001600160a01b0384811660248301528381166044830152606482018390526116d49186918216906323b872dd906084016114d9565b50505050565b7ff0c57e16840df040f15088dc2f81fe391c3923bec73e23a9662efc9c229c6a0054600160401b900460ff16610d6e57604051631afcd79f60e31b815260040160405180910390fd5b6111396116da565b5f8060205f8451602086015f885af18061174a576040513d5f823e3d81fd5b50505f513d9150811561176157806001141561176e565b6001600160a01b0384163b155b156116d457604051635274afe760e01b81526001600160a01b03851660048201526024016107c2565b6001600160a01b038116811461116b575f80fd5b80356117b681611797565b919050565b634e487b7160e01b5f52604160045260245ffd5b5f82601f8301126117de575f80fd5b813567ffffffffffffffff8111156117f8576117f86117bb565b8060051b604051601f19603f830116810181811067ffffffffffffffff82111715611825576118256117bb565b604052918252602081850181019290810186841115611842575f80fd5b6020860192505b838310156118685761185a836117ab565b815260209283019201611849565b5095945050505050565b5f805f805f8060c08789031215611887575f80fd5b863561189281611797565b9550602087013567ffffffffffffffff8111156118ad575f80fd5b6118b989828a016117cf565b955050604087013567ffffffffffffffff8111156118d5575f80fd5b6118e189828a016117cf565b9450506060870135925060808701356118f981611797565b915060a087013561190981611797565b809150509295509295509295565b5f805f60608486031215611929575f80fd5b83359250602084013561193b81611797565b9150604084013561194b81611797565b809150509250925092565b5f60208284031215611966575f80fd5b813561197181611797565b9392505050565b5f60208284031215611988575f80fd5b5035919050565b5f80604083850312156119a0575f80fd5b82356119ab81611797565b946020939093013593505050565b5f805f80608085870312156119cc575f80fd5b84356119d781611797565b935060208501356119e781611797565b925060408501359150606085013562ffffff81168114611a05575f80fd5b939692955090935050565b634e487b7160e01b5f52603260045260245ffd5b5f60208284031215611a34575f80fd5b5051919050565b634e487b7160e01b5f52601160045260245ffd5b8082028115828204841417611a6657611a66611a3b565b92915050565b80820180821115611a6657611a66611a3b565b5f60208284031215611a8f575f80fd5b815161197181611797565b81810381811115611a6657611a66611a3b565b5f60018201611abe57611abe611a3b565b5060010190565b5f805f8060808587031215611ad8575f80fd5b84516020860151909450611aeb81611797565b604086015190935063ffffffff81168114611b04575f80fd5b6060959095015193969295505050565b5f82611b2e57634e487b7160e01b5f52601260045260245ffd5b500490565b81516001600160a01b03908116825260208084015182169083015260408084015162ffffff169083015260608084015191821690830152610100820190506080830151608083015260a083015160a083015260c083015160c083015260e083015161137960e08401826001600160a01b0316905256fea26469706673582212207e08f19cf4502bc70f365609a9da07438277ea1cfd8a2c8fc2d75d7621e028a264736f6c634300081a0033","linkReferences":{}},"methodIdentifiers":{"feePercent()":"7fd6f15c","initialize(address,address[],address[],uint256,address,address)":"373ee31d","nexLabsToken()":"5d15ac91","numberOfStakersByTokenAddress(address)":"548d3e67","owner()":"8da5cb5b","poolTokens(uint256)":"dced1a5a","pools(address)":"a4063dbc","positions(uint256)":"99fbab88","qouter(address,address,uint256,uint24)":"f712fe29","qouterV2()":"5d43361a","renounceOwnership()":"715018a6","shareHolder(address)":"f071f4fd","stake(address,uint256)":"adc9772e","transferOwnership(address)":"f2fde38b","uniswapRouter()":"735de9f7","unstake(uint256,address,address)":"4f5aa4c2","weth()":"3fc8cef3"},"storageLayout":{"storage":[{"astId":268,"contract":"contracts/NexStaging.sol:NexStaging","label":"erc4626Factory","offset":0,"slot":"0","type":"t_contract(ERC4626Factory)1144"},{"astId":271,"contract":"contracts/NexStaging.sol:NexStaging","label":"uniswapRouter","offset":0,"slot":"1","type":"t_contract(ISwapRouter)7977"},{"astId":274,"contract":"contracts/NexStaging.sol:NexStaging","label":"qouterV2","offset":0,"slot":"2","type":"t_contract(IQuoterV2)7877"},{"astId":277,"contract":"contracts/NexStaging.sol:NexStaging","label":"weth","offset":0,"slot":"3","type":"t_contract(IWETH9)1190"},{"astId":280,"contract":"contracts/NexStaging.sol:NexStaging","label":"nexLabsToken","offset":0,"slot":"4","type":"t_contract(IERC20)2902"},{"astId":283,"contract":"contracts/NexStaging.sol:NexStaging","label":"poolTokens","offset":0,"slot":"5","type":"t_array(t_address)dyn_storage"},{"astId":285,"contract":"contracts/NexStaging.sol:NexStaging","label":"feePercent","offset":0,"slot":"6","type":"t_uint256"},{"astId":287,"contract":"contracts/NexStaging.sol:NexStaging","label":"_nextId","offset":0,"slot":"7","type":"t_uint256"},{"astId":315,"contract":"contracts/NexStaging.sol:NexStaging","label":"pools","offset":0,"slot":"8","type":"t_mapping(t_address,t_struct(Pools)297_storage)"},{"astId":320,"contract":"contracts/NexStaging.sol:NexStaging","label":"_positions","offset":0,"slot":"9","type":"t_mapping(t_uint256,t_struct(StakePositions)310_storage)"},{"astId":324,"contract":"contracts/NexStaging.sol:NexStaging","label":"numberOfStakersByTokenAddress","offset":0,"slot":"10","type":"t_mapping(t_address,t_uint256)"},{"astId":328,"contract":"contracts/NexStaging.sol:NexStaging","label":"shareHolder","offset":0,"slot":"11","type":"t_mapping(t_address,t_uint256)"}],"types":{"t_address":{"encoding":"inplace","label":"address","numberOfBytes":"20"},"t_array(t_address)dyn_storage":{"encoding":"dynamic_array","label":"address[]","numberOfBytes":"32","base":"t_address"},"t_contract(ERC4626Factory)1144":{"encoding":"inplace","label":"contract ERC4626Factory","numberOfBytes":"20"},"t_contract(IERC20)2902":{"encoding":"inplace","label":"contract IERC20","numberOfBytes":"20"},"t_contract(IQuoterV2)7877":{"encoding":"inplace","label":"contract IQuoterV2","numberOfBytes":"20"},"t_contract(ISwapRouter)7977":{"encoding":"inplace","label":"contract ISwapRouter","numberOfBytes":"20"},"t_contract(IWETH9)1190":{"encoding":"inplace","label":"contract IWETH9","numberOfBytes":"20"},"t_mapping(t_address,t_struct(Pools)297_storage)":{"encoding":"mapping","key":"t_address","label":"mapping(address => struct NexStaging.Pools)","numberOfBytes":"32","value":"t_struct(Pools)297_storage"},"t_mapping(t_address,t_uint256)":{"encoding":"mapping","key":"t_address","label":"mapping(address => uint256)","numberOfBytes":"32","value":"t_uint256"},"t_mapping(t_uint256,t_struct(StakePositions)310_storage)":{"encoding":"mapping","key":"t_uint256","label":"mapping(uint256 => struct NexStaging.StakePositions)","numberOfBytes":"32","value":"t_struct(StakePositions)310_storage"},"t_struct(Pools)297_storage":{"encoding":"inplace","label":"struct NexStaging.Pools","numberOfBytes":"128","members":[{"astId":289,"contract":"contracts/NexStaging.sol:NexStaging","label":"vault","offset":0,"slot":"0","type":"t_address"},{"astId":292,"contract":"contracts/NexStaging.sol:NexStaging","label":"indexToken","offset":0,"slot":"1","type":"t_contract(IERC20)2902"},{"astId":294,"contract":"contracts/NexStaging.sol:NexStaging","label":"totalStaked","offset":0,"slot":"2","type":"t_uint256"},{"astId":296,"contract":"contracts/NexStaging.sol:NexStaging","label":"totalSupply","offset":0,"slot":"3","type":"t_uint256"}]},"t_struct(StakePositions)310_storage":{"encoding":"inplace","label":"struct NexStaging.StakePositions","numberOfBytes":"192","members":[{"astId":299,"contract":"contracts/NexStaging.sol:NexStaging","label":"owner","offset":0,"slot":"0","type":"t_address"},{"astId":301,"contract":"contracts/NexStaging.sol:NexStaging","label":"stakeToken","offset":0,"slot":"1","type":"t_address"},{"astId":303,"contract":"contracts/NexStaging.sol:NexStaging","label":"vault","offset":0,"slot":"2","type":"t_address"},{"astId":305,"contract":"contracts/NexStaging.sol:NexStaging","label":"stakeAmount","offset":0,"slot":"3","type":"t_uint256"},{"astId":307,"contract":"contracts/NexStaging.sol:NexStaging","label":"shares","offset":0,"slot":"4","type":"t_uint256"},{"astId":309,"contract":"contracts/NexStaging.sol:NexStaging","label":"startTime","offset":0,"slot":"5","type":"t_uint256"}]},"t_uint256":{"encoding":"inplace","label":"uint256","numberOfBytes":"32"}}},"id":1}