{"abi":[{"type":"function","name":"UPGRADE_INTERFACE_VERSION","inputs":[],"outputs":[{"name":"","type":"string","internalType":"string"}],"stateMutability":"view"},{"type":"function","name":"feePercent","inputs":[],"outputs":[{"name":"","type":"uint256","internalType":"uint256"}],"stateMutability":"view"},{"type":"function","name":"increaseStakeAmount","inputs":[{"name":"positionId","type":"uint256","internalType":"uint256"},{"name":"amount","type":"uint256","internalType":"uint256"}],"outputs":[],"stateMutability":"nonpayable"},{"type":"function","name":"initialize","inputs":[{"name":"_nexLabsAddress","type":"address","internalType":"address"},{"name":"_tokenAddresses","type":"address[]","internalType":"address[]"},{"name":"_tokenAPYs","type":"uint256[]","internalType":"uint256[]"},{"name":"_feePercent","type":"uint256","internalType":"uint256"}],"outputs":[],"stateMutability":"nonpayable"},{"type":"function","name":"nexLabs","inputs":[],"outputs":[{"name":"","type":"address","internalType":"contract IERC20"}],"stateMutability":"view"},{"type":"function","name":"numberOfStakersByTokenAddress","inputs":[{"name":"","type":"address","internalType":"address"}],"outputs":[{"name":"","type":"uint256","internalType":"uint256"}],"stateMutability":"view"},{"type":"function","name":"owner","inputs":[],"outputs":[{"name":"","type":"address","internalType":"address"}],"stateMutability":"view"},{"type":"function","name":"positions","inputs":[{"name":"positionId","type":"uint256","internalType":"uint256"}],"outputs":[{"name":"positionOwner","type":"address","internalType":"address"},{"name":"stakeToken","type":"address","internalType":"address"},{"name":"rewardToken","type":"address","internalType":"address"},{"name":"stakeAmount","type":"uint256","internalType":"uint256"},{"name":"rewardEarned","type":"uint256","internalType":"uint256"},{"name":"apy","type":"uint256","internalType":"uint256"},{"name":"startTime","type":"uint256","internalType":"uint256"},{"name":"autoCompound","type":"bool","internalType":"bool"}],"stateMutability":"view"},{"type":"function","name":"proxiableUUID","inputs":[],"outputs":[{"name":"","type":"bytes32","internalType":"bytes32"}],"stateMutability":"view"},{"type":"function","name":"renounceOwnership","inputs":[],"outputs":[],"stateMutability":"nonpayable"},{"type":"function","name":"stake","inputs":[{"name":"tokenAddress","type":"address","internalType":"address"},{"name":"rewardToken","type":"address","internalType":"address"},{"name":"amount","type":"uint256","internalType":"uint256"},{"name":"autoCompound","type":"bool","internalType":"bool"}],"outputs":[{"name":"positionId","type":"uint256","internalType":"uint256"}],"stateMutability":"nonpayable"},{"type":"function","name":"tokensAPY","inputs":[{"name":"","type":"address","internalType":"address"}],"outputs":[{"name":"","type":"uint256","internalType":"uint256"}],"stateMutability":"view"},{"type":"function","name":"transferOwnership","inputs":[{"name":"newOwner","type":"address","internalType":"address"}],"outputs":[],"stateMutability":"nonpayable"},{"type":"function","name":"unStake","inputs":[{"name":"positionId","type":"uint256","internalType":"uint256"}],"outputs":[],"stateMutability":"nonpayable"},{"type":"function","name":"upgradeToAndCall","inputs":[{"name":"newImplementation","type":"address","internalType":"address"},{"name":"data","type":"bytes","internalType":"bytes"}],"outputs":[],"stateMutability":"payable"},{"type":"function","name":"withdrawReward","inputs":[{"name":"positionId","type":"uint256","internalType":"uint256"}],"outputs":[],"stateMutability":"nonpayable"},{"type":"event","name":"Initialized","inputs":[{"name":"version","type":"uint64","indexed":false,"internalType":"uint64"}],"anonymous":false},{"type":"event","name":"OwnershipTransferred","inputs":[{"name":"previousOwner","type":"address","indexed":true,"internalType":"address"},{"name":"newOwner","type":"address","indexed":true,"internalType":"address"}],"anonymous":false},{"type":"event","name":"RewardWithdrawn","inputs":[{"name":"positionId","type":"uint256","indexed":true,"internalType":"uint256"},{"name":"user","type":"address","indexed":true,"internalType":"address"},{"name":"amount","type":"uint256","indexed":false,"internalType":"uint256"},{"name":"timestamp","type":"uint256","indexed":false,"internalType":"uint256"}],"anonymous":false},{"type":"event","name":"Staked","inputs":[{"name":"positionId","type":"uint256","indexed":true,"internalType":"uint256"},{"name":"user","type":"address","indexed":true,"internalType":"address"},{"name":"token","type":"address","indexed":false,"internalType":"address"},{"name":"rewardToken","type":"address","indexed":false,"internalType":"address"},{"name":"amount","type":"uint256","indexed":false,"internalType":"uint256"},{"name":"autoCompound","type":"bool","indexed":false,"internalType":"bool"},{"name":"timestamp","type":"uint256","indexed":false,"internalType":"uint256"}],"anonymous":false},{"type":"event","name":"StakedIncreased","inputs":[{"name":"positionId","type":"uint256","indexed":true,"internalType":"uint256"},{"name":"user","type":"address","indexed":true,"internalType":"address"},{"name":"token","type":"address","indexed":false,"internalType":"address"},{"name":"amount","type":"uint256","indexed":false,"internalType":"uint256"},{"name":"timestamp","type":"uint256","indexed":false,"internalType":"uint256"}],"anonymous":false},{"type":"event","name":"UnStaked","inputs":[{"name":"positionId","type":"uint256","indexed":true,"internalType":"uint256"},{"name":"user","type":"address","indexed":true,"internalType":"address"},{"name":"token","type":"address","indexed":false,"internalType":"address"},{"name":"amountUstaked","type":"uint256","indexed":false,"internalType":"uint256"},{"name":"rewardAmountUnstaked","type":"uint256","indexed":false,"internalType":"uint256"},{"name":"timestamp","type":"uint256","indexed":false,"internalType":"uint256"}],"anonymous":false},{"type":"event","name":"Upgraded","inputs":[{"name":"implementation","type":"address","indexed":true,"internalType":"address"}],"anonymous":false},{"type":"error","name":"AddressEmptyCode","inputs":[{"name":"target","type":"address","internalType":"address"}]},{"type":"error","name":"ERC1967InvalidImplementation","inputs":[{"name":"implementation","type":"address","internalType":"address"}]},{"type":"error","name":"ERC1967NonPayable","inputs":[]},{"type":"error","name":"FailedCall","inputs":[]},{"type":"error","name":"InvalidInitialization","inputs":[]},{"type":"error","name":"NotInitializing","inputs":[]},{"type":"error","name":"OwnableInvalidOwner","inputs":[{"name":"owner","type":"address","internalType":"address"}]},{"type":"error","name":"OwnableUnauthorizedAccount","inputs":[{"name":"account","type":"address","internalType":"address"}]},{"type":"error","name":"SafeERC20FailedOperation","inputs":[{"name":"token","type":"address","internalType":"address"}]},{"type":"error","name":"UUPSUnauthorizedCallContext","inputs":[]},{"type":"error","name":"UUPSUnsupportedProxiableUUID","inputs":[{"name":"slot","type":"bytes32","internalType":"bytes32"}]}],"bytecode":{"object":"0x60a0604052306080523480156012575f80fd5b50608051611b986100395f395f8181610fe30152818161100c01526113130152611b985ff3fe6080604052600436106100ef575f3560e01c80637fd6f15c11610087578063adbd399011610057578063adbd39901461038a578063cc574658146103a9578063e80f1071146103c8578063f2fde38b146103f3575f80fd5b80637fd6f15c146102015780638da5cb5b1461021657806399fbab8814610252578063ad3cb1cc1461034d575f80fd5b806352d1902d116100c257806352d1902d14610181578063548d3e67146101a35780635d3eea91146101ce578063715018a6146101ed575f80fd5b80633c6d0b48146100f3578063464485481461012e5780634f1ef2861461014f578063523a3f0814610162575b5f80fd5b3480156100fe575f80fd5b505f54610111906001600160a01b031681565b6040516001600160a01b0390911681526020015b60405180910390f35b348015610139575f80fd5b5061014d61014836600461180a565b610412565b005b61014d61015d3660046118e4565b610608565b34801561016d575f80fd5b5061014d61017c366004611989565b610627565b34801561018c575f80fd5b5061019561076b565b604051908152602001610125565b3480156101ae575f80fd5b506101956101bd3660046119a0565b60046020525f908152604090205481565b3480156101d9575f80fd5b5061014d6101e8366004611989565b610786565b3480156101f8575f80fd5b5061014d610a13565b34801561020c575f80fd5b5061019560015481565b348015610221575f80fd5b507f9016d09d72d40fdae2fd8ceac6b6234c7706214fd39c1cd1e609a0528c199300546001600160a01b0316610111565b34801561025d575f80fd5b5061030161026c366004611989565b5f9081526005602081815260409283902083516101008101855281546001600160a01b039081168083526001840154821694830185905260028401549091169582018690526003830154606083018190526004840154608084018190529584015460a08401819052600685015460c0850181905260079095015460ff16151560e0909401849052919794969590949093919290565b604080516001600160a01b03998a168152978916602089015295909716948601949094526060850192909252608084015260a083015260c082015290151560e082015261010001610125565b348015610358575f80fd5b5061037d604051806040016040528060058152602001640352e302e360dc1b81525081565b60405161012591906119b9565b348015610395575f80fd5b5061014d6103a43660046119ee565b610a26565b3480156103b4575f80fd5b506101956103c3366004611a0e565b610c06565b3480156103d3575f80fd5b506101956103e23660046119a0565b60036020525f908152604090205481565b3480156103fe575f80fd5b5061014d61040d3660046119a0565b610f82565b7ff0c57e16840df040f15088dc2f81fe391c3923bec73e23a9662efc9c229c6a008054600160401b810460ff16159067ffffffffffffffff165f811580156104575750825b90505f8267ffffffffffffffff1660011480156104735750303b155b905081158015610481575080155b1561049f5760405163f92ee8a960e01b815260040160405180910390fd5b845467ffffffffffffffff1916600117855583156104c957845460ff60401b1916600160401b1785555b865188511461051f5760405162461bcd60e51b815260206004820181905260248201527f4d69736d61746368656420746f6b656e20616e6420415059206c656e6774687360448201526064015b60405180910390fd5b61052833610fbf565b610530610fd0565b5f80546001600160a01b0319166001600160a01b038b1617815560018781556002555b88518110156105b65787818151811061056e5761056e611a5e565b602002602001015160035f8b848151811061058b5761058b611a5e565b6020908102919091018101516001600160a01b031682528101919091526040015f2055600101610553565b5083156105fd57845460ff60401b19168555604051600181527fc7f505b2f371ae2175ee4913f4499e1f2633a7b5936321eed1cdaeb6115181d29060200160405180910390a15b505050505050505050565b610610610fd8565b6106198261107c565b6106238282611084565b5050565b5f81815260056020526040902080546001600160a01b0316331461069c5760405162461bcd60e51b815260206004820152602660248201527f596f7520617265206e6f7420746865206f776e6572206f66207468697320706f60448201526539b4ba34b7b760d11b6064820152608401610516565b60018101546001600160a01b03165f90815260036020526040812054906106c38383611145565b83600401546106d29190611a86565b600784015490915060ff16156107005780836003015f8282546106f59190611a86565b909155506107199050565b6002830154610719906001600160a01b031633836112a9565b5f60048401554260068401819055604080518381526020810192909252339186917f746e77ecea01d694db4b52c8fd03d2e4008fe44a603d88e09e40a60d297d94d8910160405180910390a350505050565b5f610774611308565b505f80516020611b4383398151915290565b5f81815260056020526040902080546001600160a01b031633146107fc5760405162461bcd60e51b815260206004820152602760248201527f596f7520617265206e6f7420746865206f776e6572206f66207468697320706f604482015266736974696f6e2160c81b6064820152608401610516565b5f81600301541161084f5760405162461bcd60e51b815260206004820152601b60248201527f4e6f207374616b6520616d6f756e7420746f20756e7374616b652e00000000006044820152606401610516565b60018101546001600160a01b03165f90815260036020526040812054906108768383611145565b83600401546108859190611a86565b90505f61089482600154611351565b600286015460018701549193506001600160a01b0390811691160390506108e8575f8185600301546108c69190611a86565b60018601549091506108e2906001600160a01b031633836112a9565b50610922565b60038401546001850154610909916001600160a01b039091169033906112a9565b6002840154610922906001600160a01b031633836112a9565b6001848101546001600160a01b03165f908152600460205260408120805490919061094e908490611a99565b909155505060018401546003850154604080516001600160a01b03909316835260208301919091528101829052426060820152339086907f976fa465a6a0d38397fdef3740568444098c3887c61f0a45d37a0a33463a9bb59060800160405180910390a35050505f91825250600560208190526040822080546001600160a01b0319908116825560018201805482169055600282018054909116905560038101839055600481018390559081018290556006810191909155600701805460ff19169055565b610a1b611385565b610a245f6113e0565b565b5f82815260056020526040902080546001600160a01b03163314610a9f5760405162461bcd60e51b815260206004820152602a60248201527f4f6e6c79206f776e65722063616e20696e63726561736520746865207374616b604482015269656420616d6f756e742160b01b6064820152608401610516565b5f8211610b015760405162461bcd60e51b815260206004820152602a60248201527f496e63726561736520616d6f756e74206d7573742062652067726561746572206044820152693a3430b7103d32b9379760b11b6064820152608401610516565b6001808201546001600160a01b03165f9081526003602052604081205491548190610b2d908690611351565b600186015491935091506001600160a01b0316610b4c81333085611450565b610b616001600160a01b038216333086611450565b5f610b6c8686611145565b905082866003015f828254610b819190611a86565b9250508190555080866004015f828254610b9b9190611a86565b909155505042600687018190556001870154604080516001600160a01b03909216825260208201869052810191909152339089907f6c867f693c9c5b8cd5eef34e0e307505a7189dce0b3e73b8e94e09672c15455f9060600160405180910390a35050505050505050565b6001600160a01b0384165f908152600360205260408120548103610c6c5760405162461bcd60e51b815260206004820181905260248201527f546f6b656e206e6f7420737570706f7274656420666f72207374616b696e672e6044820152606401610516565b5f8311610ccd5760405162461bcd60e51b815260206004820152602960248201527f5374616b696e6720616d6f756e74206d757374206265206772656174657220746044820152683430b7103d32b9379760b91b6064820152608401610516565b5f546001600160a01b0385811691161480610cf95750836001600160a01b0316856001600160a01b0316145b610d3d5760405162461bcd60e51b815260206004820152601560248201527424b73b30b634b2103932bbb0b932103a37b5b2b71760591b6044820152606401610516565b6001600160a01b0385165f908152600360205260408120546001549091908190610d68908790611351565b909250905087610d836001600160a01b038216333085611450565b610d986001600160a01b038216333086611450565b60028054905f610da783611aac565b919050559450604051806101000160405280336001600160a01b031681526020018a6001600160a01b03168152602001896001600160a01b031681526020018381526020015f815260200185815260200142815260200187151581525060055f8781526020019081526020015f205f820151815f015f6101000a8154816001600160a01b0302191690836001600160a01b031602179055506020820151816001015f6101000a8154816001600160a01b0302191690836001600160a01b031602179055506040820151816002015f6101000a8154816001600160a01b0302191690836001600160a01b03160217905550606082015181600301556080820151816004015560a0820151816005015560c0820151816006015560e0820151816007015f6101000a81548160ff021916908315150217905550905050600160045f8b6001600160a01b03166001600160a01b031681526020019081526020015f205f828254610f149190611a86565b9091555050604080516001600160a01b03808c1682528a1660208201529081018390528615156060820152426080820152339086907f8d6447383741d41c5d5c9183b2b6be0d6a8cc1f2b3f365aeacc2775251b077379060a00160405180910390a350505050949350505050565b610f8a611385565b6001600160a01b038116610fb357604051631e4fbdf760e01b81525f6004820152602401610516565b610fbc816113e0565b50565b610fc761148f565b610fbc816114d8565b610a2461148f565b306001600160a01b037f000000000000000000000000000000000000000000000000000000000000000016148061105e57507f00000000000000000000000000000000000000000000000000000000000000006001600160a01b03166110525f80516020611b43833981519152546001600160a01b031690565b6001600160a01b031614155b15610a245760405163703e46dd60e11b815260040160405180910390fd5b610fbc611385565b816001600160a01b03166352d1902d6040518163ffffffff1660e01b8152600401602060405180830381865afa9250505080156110de575060408051601f3d908101601f191682019092526110db91810190611ac4565b60015b61110657604051634c9c8ce360e01b81526001600160a01b0383166004820152602401610516565b5f80516020611b43833981519152811461113657604051632a87526960e21b815260048101829052602401610516565b61114083836114e0565b505050565b5f808360060154426111579190611a99565b90505f600761116e85670de0b6b3a7640000611adb565b6111789190611b06565b905062093a805f61118a836007611adb565b600788015490915060ff161561125f5760038701545f6111aa8487611b06565b90505f5b818110156111ec575f68056bc75e2d631000006111cb8686611adb565b6111d59190611b06565b90506111e18185611a86565b9350506001016111ae565b505f620151806111fc8689611b19565b6112069190611b06565b90505f68056bc75e2d631000008261121e8987611adb565b6112289190611adb565b6112329190611b06565b905061123e8185611a86565b93508a60030154846112509190611a99565b985050505050505050506112a3565b68056bc75e2d631000006201518085858a6003015461127e9190611adb565b6112889190611adb565b6112929190611b06565b61129c9190611b06565b9450505050505b92915050565b6040516001600160a01b0383811660248301526044820183905261114091859182169063a9059cbb906064015b604051602081830303815290604052915060e01b6020820180516001600160e01b038381831617835250505050611535565b306001600160a01b037f00000000000000000000000000000000000000000000000000000000000000001614610a245760405163703e46dd60e11b815260040160405180910390fd5b5f80806127106113618587611adb565b61136b9190611b06565b90505f6113788287611a99565b9196919550909350505050565b336113b77f9016d09d72d40fdae2fd8ceac6b6234c7706214fd39c1cd1e609a0528c199300546001600160a01b031690565b6001600160a01b031614610a245760405163118cdaa760e01b8152336004820152602401610516565b7f9016d09d72d40fdae2fd8ceac6b6234c7706214fd39c1cd1e609a0528c19930080546001600160a01b031981166001600160a01b03848116918217845560405192169182907f8be0079c531659141344cd1fd0a4f28419497f9722a3daafe3b4186f6b6457e0905f90a3505050565b6040516001600160a01b0384811660248301528381166044830152606482018390526114899186918216906323b872dd906084016112d6565b50505050565b7ff0c57e16840df040f15088dc2f81fe391c3923bec73e23a9662efc9c229c6a0054600160401b900460ff16610a2457604051631afcd79f60e31b815260040160405180910390fd5b610f8a61148f565b6114e9826115a1565b6040516001600160a01b038316907fbc7cd75a20ee27fd9adebab32041f755214dbc6bffa90cc0225b39da2e5c2d3b905f90a280511561152d576111408282611604565b610623611676565b5f8060205f8451602086015f885af180611554576040513d5f823e3d81fd5b50505f513d9150811561156b578060011415611578565b6001600160a01b0384163b155b1561148957604051635274afe760e01b81526001600160a01b0385166004820152602401610516565b806001600160a01b03163b5f036115d657604051634c9c8ce360e01b81526001600160a01b0382166004820152602401610516565b5f80516020611b4383398151915280546001600160a01b0319166001600160a01b0392909216919091179055565b60605f80846001600160a01b0316846040516116209190611b2c565b5f60405180830381855af49150503d805f8114611658576040519150601f19603f3d011682016040523d82523d5f602084013e61165d565b606091505b509150915061166d858383611695565b95945050505050565b3415610a245760405163b398979f60e01b815260040160405180910390fd5b6060826116aa576116a5826116f4565b6116ed565b81511580156116c157506001600160a01b0384163b155b156116ea57604051639996b31560e01b81526001600160a01b0385166004820152602401610516565b50805b9392505050565b8051156117045780518082602001fd5b60405163d6bda27560e01b815260040160405180910390fd5b80356001600160a01b0381168114611733575f80fd5b919050565b634e487b7160e01b5f52604160045260245ffd5b604051601f8201601f1916810167ffffffffffffffff8111828210171561177557611775611738565b604052919050565b5f67ffffffffffffffff82111561179657611796611738565b5060051b60200190565b5f82601f8301126117af575f80fd5b81356117c26117bd8261177d565b61174c565b8082825260208201915060208360051b8601019250858311156117e3575f80fd5b602085015b838110156118005780358352602092830192016117e8565b5095945050505050565b5f805f806080858703121561181d575f80fd5b6118268561171d565b9350602085013567ffffffffffffffff811115611841575f80fd5b8501601f81018713611851575f80fd5b803561185f6117bd8261177d565b8082825260208201915060208360051b850101925089831115611880575f80fd5b6020840193505b828410156118a9576118988461171d565b825260209384019390910190611887565b9550505050604085013567ffffffffffffffff8111156118c7575f80fd5b6118d3878288016117a0565b949793965093946060013593505050565b5f80604083850312156118f5575f80fd5b6118fe8361171d565b9150602083013567ffffffffffffffff811115611919575f80fd5b8301601f81018513611929575f80fd5b803567ffffffffffffffff81111561194357611943611738565b611956601f8201601f191660200161174c565b81815286602083850101111561196a575f80fd5b816020840160208301375f602083830101528093505050509250929050565b5f60208284031215611999575f80fd5b5035919050565b5f602082840312156119b0575f80fd5b6116ed8261171d565b602081525f82518060208401528060208501604085015e5f604082850101526040601f19601f83011684010191505092915050565b5f80604083850312156119ff575f80fd5b50508035926020909101359150565b5f805f8060808587031215611a21575f80fd5b611a2a8561171d565b9350611a386020860161171d565b92506040850135915060608501358015158114611a53575f80fd5b939692955090935050565b634e487b7160e01b5f52603260045260245ffd5b634e487b7160e01b5f52601160045260245ffd5b808201808211156112a3576112a3611a72565b818103818111156112a3576112a3611a72565b5f60018201611abd57611abd611a72565b5060010190565b5f60208284031215611ad4575f80fd5b5051919050565b80820281158282048414176112a3576112a3611a72565b634e487b7160e01b5f52601260045260245ffd5b5f82611b1457611b14611af2565b500490565b5f82611b2757611b27611af2565b500690565b5f82518060208501845e5f92019182525091905056fe360894a13ba1a3210667c828492db98dca3e2076cc3735a920a3ca505d382bbca2646970667358221220bee3e5f83dd579987a57c35a97a867b7192c083c90d1a83641dae3045e8f4bb664736f6c634300081a0033","linkReferences":{}},"methodIdentifiers":{"UPGRADE_INTERFACE_VERSION()":"ad3cb1cc","feePercent()":"7fd6f15c","increaseStakeAmount(uint256,uint256)":"adbd3990","initialize(address,address[],uint256[],uint256)":"46448548","nexLabs()":"3c6d0b48","numberOfStakersByTokenAddress(address)":"548d3e67","owner()":"8da5cb5b","positions(uint256)":"99fbab88","proxiableUUID()":"52d1902d","renounceOwnership()":"715018a6","stake(address,address,uint256,bool)":"cc574658","tokensAPY(address)":"e80f1071","transferOwnership(address)":"f2fde38b","unStake(uint256)":"5d3eea91","upgradeToAndCall(address,bytes)":"4f1ef286","withdrawReward(uint256)":"523a3f08"},"storageLayout":{"storage":[{"astId":28,"contract":"contracts/NexStaging.sol:NexStaging","label":"nexLabs","offset":0,"slot":"0","type":"t_contract(IERC20)43263"},{"astId":30,"contract":"contracts/NexStaging.sol:NexStaging","label":"feePercent","offset":0,"slot":"1","type":"t_uint256"},{"astId":32,"contract":"contracts/NexStaging.sol:NexStaging","label":"_nextId","offset":0,"slot":"2","type":"t_uint256"},{"astId":54,"contract":"contracts/NexStaging.sol:NexStaging","label":"tokensAPY","offset":0,"slot":"3","type":"t_mapping(t_address,t_uint256)"},{"astId":58,"contract":"contracts/NexStaging.sol:NexStaging","label":"numberOfStakersByTokenAddress","offset":0,"slot":"4","type":"t_mapping(t_address,t_uint256)"},{"astId":63,"contract":"contracts/NexStaging.sol:NexStaging","label":"_positions","offset":0,"slot":"5","type":"t_mapping(t_uint256,t_struct(StakePosition)50_storage)"}],"types":{"t_address":{"encoding":"inplace","label":"address","numberOfBytes":"20"},"t_bool":{"encoding":"inplace","label":"bool","numberOfBytes":"1"},"t_contract(IERC20)43263":{"encoding":"inplace","label":"contract IERC20","numberOfBytes":"20"},"t_mapping(t_address,t_uint256)":{"encoding":"mapping","key":"t_address","label":"mapping(address => uint256)","numberOfBytes":"32","value":"t_uint256"},"t_mapping(t_uint256,t_struct(StakePosition)50_storage)":{"encoding":"mapping","key":"t_uint256","label":"mapping(uint256 => struct NexStaging.StakePosition)","numberOfBytes":"32","value":"t_struct(StakePosition)50_storage"},"t_struct(StakePosition)50_storage":{"encoding":"inplace","label":"struct NexStaging.StakePosition","numberOfBytes":"256","members":[{"astId":35,"contract":"contracts/NexStaging.sol:NexStaging","label":"owner","offset":0,"slot":"0","type":"t_address"},{"astId":37,"contract":"contracts/NexStaging.sol:NexStaging","label":"stakeToken","offset":0,"slot":"1","type":"t_address"},{"astId":39,"contract":"contracts/NexStaging.sol:NexStaging","label":"rewardToken","offset":0,"slot":"2","type":"t_address"},{"astId":41,"contract":"contracts/NexStaging.sol:NexStaging","label":"stakeAmount","offset":0,"slot":"3","type":"t_uint256"},{"astId":43,"contract":"contracts/NexStaging.sol:NexStaging","label":"rewardEarned","offset":0,"slot":"4","type":"t_uint256"},{"astId":45,"contract":"contracts/NexStaging.sol:NexStaging","label":"apy","offset":0,"slot":"5","type":"t_uint256"},{"astId":47,"contract":"contracts/NexStaging.sol:NexStaging","label":"startTime","offset":0,"slot":"6","type":"t_uint256"},{"astId":49,"contract":"contracts/NexStaging.sol:NexStaging","label":"autoCompound","offset":0,"slot":"7","type":"t_bool"}]},"t_uint256":{"encoding":"inplace","label":"uint256","numberOfBytes":"32"}}},"id":0}