{"abi":[{"type":"constructor","inputs":[{"name":"_nexLabsAddress","type":"address","internalType":"address"},{"name":"_tokenAddresses","type":"address[]","internalType":"address[]"},{"name":"_tokenAPYs","type":"uint256[]","internalType":"uint256[]"},{"name":"_feePercent","type":"uint256","internalType":"uint256"}],"stateMutability":"nonpayable"},{"type":"function","name":"feePercent","inputs":[],"outputs":[{"name":"","type":"uint256","internalType":"uint256"}],"stateMutability":"view"},{"type":"function","name":"increaseStakeAmount","inputs":[{"name":"positionId","type":"uint256","internalType":"uint256"},{"name":"amount","type":"uint256","internalType":"uint256"}],"outputs":[],"stateMutability":"nonpayable"},{"type":"function","name":"nexLabs","inputs":[],"outputs":[{"name":"","type":"address","internalType":"contract IERC20"}],"stateMutability":"view"},{"type":"function","name":"numberOfStakersByTokenAddress","inputs":[{"name":"","type":"address","internalType":"address"}],"outputs":[{"name":"","type":"uint256","internalType":"uint256"}],"stateMutability":"view"},{"type":"function","name":"owner","inputs":[],"outputs":[{"name":"","type":"address","internalType":"address"}],"stateMutability":"view"},{"type":"function","name":"positions","inputs":[{"name":"positionId","type":"uint256","internalType":"uint256"}],"outputs":[{"name":"positionOwner","type":"address","internalType":"address"},{"name":"stakeToken","type":"address","internalType":"address"},{"name":"rewardToken","type":"address","internalType":"address"},{"name":"stakeAmount","type":"uint256","internalType":"uint256"},{"name":"rewardEarned","type":"uint256","internalType":"uint256"},{"name":"apy","type":"uint256","internalType":"uint256"},{"name":"startTime","type":"uint256","internalType":"uint256"},{"name":"autoCompound","type":"bool","internalType":"bool"}],"stateMutability":"view"},{"type":"function","name":"stake","inputs":[{"name":"tokenAddress","type":"address","internalType":"address"},{"name":"rewardToken","type":"address","internalType":"address"},{"name":"amount","type":"uint256","internalType":"uint256"},{"name":"autoCompound","type":"bool","internalType":"bool"}],"outputs":[{"name":"positionId","type":"uint256","internalType":"uint256"}],"stateMutability":"nonpayable"},{"type":"function","name":"tokensAPY","inputs":[{"name":"","type":"address","internalType":"address"}],"outputs":[{"name":"","type":"uint256","internalType":"uint256"}],"stateMutability":"view"},{"type":"function","name":"unStake","inputs":[{"name":"positionId","type":"uint256","internalType":"uint256"}],"outputs":[],"stateMutability":"nonpayable"},{"type":"function","name":"withdrawReward","inputs":[{"name":"positionId","type":"uint256","internalType":"uint256"}],"outputs":[],"stateMutability":"nonpayable"},{"type":"event","name":"RewardWithdrawn","inputs":[{"name":"positionId","type":"uint256","indexed":true,"internalType":"uint256"},{"name":"user","type":"address","indexed":true,"internalType":"address"},{"name":"amount","type":"uint256","indexed":false,"internalType":"uint256"},{"name":"timestamp","type":"uint256","indexed":false,"internalType":"uint256"}],"anonymous":false},{"type":"event","name":"Staked","inputs":[{"name":"positionId","type":"uint256","indexed":true,"internalType":"uint256"},{"name":"user","type":"address","indexed":true,"internalType":"address"},{"name":"token","type":"address","indexed":false,"internalType":"address"},{"name":"rewardToken","type":"address","indexed":false,"internalType":"address"},{"name":"amount","type":"uint256","indexed":false,"internalType":"uint256"},{"name":"autoCompound","type":"bool","indexed":false,"internalType":"bool"},{"name":"timestamp","type":"uint256","indexed":false,"internalType":"uint256"}],"anonymous":false},{"type":"event","name":"StakedIncreased","inputs":[{"name":"positionId","type":"uint256","indexed":true,"internalType":"uint256"},{"name":"user","type":"address","indexed":true,"internalType":"address"},{"name":"token","type":"address","indexed":false,"internalType":"address"},{"name":"amount","type":"uint256","indexed":false,"internalType":"uint256"},{"name":"timestamp","type":"uint256","indexed":false,"internalType":"uint256"}],"anonymous":false},{"type":"event","name":"UnStaked","inputs":[{"name":"positionId","type":"uint256","indexed":true,"internalType":"uint256"},{"name":"user","type":"address","indexed":true,"internalType":"address"},{"name":"token","type":"address","indexed":false,"internalType":"address"},{"name":"amountUstaked","type":"uint256","indexed":false,"internalType":"uint256"},{"name":"rewardAmountUnstaked","type":"uint256","indexed":false,"internalType":"uint256"},{"name":"timestamp","type":"uint256","indexed":false,"internalType":"uint256"}],"anonymous":false},{"type":"error","name":"SafeERC20FailedOperation","inputs":[{"name":"token","type":"address","internalType":"address"}]}],"bytecode":{"object":"0x6080604052600160035f6101000a81548175ffffffffffffffffffffffffffffffffffffffffffff021916908375ffffffffffffffffffffffffffffffffffffffffffff160217905550348015610054575f80fd5b5060405161247938038061247983398181016040528101906100769190610486565b81518351146100ba576040517f08c379a00000000000000000000000000000000000000000000000000000000081526004016100b19061057c565b60405180910390fd5b335f806101000a81548173ffffffffffffffffffffffffffffffffffffffff021916908373ffffffffffffffffffffffffffffffffffffffff1602179055508360015f6101000a81548173ffffffffffffffffffffffffffffffffffffffff021916908373ffffffffffffffffffffffffffffffffffffffff160217905550806002819055505f5b83518110156101ce5782818151811061015e5761015d61059a565b5b602002602001015160045f86848151811061017c5761017b61059a565b5b602002602001015173ffffffffffffffffffffffffffffffffffffffff1673ffffffffffffffffffffffffffffffffffffffff1681526020019081526020015f20819055508080600101915050610142565b50505050506105c7565b5f604051905090565b5f80fd5b5f80fd5b5f73ffffffffffffffffffffffffffffffffffffffff82169050919050565b5f610212826101e9565b9050919050565b61022281610208565b811461022c575f80fd5b50565b5f8151905061023d81610219565b92915050565b5f80fd5b5f601f19601f8301169050919050565b7f4e487b71000000000000000000000000000000000000000000000000000000005f52604160045260245ffd5b61028d82610247565b810181811067ffffffffffffffff821117156102ac576102ab610257565b5b80604052505050565b5f6102be6101d8565b90506102ca8282610284565b919050565b5f67ffffffffffffffff8211156102e9576102e8610257565b5b602082029050602081019050919050565b5f80fd5b5f61031061030b846102cf565b6102b5565b90508083825260208201905060208402830185811115610333576103326102fa565b5b835b8181101561035c5780610348888261022f565b845260208401935050602081019050610335565b5050509392505050565b5f82601f83011261037a57610379610243565b5b815161038a8482602086016102fe565b91505092915050565b5f67ffffffffffffffff8211156103ad576103ac610257565b5b602082029050602081019050919050565b5f819050919050565b6103d0816103be565b81146103da575f80fd5b50565b5f815190506103eb816103c7565b92915050565b5f6104036103fe84610393565b6102b5565b90508083825260208201905060208402830185811115610426576104256102fa565b5b835b8181101561044f578061043b88826103dd565b845260208401935050602081019050610428565b5050509392505050565b5f82601f83011261046d5761046c610243565b5b815161047d8482602086016103f1565b91505092915050565b5f805f806080858703121561049e5761049d6101e1565b5b5f6104ab8782880161022f565b945050602085015167ffffffffffffffff8111156104cc576104cb6101e5565b5b6104d887828801610366565b935050604085015167ffffffffffffffff8111156104f9576104f86101e5565b5b61050587828801610459565b9250506060610516878288016103dd565b91505092959194509250565b5f82825260208201905092915050565b7f4d69736d61746368656420746f6b656e20616e6420415059206c656e677468735f82015250565b5f610566602083610522565b915061057182610532565b602082019050919050565b5f6020820190508181035f8301526105938161055a565b9050919050565b7f4e487b71000000000000000000000000000000000000000000000000000000005f52603260045260245ffd5b611ea5806105d45f395ff3fe608060405234801561000f575f80fd5b506004361061009c575f3560e01c80638da5cb5b116100645780638da5cb5b1461014457806399fbab8814610162578063adbd399014610199578063cc574658146101b5578063e80f1071146101e55761009c565b80633c6d0b48146100a0578063523a3f08146100be578063548d3e67146100da5780635d3eea911461010a5780637fd6f15c14610126575b5f80fd5b6100a8610215565b6040516100b591906114f3565b60405180910390f35b6100d860048036038101906100d39190611543565b61023a565b005b6100f460048036038101906100ef91906115a9565b6103e5565b60405161010191906115e3565b60405180910390f35b610124600480360381019061011f9190611543565b6103fa565b005b61012e61083d565b60405161013b91906115e3565b60405180910390f35b61014c610843565b604051610159919061160b565b60405180910390f35b61017c60048036038101906101779190611543565b610866565b60405161019098979695949392919061163e565b60405180910390f35b6101b360048036038101906101ae91906116ba565b610a11565b005b6101cf60048036038101906101ca9190611722565b610c52565b6040516101dc91906115e3565b60405180910390f35b6101ff60048036038101906101fa91906115a9565b611179565b60405161020c91906115e3565b60405180910390f35b60015f9054906101000a900473ffffffffffffffffffffffffffffffffffffffff1681565b5f60065f8381526020019081526020015f2090503373ffffffffffffffffffffffffffffffffffffffff16815f015f9054906101000a900473ffffffffffffffffffffffffffffffffffffffff1673ffffffffffffffffffffffffffffffffffffffff16146102de576040517f08c379a00000000000000000000000000000000000000000000000000000000081526004016102d590611806565b60405180910390fd5b5f6102e88261118e565b82600401546102f79190611851565b9050816007015f9054906101000a900460ff161561032e5780826003015f8282546103229190611851565b9250508190555061037d565b61037c3382846002015f9054906101000a900473ffffffffffffffffffffffffffffffffffffffff1673ffffffffffffffffffffffffffffffffffffffff166112a19092919063ffffffff16565b5b5f82600401819055504282600601819055503373ffffffffffffffffffffffffffffffffffffffff16837f746e77ecea01d694db4b52c8fd03d2e4008fe44a603d88e09e40a60d297d94d883426040516103d8929190611884565b60405180910390a3505050565b6005602052805f5260405f205f915090505481565b5f60065f8381526020019081526020015f2090503373ffffffffffffffffffffffffffffffffffffffff16815f015f9054906101000a900473ffffffffffffffffffffffffffffffffffffffff1673ffffffffffffffffffffffffffffffffffffffff161461049e576040517f08c379a00000000000000000000000000000000000000000000000000000000081526004016104959061191b565b60405180910390fd5b5f8160030154116104e4576040517f08c379a00000000000000000000000000000000000000000000000000000000081526004016104db90611983565b60405180910390fd5b5f6104ee8261118e565b82600401546104fd9190611851565b90505f61050c82600254611320565b915050826002015f9054906101000a900473ffffffffffffffffffffffffffffffffffffffff1673ffffffffffffffffffffffffffffffffffffffff16836001015f9054906101000a900473ffffffffffffffffffffffffffffffffffffffff1673ffffffffffffffffffffffffffffffffffffffff16036105ef575f8184600301546105999190611851565b90506105e93382866001015f9054906101000a900473ffffffffffffffffffffffffffffffffffffffff1673ffffffffffffffffffffffffffffffffffffffff166112a19092919063ffffffff16565b50610690565b610641338460030154856001015f9054906101000a900473ffffffffffffffffffffffffffffffffffffffff1673ffffffffffffffffffffffffffffffffffffffff166112a19092919063ffffffff16565b61068f3382856002015f9054906101000a900473ffffffffffffffffffffffffffffffffffffffff1673ffffffffffffffffffffffffffffffffffffffff166112a19092919063ffffffff16565b5b600160055f856001015f9054906101000a900473ffffffffffffffffffffffffffffffffffffffff1673ffffffffffffffffffffffffffffffffffffffff1673ffffffffffffffffffffffffffffffffffffffff1681526020019081526020015f205f82825461070091906119a1565b925050819055503373ffffffffffffffffffffffffffffffffffffffff16847f976fa465a6a0d38397fdef3740568444098c3887c61f0a45d37a0a33463a9bb5856001015f9054906101000a900473ffffffffffffffffffffffffffffffffffffffff168660030154854260405161077b94939291906119d4565b60405180910390a360065f8581526020019081526020015f205f8082015f6101000a81549073ffffffffffffffffffffffffffffffffffffffff0219169055600182015f6101000a81549073ffffffffffffffffffffffffffffffffffffffff0219169055600282015f6101000a81549073ffffffffffffffffffffffffffffffffffffffff0219169055600382015f9055600482015f9055600582015f9055600682015f9055600782015f6101000a81549060ff0219169055505050505050565b60025481565b5f8054906101000a900473ffffffffffffffffffffffffffffffffffffffff1681565b5f805f805f805f805f60065f8b81526020019081526020015f20604051806101000160405290815f82015f9054906101000a900473ffffffffffffffffffffffffffffffffffffffff1673ffffffffffffffffffffffffffffffffffffffff1673ffffffffffffffffffffffffffffffffffffffff168152602001600182015f9054906101000a900473ffffffffffffffffffffffffffffffffffffffff1673ffffffffffffffffffffffffffffffffffffffff1673ffffffffffffffffffffffffffffffffffffffff168152602001600282015f9054906101000a900473ffffffffffffffffffffffffffffffffffffffff1673ffffffffffffffffffffffffffffffffffffffff1673ffffffffffffffffffffffffffffffffffffffff16815260200160038201548152602001600482015481526020016005820154815260200160068201548152602001600782015f9054906101000a900460ff1615151515815250509050805f015181602001518260400151836060015184608001518560a001518660c001518760e001519850985098509850985098509850985050919395975091939597565b5f60065f8481526020019081526020015f2090503373ffffffffffffffffffffffffffffffffffffffff16815f015f9054906101000a900473ffffffffffffffffffffffffffffffffffffffff1673ffffffffffffffffffffffffffffffffffffffff1614610ab5576040517f08c379a0000000000000000000000000000000000000000000000000000000008152600401610aac90611a87565b60405180910390fd5b5f8211610af7576040517f08c379a0000000000000000000000000000000000000000000000000000000008152600401610aee90611b15565b60405180910390fd5b5f80610b0584600254611320565b915091505f836001015f9054906101000a900473ffffffffffffffffffffffffffffffffffffffff169050610b5d3330848473ffffffffffffffffffffffffffffffffffffffff1661135c909392919063ffffffff16565b610b8a3330858473ffffffffffffffffffffffffffffffffffffffff1661135c909392919063ffffffff16565b5f610b948561118e565b905082856003015f828254610ba99190611851565b9250508190555080856004015f828254610bc39190611851565b925050819055504285600601819055503373ffffffffffffffffffffffffffffffffffffffff16877f6c867f693c9c5b8cd5eef34e0e307505a7189dce0b3e73b8e94e09672c15455f876001015f9054906101000a900473ffffffffffffffffffffffffffffffffffffffff168642604051610c4193929190611b33565b60405180910390a350505050505050565b5f8060045f8773ffffffffffffffffffffffffffffffffffffffff1673ffffffffffffffffffffffffffffffffffffffff1681526020019081526020015f205403610cd2576040517f08c379a0000000000000000000000000000000000000000000000000000000008152600401610cc990611bb2565b60405180910390fd5b5f8311610d14576040517f08c379a0000000000000000000000000000000000000000000000000000000008152600401610d0b90611c40565b60405180910390fd5b8373ffffffffffffffffffffffffffffffffffffffff1660015f9054906101000a900473ffffffffffffffffffffffffffffffffffffffff1673ffffffffffffffffffffffffffffffffffffffff161480610d9a57508373ffffffffffffffffffffffffffffffffffffffff168573ffffffffffffffffffffffffffffffffffffffff16145b610dd9576040517f08c379a0000000000000000000000000000000000000000000000000000000008152600401610dd090611ca8565b60405180910390fd5b5f60045f8773ffffffffffffffffffffffffffffffffffffffff1673ffffffffffffffffffffffffffffffffffffffff1681526020019081526020015f205490505f80610e2886600254611320565b915091505f889050610e5d3330848473ffffffffffffffffffffffffffffffffffffffff1661135c909392919063ffffffff16565b610e8a3330858473ffffffffffffffffffffffffffffffffffffffff1661135c909392919063ffffffff16565b60035f81819054906101000a900475ffffffffffffffffffffffffffffffffffffffffffff1680929190610ebd90611ce7565b91906101000a81548175ffffffffffffffffffffffffffffffffffffffffffff021916908375ffffffffffffffffffffffffffffffffffffffffffff16021790555075ffffffffffffffffffffffffffffffffffffffffffff1694506040518061010001604052803373ffffffffffffffffffffffffffffffffffffffff1681526020018a73ffffffffffffffffffffffffffffffffffffffff1681526020018973ffffffffffffffffffffffffffffffffffffffff1681526020018381526020015f815260200185815260200142815260200187151581525060065f8781526020019081526020015f205f820151815f015f6101000a81548173ffffffffffffffffffffffffffffffffffffffff021916908373ffffffffffffffffffffffffffffffffffffffff1602179055506020820151816001015f6101000a81548173ffffffffffffffffffffffffffffffffffffffff021916908373ffffffffffffffffffffffffffffffffffffffff1602179055506040820151816002015f6101000a81548173ffffffffffffffffffffffffffffffffffffffff021916908373ffffffffffffffffffffffffffffffffffffffff160217905550606082015181600301556080820151816004015560a0820151816005015560c0820151816006015560e0820151816007015f6101000a81548160ff021916908315150217905550905050600160055f8b73ffffffffffffffffffffffffffffffffffffffff1673ffffffffffffffffffffffffffffffffffffffff1681526020019081526020015f205f82825461110f9190611851565b925050819055503373ffffffffffffffffffffffffffffffffffffffff16857f8d6447383741d41c5d5c9183b2b6be0d6a8cc1f2b3f365aeacc2775251b077378b8b868b42604051611165959493929190611d24565b60405180910390a350505050949350505050565b6004602052805f5260405f205f915090505481565b5f808260060154426111a091906119a1565b90505f61016d670de0b6b3a764000085600501546111be9190611d75565b6111c89190611de3565b9050836007015f9054906101000a900460ff161561125a575f846003015490505f5b62015180846111f99190611de3565b81101561123f575f68056bc75e2d6310000084846112179190611d75565b6112219190611de3565b9050808361122f9190611851565b92505080806001019150506111ea565b5084600301548161125091906119a1565b935050505061129c565b68056bc75e2d6310000062015180838387600301546112799190611d75565b6112839190611d75565b61128d9190611de3565b6112979190611de3565b925050505b919050565b61131b838473ffffffffffffffffffffffffffffffffffffffff1663a9059cbb85856040516024016112d4929190611e13565b604051602081830303815290604052915060e01b6020820180517bffffffffffffffffffffffffffffffffffffffffffffffffffffffff83818316178352505050506113de565b505050565b5f805f61271084866113329190611d75565b61133c9190611de3565b90505f818661134b91906119a1565b905081819350935050509250929050565b6113d8848573ffffffffffffffffffffffffffffffffffffffff166323b872dd86868660405160240161139193929190611e3a565b604051602081830303815290604052915060e01b6020820180517bffffffffffffffffffffffffffffffffffffffffffffffffffffffff83818316178352505050506113de565b50505050565b5f8060205f8451602086015f885af1806113fd576040513d5f823e3d81fd5b3d92505f519150505f8214611416576001811415611431565b5f8473ffffffffffffffffffffffffffffffffffffffff163b145b1561147357836040517f5274afe700000000000000000000000000000000000000000000000000000000815260040161146a919061160b565b60405180910390fd5b50505050565b5f73ffffffffffffffffffffffffffffffffffffffff82169050919050565b5f819050919050565b5f6114bb6114b66114b184611479565b611498565b611479565b9050919050565b5f6114cc826114a1565b9050919050565b5f6114dd826114c2565b9050919050565b6114ed816114d3565b82525050565b5f6020820190506115065f8301846114e4565b92915050565b5f80fd5b5f819050919050565b61152281611510565b811461152c575f80fd5b50565b5f8135905061153d81611519565b92915050565b5f602082840312156115585761155761150c565b5b5f6115658482850161152f565b91505092915050565b5f61157882611479565b9050919050565b6115888161156e565b8114611592575f80fd5b50565b5f813590506115a38161157f565b92915050565b5f602082840312156115be576115bd61150c565b5b5f6115cb84828501611595565b91505092915050565b6115dd81611510565b82525050565b5f6020820190506115f65f8301846115d4565b92915050565b6116058161156e565b82525050565b5f60208201905061161e5f8301846115fc565b92915050565b5f8115159050919050565b61163881611624565b82525050565b5f610100820190506116525f83018b6115fc565b61165f602083018a6115fc565b61166c60408301896115fc565b61167960608301886115d4565b61168660808301876115d4565b61169360a08301866115d4565b6116a060c08301856115d4565b6116ad60e083018461162f565b9998505050505050505050565b5f80604083850312156116d0576116cf61150c565b5b5f6116dd8582860161152f565b92505060206116ee8582860161152f565b9150509250929050565b61170181611624565b811461170b575f80fd5b50565b5f8135905061171c816116f8565b92915050565b5f805f806080858703121561173a5761173961150c565b5b5f61174787828801611595565b945050602061175887828801611595565b93505060406117698782880161152f565b925050606061177a8782880161170e565b91505092959194509250565b5f82825260208201905092915050565b7f596f7520617265206e6f7420746865206f776e6572206f66207468697320706f5f8201527f736974696f6e0000000000000000000000000000000000000000000000000000602082015250565b5f6117f0602683611786565b91506117fb82611796565b604082019050919050565b5f6020820190508181035f83015261181d816117e4565b9050919050565b7f4e487b71000000000000000000000000000000000000000000000000000000005f52601160045260245ffd5b5f61185b82611510565b915061186683611510565b925082820190508082111561187e5761187d611824565b5b92915050565b5f6040820190506118975f8301856115d4565b6118a460208301846115d4565b9392505050565b7f596f7520617265206e6f7420746865206f776e6572206f66207468697320706f5f8201527f736974696f6e2100000000000000000000000000000000000000000000000000602082015250565b5f611905602783611786565b9150611910826118ab565b604082019050919050565b5f6020820190508181035f830152611932816118f9565b9050919050565b7f4e6f207374616b6520616d6f756e7420746f20756e7374616b652e00000000005f82015250565b5f61196d601b83611786565b915061197882611939565b602082019050919050565b5f6020820190508181035f83015261199a81611961565b9050919050565b5f6119ab82611510565b91506119b683611510565b92508282039050818111156119ce576119cd611824565b5b92915050565b5f6080820190506119e75f8301876115fc565b6119f460208301866115d4565b611a0160408301856115d4565b611a0e60608301846115d4565b95945050505050565b7f4f6e6c79206f776e65722063616e20696e63726561736520746865207374616b5f8201527f656420616d6f756e742100000000000000000000000000000000000000000000602082015250565b5f611a71602a83611786565b9150611a7c82611a17565b604082019050919050565b5f6020820190508181035f830152611a9e81611a65565b9050919050565b7f496e63726561736520616d6f756e74206d7573742062652067726561746572205f8201527f7468616e207a65726f2e00000000000000000000000000000000000000000000602082015250565b5f611aff602a83611786565b9150611b0a82611aa5565b604082019050919050565b5f6020820190508181035f830152611b2c81611af3565b9050919050565b5f606082019050611b465f8301866115fc565b611b5360208301856115d4565b611b6060408301846115d4565b949350505050565b7f546f6b656e206e6f7420737570706f7274656420666f72207374616b696e672e5f82015250565b5f611b9c602083611786565b9150611ba782611b68565b602082019050919050565b5f6020820190508181035f830152611bc981611b90565b9050919050565b7f5374616b696e6720616d6f756e74206d757374206265206772656174657220745f8201527f68616e207a65726f2e0000000000000000000000000000000000000000000000602082015250565b5f611c2a602983611786565b9150611c3582611bd0565b604082019050919050565b5f6020820190508181035f830152611c5781611c1e565b9050919050565b7f496e76616c69642072657761726420746f6b656e2e00000000000000000000005f82015250565b5f611c92601583611786565b9150611c9d82611c5e565b602082019050919050565b5f6020820190508181035f830152611cbf81611c86565b9050919050565b5f75ffffffffffffffffffffffffffffffffffffffffffff82169050919050565b5f611cf182611cc6565b915075ffffffffffffffffffffffffffffffffffffffffffff8203611d1957611d18611824565b5b600182019050919050565b5f60a082019050611d375f8301886115fc565b611d4460208301876115fc565b611d5160408301866115d4565b611d5e606083018561162f565b611d6b60808301846115d4565b9695505050505050565b5f611d7f82611510565b9150611d8a83611510565b9250828202611d9881611510565b91508282048414831517611daf57611dae611824565b5b5092915050565b7f4e487b71000000000000000000000000000000000000000000000000000000005f52601260045260245ffd5b5f611ded82611510565b9150611df883611510565b925082611e0857611e07611db6565b5b828204905092915050565b5f604082019050611e265f8301856115fc565b611e3360208301846115d4565b9392505050565b5f606082019050611e4d5f8301866115fc565b611e5a60208301856115fc565b611e6760408301846115d4565b94935050505056fea26469706673582212208a51fbd31c0173b02f27a888de8fecbe88f0aff319530d582b528ce34fb4d7d064736f6c634300081a0033","linkReferences":{}},"methodIdentifiers":{"feePercent()":"7fd6f15c","increaseStakeAmount(uint256,uint256)":"adbd3990","nexLabs()":"3c6d0b48","numberOfStakersByTokenAddress(address)":"548d3e67","owner()":"8da5cb5b","positions(uint256)":"99fbab88","stake(address,address,uint256,bool)":"cc574658","tokensAPY(address)":"e80f1071","unStake(uint256)":"5d3eea91","withdrawReward(uint256)":"523a3f08"},"id":0}