{"abi":[{"type":"function","name":"UPGRADE_INTERFACE_VERSION","inputs":[],"outputs":[{"name":"","type":"string","internalType":"string"}],"stateMutability":"view"},{"type":"function","name":"feePercent","inputs":[],"outputs":[{"name":"","type":"uint256","internalType":"uint256"}],"stateMutability":"view"},{"type":"function","name":"increaseStakeAmount","inputs":[{"name":"positionId","type":"uint256","internalType":"uint256"},{"name":"amount","type":"uint256","internalType":"uint256"}],"outputs":[],"stateMutability":"nonpayable"},{"type":"function","name":"initialize","inputs":[{"name":"_nexLabsAddress","type":"address","internalType":"address"},{"name":"_tokenAddresses","type":"address[]","internalType":"address[]"},{"name":"_tokenAPYs","type":"uint256[]","internalType":"uint256[]"},{"name":"_feePercent","type":"uint256","internalType":"uint256"}],"outputs":[],"stateMutability":"nonpayable"},{"type":"function","name":"nexLabs","inputs":[],"outputs":[{"name":"","type":"address","internalType":"contract IERC20"}],"stateMutability":"view"},{"type":"function","name":"numberOfStakersByTokenAddress","inputs":[{"name":"","type":"address","internalType":"address"}],"outputs":[{"name":"","type":"uint256","internalType":"uint256"}],"stateMutability":"view"},{"type":"function","name":"owner","inputs":[],"outputs":[{"name":"","type":"address","internalType":"address"}],"stateMutability":"view"},{"type":"function","name":"positions","inputs":[{"name":"positionId","type":"uint256","internalType":"uint256"}],"outputs":[{"name":"positionOwner","type":"address","internalType":"address"},{"name":"stakeToken","type":"address","internalType":"address"},{"name":"rewardToken","type":"address","internalType":"address"},{"name":"stakeAmount","type":"uint256","internalType":"uint256"},{"name":"rewardEarned","type":"uint256","internalType":"uint256"},{"name":"apy","type":"uint256","internalType":"uint256"},{"name":"startTime","type":"uint256","internalType":"uint256"},{"name":"autoCompound","type":"bool","internalType":"bool"}],"stateMutability":"view"},{"type":"function","name":"proxiableUUID","inputs":[],"outputs":[{"name":"","type":"bytes32","internalType":"bytes32"}],"stateMutability":"view"},{"type":"function","name":"renounceOwnership","inputs":[],"outputs":[],"stateMutability":"nonpayable"},{"type":"function","name":"stake","inputs":[{"name":"tokenAddress","type":"address","internalType":"address"},{"name":"rewardToken","type":"address","internalType":"address"},{"name":"amount","type":"uint256","internalType":"uint256"},{"name":"autoCompound","type":"bool","internalType":"bool"}],"outputs":[{"name":"positionId","type":"uint256","internalType":"uint256"}],"stateMutability":"nonpayable"},{"type":"function","name":"tokensAPY","inputs":[{"name":"","type":"address","internalType":"address"}],"outputs":[{"name":"","type":"uint256","internalType":"uint256"}],"stateMutability":"view"},{"type":"function","name":"transferOwnership","inputs":[{"name":"newOwner","type":"address","internalType":"address"}],"outputs":[],"stateMutability":"nonpayable"},{"type":"function","name":"unStake","inputs":[{"name":"positionId","type":"uint256","internalType":"uint256"}],"outputs":[],"stateMutability":"nonpayable"},{"type":"function","name":"upgradeToAndCall","inputs":[{"name":"newImplementation","type":"address","internalType":"address"},{"name":"data","type":"bytes","internalType":"bytes"}],"outputs":[],"stateMutability":"payable"},{"type":"function","name":"withdrawReward","inputs":[{"name":"positionId","type":"uint256","internalType":"uint256"}],"outputs":[],"stateMutability":"nonpayable"},{"type":"event","name":"Initialized","inputs":[{"name":"version","type":"uint64","indexed":false,"internalType":"uint64"}],"anonymous":false},{"type":"event","name":"OwnershipTransferred","inputs":[{"name":"previousOwner","type":"address","indexed":true,"internalType":"address"},{"name":"newOwner","type":"address","indexed":true,"internalType":"address"}],"anonymous":false},{"type":"event","name":"RewardWithdrawn","inputs":[{"name":"positionId","type":"uint256","indexed":true,"internalType":"uint256"},{"name":"user","type":"address","indexed":true,"internalType":"address"},{"name":"amount","type":"uint256","indexed":false,"internalType":"uint256"},{"name":"timestamp","type":"uint256","indexed":false,"internalType":"uint256"}],"anonymous":false},{"type":"event","name":"Staked","inputs":[{"name":"positionId","type":"uint256","indexed":true,"internalType":"uint256"},{"name":"user","type":"address","indexed":true,"internalType":"address"},{"name":"token","type":"address","indexed":false,"internalType":"address"},{"name":"rewardToken","type":"address","indexed":false,"internalType":"address"},{"name":"amount","type":"uint256","indexed":false,"internalType":"uint256"},{"name":"autoCompound","type":"bool","indexed":false,"internalType":"bool"},{"name":"timestamp","type":"uint256","indexed":false,"internalType":"uint256"}],"anonymous":false},{"type":"event","name":"StakedIncreased","inputs":[{"name":"positionId","type":"uint256","indexed":true,"internalType":"uint256"},{"name":"user","type":"address","indexed":true,"internalType":"address"},{"name":"token","type":"address","indexed":false,"internalType":"address"},{"name":"amount","type":"uint256","indexed":false,"internalType":"uint256"},{"name":"timestamp","type":"uint256","indexed":false,"internalType":"uint256"}],"anonymous":false},{"type":"event","name":"UnStaked","inputs":[{"name":"positionId","type":"uint256","indexed":true,"internalType":"uint256"},{"name":"user","type":"address","indexed":true,"internalType":"address"},{"name":"token","type":"address","indexed":false,"internalType":"address"},{"name":"amountUstaked","type":"uint256","indexed":false,"internalType":"uint256"},{"name":"rewardAmountUnstaked","type":"uint256","indexed":false,"internalType":"uint256"},{"name":"timestamp","type":"uint256","indexed":false,"internalType":"uint256"}],"anonymous":false},{"type":"event","name":"Upgraded","inputs":[{"name":"implementation","type":"address","indexed":true,"internalType":"address"}],"anonymous":false},{"type":"error","name":"AddressEmptyCode","inputs":[{"name":"target","type":"address","internalType":"address"}]},{"type":"error","name":"ERC1967InvalidImplementation","inputs":[{"name":"implementation","type":"address","internalType":"address"}]},{"type":"error","name":"ERC1967NonPayable","inputs":[]},{"type":"error","name":"FailedCall","inputs":[]},{"type":"error","name":"InvalidInitialization","inputs":[]},{"type":"error","name":"NotInitializing","inputs":[]},{"type":"error","name":"OwnableInvalidOwner","inputs":[{"name":"owner","type":"address","internalType":"address"}]},{"type":"error","name":"OwnableUnauthorizedAccount","inputs":[{"name":"account","type":"address","internalType":"address"}]},{"type":"error","name":"SafeERC20FailedOperation","inputs":[{"name":"token","type":"address","internalType":"address"}]},{"type":"error","name":"UUPSUnauthorizedCallContext","inputs":[]},{"type":"error","name":"UUPSUnsupportedProxiableUUID","inputs":[{"name":"slot","type":"bytes32","internalType":"bytes32"}]}],"bytecode":{"object":"0x60a06040523073ffffffffffffffffffffffffffffffffffffffff1660809073ffffffffffffffffffffffffffffffffffffffff168152503480156041575f80fd5b506080516132d56100685f395f8181611791015281816117e60152611b3201526132d55ff3fe6080604052600436106100f2575f3560e01c80637fd6f15c11610089578063adbd399011610058578063adbd3990146102f1578063cc57465814610319578063e80f107114610355578063f2fde38b14610391576100f2565b80637fd6f15c146102305780638da5cb5b1461025a57806399fbab8814610284578063ad3cb1cc146102c7576100f2565b806352d1902d116100c557806352d1902d1461018c578063548d3e67146101b65780635d3eea91146101f2578063715018a61461021a576100f2565b80633c6d0b48146100f657806346448548146101205780634f1ef28614610148578063523a3f0814610164575b5f80fd5b348015610101575f80fd5b5061010a6103b9565b6040516101179190612316565b60405180910390f35b34801561012b575f80fd5b50610146600480360381019061014191906125be565b6103dc565b005b610162600480360381019061015d919061270a565b6106c6565b005b34801561016f575f80fd5b5061018a60048036038101906101859190612764565b6106e5565b005b348015610197575f80fd5b506101a0610890565b6040516101ad91906127a7565b60405180910390f35b3480156101c1575f80fd5b506101dc60048036038101906101d791906127c0565b6108c1565b6040516101e991906127fa565b60405180910390f35b3480156101fd575f80fd5b5061021860048036038101906102139190612764565b6108d6565b005b348015610225575f80fd5b5061022e610d19565b005b34801561023b575f80fd5b50610244610d2c565b60405161025191906127fa565b60405180910390f35b348015610265575f80fd5b5061026e610d32565b60405161027b9190612822565b60405180910390f35b34801561028f575f80fd5b506102aa60048036038101906102a59190612764565b610d67565b6040516102be989796959493929190612855565b60405180910390f35b3480156102d2575f80fd5b506102db610f12565b6040516102e89190612931565b60405180910390f35b3480156102fc575f80fd5b5061031760048036038101906103129190612951565b610f4b565b005b348015610324575f80fd5b5061033f600480360381019061033a91906129b9565b61118c565b60405161034c91906127fa565b60405180910390f35b348015610360575f80fd5b5061037b600480360381019061037691906127c0565b6116b1565b60405161038891906127fa565b60405180910390f35b34801561039c575f80fd5b506103b760048036038101906103b291906127c0565b6116c6565b005b5f8054906101000a900473ffffffffffffffffffffffffffffffffffffffff1681565b5f6103e561174a565b90505f815f0160089054906101000a900460ff161590505f825f015f9054906101000a900467ffffffffffffffff1690505f808267ffffffffffffffff1614801561042d5750825b90505f60018367ffffffffffffffff1614801561046057505f3073ffffffffffffffffffffffffffffffffffffffff163b145b90508115801561046e575080155b156104a5576040517ff92ee8a900000000000000000000000000000000000000000000000000000000815260040160405180910390fd5b6001855f015f6101000a81548167ffffffffffffffff021916908367ffffffffffffffff16021790555083156104f2576001855f0160086101000a81548160ff0219169083151502179055505b8651885114610536576040517f08c379a000000000000000000000000000000000000000000000000000000000815260040161052d90612a67565b60405180910390fd5b61053f33611771565b610547611785565b885f806101000a81548173ffffffffffffffffffffffffffffffffffffffff021916908373ffffffffffffffffffffffffffffffffffffffff16021790555085600181905550600160025f6101000a81548175ffffffffffffffffffffffffffffffffffffffffffff021916908375ffffffffffffffffffffffffffffffffffffffffffff1602179055505f5b8851811015610660578781815181106105f0576105ef612a85565b5b602002602001015160035f8b848151811061060e5761060d612a85565b5b602002602001015173ffffffffffffffffffffffffffffffffffffffff1673ffffffffffffffffffffffffffffffffffffffff1681526020019081526020015f208190555080806001019150506105d4565b5083156106bb575f855f0160086101000a81548160ff0219169083151502179055507fc7f505b2f371ae2175ee4913f4499e1f2633a7b5936321eed1cdaeb6115181d260016040516106b29190612afe565b60405180910390a15b505050505050505050565b6106ce61178f565b6106d782611875565b6106e18282611880565b5050565b5f60055f8381526020019081526020015f2090503373ffffffffffffffffffffffffffffffffffffffff16815f015f9054906101000a900473ffffffffffffffffffffffffffffffffffffffff1673ffffffffffffffffffffffffffffffffffffffff1614610789576040517f08c379a000000000000000000000000000000000000000000000000000000000815260040161078090612b87565b60405180910390fd5b5f6107938261199e565b82600401546107a29190612bd2565b9050816007015f9054906101000a900460ff16156107d95780826003015f8282546107cd9190612bd2565b92505081905550610828565b6108273382846002015f9054906101000a900473ffffffffffffffffffffffffffffffffffffffff1673ffffffffffffffffffffffffffffffffffffffff16611ab19092919063ffffffff16565b5b5f82600401819055504282600601819055503373ffffffffffffffffffffffffffffffffffffffff16837f746e77ecea01d694db4b52c8fd03d2e4008fe44a603d88e09e40a60d297d94d88342604051610883929190612c05565b60405180910390a3505050565b5f610899611b30565b7f360894a13ba1a3210667c828492db98dca3e2076cc3735a920a3ca505d382bbc5f1b905090565b6004602052805f5260405f205f915090505481565b5f60055f8381526020019081526020015f2090503373ffffffffffffffffffffffffffffffffffffffff16815f015f9054906101000a900473ffffffffffffffffffffffffffffffffffffffff1673ffffffffffffffffffffffffffffffffffffffff161461097a576040517f08c379a000000000000000000000000000000000000000000000000000000000815260040161097190612c9c565b60405180910390fd5b5f8160030154116109c0576040517f08c379a00000000000000000000000000000000000000000000000000000000081526004016109b790612d04565b60405180910390fd5b5f6109ca8261199e565b82600401546109d99190612bd2565b90505f6109e882600154611bb7565b915050826002015f9054906101000a900473ffffffffffffffffffffffffffffffffffffffff1673ffffffffffffffffffffffffffffffffffffffff16836001015f9054906101000a900473ffffffffffffffffffffffffffffffffffffffff1673ffffffffffffffffffffffffffffffffffffffff1603610acb575f818460030154610a759190612bd2565b9050610ac53382866001015f9054906101000a900473ffffffffffffffffffffffffffffffffffffffff1673ffffffffffffffffffffffffffffffffffffffff16611ab19092919063ffffffff16565b50610b6c565b610b1d338460030154856001015f9054906101000a900473ffffffffffffffffffffffffffffffffffffffff1673ffffffffffffffffffffffffffffffffffffffff16611ab19092919063ffffffff16565b610b6b3382856002015f9054906101000a900473ffffffffffffffffffffffffffffffffffffffff1673ffffffffffffffffffffffffffffffffffffffff16611ab19092919063ffffffff16565b5b600160045f856001015f9054906101000a900473ffffffffffffffffffffffffffffffffffffffff1673ffffffffffffffffffffffffffffffffffffffff1673ffffffffffffffffffffffffffffffffffffffff1681526020019081526020015f205f828254610bdc9190612d22565b925050819055503373ffffffffffffffffffffffffffffffffffffffff16847f976fa465a6a0d38397fdef3740568444098c3887c61f0a45d37a0a33463a9bb5856001015f9054906101000a900473ffffffffffffffffffffffffffffffffffffffff1686600301548542604051610c579493929190612d55565b60405180910390a360055f8581526020019081526020015f205f8082015f6101000a81549073ffffffffffffffffffffffffffffffffffffffff0219169055600182015f6101000a81549073ffffffffffffffffffffffffffffffffffffffff0219169055600282015f6101000a81549073ffffffffffffffffffffffffffffffffffffffff0219169055600382015f9055600482015f9055600582015f9055600682015f9055600782015f6101000a81549060ff0219169055505050505050565b610d21611bf3565b610d2a5f611c7a565b565b60015481565b5f80610d3c611d4b565b9050805f015f9054906101000a900473ffffffffffffffffffffffffffffffffffffffff1691505090565b5f805f805f805f805f60055f8b81526020019081526020015f20604051806101000160405290815f82015f9054906101000a900473ffffffffffffffffffffffffffffffffffffffff1673ffffffffffffffffffffffffffffffffffffffff1673ffffffffffffffffffffffffffffffffffffffff168152602001600182015f9054906101000a900473ffffffffffffffffffffffffffffffffffffffff1673ffffffffffffffffffffffffffffffffffffffff1673ffffffffffffffffffffffffffffffffffffffff168152602001600282015f9054906101000a900473ffffffffffffffffffffffffffffffffffffffff1673ffffffffffffffffffffffffffffffffffffffff1673ffffffffffffffffffffffffffffffffffffffff16815260200160038201548152602001600482015481526020016005820154815260200160068201548152602001600782015f9054906101000a900460ff1615151515815250509050805f015181602001518260400151836060015184608001518560a001518660c001518760e001519850985098509850985098509850985050919395975091939597565b6040518060400160405280600581526020017f352e302e3000000000000000000000000000000000000000000000000000000081525081565b5f60055f8481526020019081526020015f2090503373ffffffffffffffffffffffffffffffffffffffff16815f015f9054906101000a900473ffffffffffffffffffffffffffffffffffffffff1673ffffffffffffffffffffffffffffffffffffffff1614610fef576040517f08c379a0000000000000000000000000000000000000000000000000000000008152600401610fe690612e08565b60405180910390fd5b5f8211611031576040517f08c379a000000000000000000000000000000000000000000000000000000000815260040161102890612e96565b60405180910390fd5b5f8061103f84600154611bb7565b915091505f836001015f9054906101000a900473ffffffffffffffffffffffffffffffffffffffff1690506110973330848473ffffffffffffffffffffffffffffffffffffffff16611d72909392919063ffffffff16565b6110c43330858473ffffffffffffffffffffffffffffffffffffffff16611d72909392919063ffffffff16565b5f6110ce8561199e565b905082856003015f8282546110e39190612bd2565b9250508190555080856004015f8282546110fd9190612bd2565b925050819055504285600601819055503373ffffffffffffffffffffffffffffffffffffffff16877f6c867f693c9c5b8cd5eef34e0e307505a7189dce0b3e73b8e94e09672c15455f876001015f9054906101000a900473ffffffffffffffffffffffffffffffffffffffff16864260405161117b93929190612eb4565b60405180910390a350505050505050565b5f8060035f8773ffffffffffffffffffffffffffffffffffffffff1673ffffffffffffffffffffffffffffffffffffffff1681526020019081526020015f20540361120c576040517f08c379a000000000000000000000000000000000000000000000000000000000815260040161120390612f33565b60405180910390fd5b5f831161124e576040517f08c379a000000000000000000000000000000000000000000000000000000000815260040161124590612fc1565b60405180910390fd5b8373ffffffffffffffffffffffffffffffffffffffff165f8054906101000a900473ffffffffffffffffffffffffffffffffffffffff1673ffffffffffffffffffffffffffffffffffffffff1614806112d257508373ffffffffffffffffffffffffffffffffffffffff168573ffffffffffffffffffffffffffffffffffffffff16145b611311576040517f08c379a000000000000000000000000000000000000000000000000000000000815260040161130890613029565b60405180910390fd5b5f60035f8773ffffffffffffffffffffffffffffffffffffffff1673ffffffffffffffffffffffffffffffffffffffff1681526020019081526020015f205490505f8061136086600154611bb7565b915091505f8890506113953330848473ffffffffffffffffffffffffffffffffffffffff16611d72909392919063ffffffff16565b6113c23330858473ffffffffffffffffffffffffffffffffffffffff16611d72909392919063ffffffff16565b60025f81819054906101000a900475ffffffffffffffffffffffffffffffffffffffffffff16809291906113f590613068565b91906101000a81548175ffffffffffffffffffffffffffffffffffffffffffff021916908375ffffffffffffffffffffffffffffffffffffffffffff16021790555075ffffffffffffffffffffffffffffffffffffffffffff1694506040518061010001604052803373ffffffffffffffffffffffffffffffffffffffff1681526020018a73ffffffffffffffffffffffffffffffffffffffff1681526020018973ffffffffffffffffffffffffffffffffffffffff1681526020018381526020015f815260200185815260200142815260200187151581525060055f8781526020019081526020015f205f820151815f015f6101000a81548173ffffffffffffffffffffffffffffffffffffffff021916908373ffffffffffffffffffffffffffffffffffffffff1602179055506020820151816001015f6101000a81548173ffffffffffffffffffffffffffffffffffffffff021916908373ffffffffffffffffffffffffffffffffffffffff1602179055506040820151816002015f6101000a81548173ffffffffffffffffffffffffffffffffffffffff021916908373ffffffffffffffffffffffffffffffffffffffff160217905550606082015181600301556080820151816004015560a0820151816005015560c0820151816006015560e0820151816007015f6101000a81548160ff021916908315150217905550905050600160045f8b73ffffffffffffffffffffffffffffffffffffffff1673ffffffffffffffffffffffffffffffffffffffff1681526020019081526020015f205f8282546116479190612bd2565b925050819055503373ffffffffffffffffffffffffffffffffffffffff16857f8d6447383741d41c5d5c9183b2b6be0d6a8cc1f2b3f365aeacc2775251b077378b8b868b4260405161169d9594939291906130a5565b60405180910390a350505050949350505050565b6003602052805f5260405f205f915090505481565b6116ce611bf3565b5f73ffffffffffffffffffffffffffffffffffffffff168173ffffffffffffffffffffffffffffffffffffffff160361173e575f6040517f1e4fbdf70000000000000000000000000000000000000000000000000000000081526004016117359190612822565b60405180910390fd5b61174781611c7a565b50565b5f7ff0c57e16840df040f15088dc2f81fe391c3923bec73e23a9662efc9c229c6a00905090565b611779611df4565b61178281611e34565b50565b61178d611df4565b565b7f000000000000000000000000000000000000000000000000000000000000000073ffffffffffffffffffffffffffffffffffffffff163073ffffffffffffffffffffffffffffffffffffffff16148061183c57507f000000000000000000000000000000000000000000000000000000000000000073ffffffffffffffffffffffffffffffffffffffff16611823611eb8565b73ffffffffffffffffffffffffffffffffffffffff1614155b15611873576040517fe07c8dba00000000000000000000000000000000000000000000000000000000815260040160405180910390fd5b565b61187d611bf3565b50565b8173ffffffffffffffffffffffffffffffffffffffff166352d1902d6040518163ffffffff1660e01b8152600401602060405180830381865afa9250505080156118e857506040513d601f19601f820116820180604052508101906118e59190613120565b60015b61192957816040517f4c9c8ce30000000000000000000000000000000000000000000000000000000081526004016119209190612822565b60405180910390fd5b7f360894a13ba1a3210667c828492db98dca3e2076cc3735a920a3ca505d382bbc5f1b811461198f57806040517faa1d49a400000000000000000000000000000000000000000000000000000000815260040161198691906127a7565b60405180910390fd5b6119998383611f0b565b505050565b5f808260060154426119b09190612d22565b90505f61016d670de0b6b3a764000085600501546119ce919061314b565b6119d891906131b9565b9050836007015f9054906101000a900460ff1615611a6a575f846003015490505f5b6201518084611a0991906131b9565b811015611a4f575f68056bc75e2d631000008484611a27919061314b565b611a3191906131b9565b90508083611a3f9190612bd2565b92505080806001019150506119fa565b50846003015481611a609190612d22565b9350505050611aac565b68056bc75e2d631000006201518083838760030154611a89919061314b565b611a93919061314b565b611a9d91906131b9565b611aa791906131b9565b925050505b919050565b611b2b838473ffffffffffffffffffffffffffffffffffffffff1663a9059cbb8585604051602401611ae49291906131e9565b604051602081830303815290604052915060e01b6020820180517bffffffffffffffffffffffffffffffffffffffffffffffffffffffff8381831617835250505050611f7d565b505050565b7f000000000000000000000000000000000000000000000000000000000000000073ffffffffffffffffffffffffffffffffffffffff163073ffffffffffffffffffffffffffffffffffffffff1614611bb5576040517fe07c8dba00000000000000000000000000000000000000000000000000000000815260040160405180910390fd5b565b5f805f6127108486611bc9919061314b565b611bd391906131b9565b90505f8186611be29190612d22565b905081819350935050509250929050565b611bfb612018565b73ffffffffffffffffffffffffffffffffffffffff16611c19610d32565b73ffffffffffffffffffffffffffffffffffffffff1614611c7857611c3c612018565b6040517f118cdaa7000000000000000000000000000000000000000000000000000000008152600401611c6f9190612822565b60405180910390fd5b565b5f611c83611d4b565b90505f815f015f9054906101000a900473ffffffffffffffffffffffffffffffffffffffff16905082825f015f6101000a81548173ffffffffffffffffffffffffffffffffffffffff021916908373ffffffffffffffffffffffffffffffffffffffff1602179055508273ffffffffffffffffffffffffffffffffffffffff168173ffffffffffffffffffffffffffffffffffffffff167f8be0079c531659141344cd1fd0a4f28419497f9722a3daafe3b4186f6b6457e060405160405180910390a3505050565b5f7f9016d09d72d40fdae2fd8ceac6b6234c7706214fd39c1cd1e609a0528c199300905090565b611dee848573ffffffffffffffffffffffffffffffffffffffff166323b872dd868686604051602401611da793929190613210565b604051602081830303815290604052915060e01b6020820180517bffffffffffffffffffffffffffffffffffffffffffffffffffffffff8381831617835250505050611f7d565b50505050565b611dfc61201f565b611e32576040517fd7e6bcf800000000000000000000000000000000000000000000000000000000815260040160405180910390fd5b565b611e3c611df4565b5f73ffffffffffffffffffffffffffffffffffffffff168173ffffffffffffffffffffffffffffffffffffffff1603611eac575f6040517f1e4fbdf7000000000000000000000000000000000000000000000000000000008152600401611ea39190612822565b60405180910390fd5b611eb581611c7a565b50565b5f611ee47f360894a13ba1a3210667c828492db98dca3e2076cc3735a920a3ca505d382bbc5f1b61203d565b5f015f9054906101000a900473ffffffffffffffffffffffffffffffffffffffff16905090565b611f1482612046565b8173ffffffffffffffffffffffffffffffffffffffff167fbc7cd75a20ee27fd9adebab32041f755214dbc6bffa90cc0225b39da2e5c2d3b60405160405180910390a25f81511115611f7057611f6a828261210f565b50611f79565b611f7861218f565b5b5050565b5f8060205f8451602086015f885af180611f9c576040513d5f823e3d81fd5b3d92505f519150505f8214611fb5576001811415611fd0565b5f8473ffffffffffffffffffffffffffffffffffffffff163b145b1561201257836040517f5274afe70000000000000000000000000000000000000000000000000000000081526004016120099190612822565b60405180910390fd5b50505050565b5f33905090565b5f61202861174a565b5f0160089054906101000a900460ff16905090565b5f819050919050565b5f8173ffffffffffffffffffffffffffffffffffffffff163b036120a157806040517f4c9c8ce30000000000000000000000000000000000000000000000000000000081526004016120989190612822565b60405180910390fd5b806120cd7f360894a13ba1a3210667c828492db98dca3e2076cc3735a920a3ca505d382bbc5f1b61203d565b5f015f6101000a81548173ffffffffffffffffffffffffffffffffffffffff021916908373ffffffffffffffffffffffffffffffffffffffff16021790555050565b60605f808473ffffffffffffffffffffffffffffffffffffffff16846040516121389190613289565b5f60405180830381855af49150503d805f8114612170576040519150601f19603f3d011682016040523d82523d5f602084013e612175565b606091505b50915091506121858583836121cb565b9250505092915050565b5f3411156121c9576040517fb398979f00000000000000000000000000000000000000000000000000000000815260040160405180910390fd5b565b6060826121e0576121db82612258565b612250565b5f825114801561220657505f8473ffffffffffffffffffffffffffffffffffffffff163b145b1561224857836040517f9996b31500000000000000000000000000000000000000000000000000000000815260040161223f9190612822565b60405180910390fd5b819050612251565b5b9392505050565b5f8151111561226a5780518082602001fd5b6040517fd6bda27500000000000000000000000000000000000000000000000000000000815260040160405180910390fd5b5f73ffffffffffffffffffffffffffffffffffffffff82169050919050565b5f819050919050565b5f6122de6122d96122d48461229c565b6122bb565b61229c565b9050919050565b5f6122ef826122c4565b9050919050565b5f612300826122e5565b9050919050565b612310816122f6565b82525050565b5f6020820190506123295f830184612307565b92915050565b5f604051905090565b5f80fd5b5f80fd5b5f61234a8261229c565b9050919050565b61235a81612340565b8114612364575f80fd5b50565b5f8135905061237581612351565b92915050565b5f80fd5b5f601f19601f8301169050919050565b7f4e487b71000000000000000000000000000000000000000000000000000000005f52604160045260245ffd5b6123c58261237f565b810181811067ffffffffffffffff821117156123e4576123e361238f565b5b80604052505050565b5f6123f661232f565b905061240282826123bc565b919050565b5f67ffffffffffffffff8211156124215761242061238f565b5b602082029050602081019050919050565b5f80fd5b5f61244861244384612407565b6123ed565b9050808382526020820190506020840283018581111561246b5761246a612432565b5b835b8181101561249457806124808882612367565b84526020840193505060208101905061246d565b5050509392505050565b5f82601f8301126124b2576124b161237b565b5b81356124c2848260208601612436565b91505092915050565b5f67ffffffffffffffff8211156124e5576124e461238f565b5b602082029050602081019050919050565b5f819050919050565b612508816124f6565b8114612512575f80fd5b50565b5f81359050612523816124ff565b92915050565b5f61253b612536846124cb565b6123ed565b9050808382526020820190506020840283018581111561255e5761255d612432565b5b835b8181101561258757806125738882612515565b845260208401935050602081019050612560565b5050509392505050565b5f82601f8301126125a5576125a461237b565b5b81356125b5848260208601612529565b91505092915050565b5f805f80608085870312156125d6576125d5612338565b5b5f6125e387828801612367565b945050602085013567ffffffffffffffff8111156126045761260361233c565b5b6126108782880161249e565b935050604085013567ffffffffffffffff8111156126315761263061233c565b5b61263d87828801612591565b925050606061264e87828801612515565b91505092959194509250565b5f80fd5b5f67ffffffffffffffff8211156126785761267761238f565b5b6126818261237f565b9050602081019050919050565b828183375f83830152505050565b5f6126ae6126a98461265e565b6123ed565b9050828152602081018484840111156126ca576126c961265a565b5b6126d584828561268e565b509392505050565b5f82601f8301126126f1576126f061237b565b5b813561270184826020860161269c565b91505092915050565b5f80604083850312156127205761271f612338565b5b5f61272d85828601612367565b925050602083013567ffffffffffffffff81111561274e5761274d61233c565b5b61275a858286016126dd565b9150509250929050565b5f6020828403121561277957612778612338565b5b5f61278684828501612515565b91505092915050565b5f819050919050565b6127a18161278f565b82525050565b5f6020820190506127ba5f830184612798565b92915050565b5f602082840312156127d5576127d4612338565b5b5f6127e284828501612367565b91505092915050565b6127f4816124f6565b82525050565b5f60208201905061280d5f8301846127eb565b92915050565b61281c81612340565b82525050565b5f6020820190506128355f830184612813565b92915050565b5f8115159050919050565b61284f8161283b565b82525050565b5f610100820190506128695f83018b612813565b612876602083018a612813565b6128836040830189612813565b61289060608301886127eb565b61289d60808301876127eb565b6128aa60a08301866127eb565b6128b760c08301856127eb565b6128c460e0830184612846565b9998505050505050505050565b5f81519050919050565b5f82825260208201905092915050565b8281835e5f83830152505050565b5f612903826128d1565b61290d81856128db565b935061291d8185602086016128eb565b6129268161237f565b840191505092915050565b5f6020820190508181035f83015261294981846128f9565b905092915050565b5f806040838503121561296757612966612338565b5b5f61297485828601612515565b925050602061298585828601612515565b9150509250929050565b6129988161283b565b81146129a2575f80fd5b50565b5f813590506129b38161298f565b92915050565b5f805f80608085870312156129d1576129d0612338565b5b5f6129de87828801612367565b94505060206129ef87828801612367565b9350506040612a0087828801612515565b9250506060612a11878288016129a5565b91505092959194509250565b7f4d69736d61746368656420746f6b656e20616e6420415059206c656e677468735f82015250565b5f612a516020836128db565b9150612a5c82612a1d565b602082019050919050565b5f6020820190508181035f830152612a7e81612a45565b9050919050565b7f4e487b71000000000000000000000000000000000000000000000000000000005f52603260045260245ffd5b5f819050919050565b5f67ffffffffffffffff82169050919050565b5f612ae8612ae3612ade84612ab2565b6122bb565b612abb565b9050919050565b612af881612ace565b82525050565b5f602082019050612b115f830184612aef565b92915050565b7f596f7520617265206e6f7420746865206f776e6572206f66207468697320706f5f8201527f736974696f6e0000000000000000000000000000000000000000000000000000602082015250565b5f612b716026836128db565b9150612b7c82612b17565b604082019050919050565b5f6020820190508181035f830152612b9e81612b65565b9050919050565b7f4e487b71000000000000000000000000000000000000000000000000000000005f52601160045260245ffd5b5f612bdc826124f6565b9150612be7836124f6565b9250828201905080821115612bff57612bfe612ba5565b5b92915050565b5f604082019050612c185f8301856127eb565b612c2560208301846127eb565b9392505050565b7f596f7520617265206e6f7420746865206f776e6572206f66207468697320706f5f8201527f736974696f6e2100000000000000000000000000000000000000000000000000602082015250565b5f612c866027836128db565b9150612c9182612c2c565b604082019050919050565b5f6020820190508181035f830152612cb381612c7a565b9050919050565b7f4e6f207374616b6520616d6f756e7420746f20756e7374616b652e00000000005f82015250565b5f612cee601b836128db565b9150612cf982612cba565b602082019050919050565b5f6020820190508181035f830152612d1b81612ce2565b9050919050565b5f612d2c826124f6565b9150612d37836124f6565b9250828203905081811115612d4f57612d4e612ba5565b5b92915050565b5f608082019050612d685f830187612813565b612d7560208301866127eb565b612d8260408301856127eb565b612d8f60608301846127eb565b95945050505050565b7f4f6e6c79206f776e65722063616e20696e63726561736520746865207374616b5f8201527f656420616d6f756e742100000000000000000000000000000000000000000000602082015250565b5f612df2602a836128db565b9150612dfd82612d98565b604082019050919050565b5f6020820190508181035f830152612e1f81612de6565b9050919050565b7f496e63726561736520616d6f756e74206d7573742062652067726561746572205f8201527f7468616e207a65726f2e00000000000000000000000000000000000000000000602082015250565b5f612e80602a836128db565b9150612e8b82612e26565b604082019050919050565b5f6020820190508181035f830152612ead81612e74565b9050919050565b5f606082019050612ec75f830186612813565b612ed460208301856127eb565b612ee160408301846127eb565b949350505050565b7f546f6b656e206e6f7420737570706f7274656420666f72207374616b696e672e5f82015250565b5f612f1d6020836128db565b9150612f2882612ee9565b602082019050919050565b5f6020820190508181035f830152612f4a81612f11565b9050919050565b7f5374616b696e6720616d6f756e74206d757374206265206772656174657220745f8201527f68616e207a65726f2e0000000000000000000000000000000000000000000000602082015250565b5f612fab6029836128db565b9150612fb682612f51565b604082019050919050565b5f6020820190508181035f830152612fd881612f9f565b9050919050565b7f496e76616c69642072657761726420746f6b656e2e00000000000000000000005f82015250565b5f6130136015836128db565b915061301e82612fdf565b602082019050919050565b5f6020820190508181035f83015261304081613007565b9050919050565b5f75ffffffffffffffffffffffffffffffffffffffffffff82169050919050565b5f61307282613047565b915075ffffffffffffffffffffffffffffffffffffffffffff820361309a57613099612ba5565b5b600182019050919050565b5f60a0820190506130b85f830188612813565b6130c56020830187612813565b6130d260408301866127eb565b6130df6060830185612846565b6130ec60808301846127eb565b9695505050505050565b6130ff8161278f565b8114613109575f80fd5b50565b5f8151905061311a816130f6565b92915050565b5f6020828403121561313557613134612338565b5b5f6131428482850161310c565b91505092915050565b5f613155826124f6565b9150613160836124f6565b925082820261316e816124f6565b9150828204841483151761318557613184612ba5565b5b5092915050565b7f4e487b71000000000000000000000000000000000000000000000000000000005f52601260045260245ffd5b5f6131c3826124f6565b91506131ce836124f6565b9250826131de576131dd61318c565b5b828204905092915050565b5f6040820190506131fc5f830185612813565b61320960208301846127eb565b9392505050565b5f6060820190506132235f830186612813565b6132306020830185612813565b61323d60408301846127eb565b949350505050565b5f81519050919050565b5f81905092915050565b5f61326382613245565b61326d818561324f565b935061327d8185602086016128eb565b80840191505092915050565b5f6132948284613259565b91508190509291505056fea2646970667358221220fc339a316c382a607aebc18251a24761f548f59465ef30e4fa1293fdf0b4b69364736f6c634300081a0033","linkReferences":{}},"methodIdentifiers":{"UPGRADE_INTERFACE_VERSION()":"ad3cb1cc","feePercent()":"7fd6f15c","increaseStakeAmount(uint256,uint256)":"adbd3990","initialize(address,address[],uint256[],uint256)":"46448548","nexLabs()":"3c6d0b48","numberOfStakersByTokenAddress(address)":"548d3e67","owner()":"8da5cb5b","positions(uint256)":"99fbab88","proxiableUUID()":"52d1902d","renounceOwnership()":"715018a6","stake(address,address,uint256,bool)":"cc574658","tokensAPY(address)":"e80f1071","transferOwnership(address)":"f2fde38b","unStake(uint256)":"5d3eea91","upgradeToAndCall(address,bytes)":"4f1ef286","withdrawReward(uint256)":"523a3f08"},"storageLayout":{"storage":[{"astId":28,"contract":"contracts/NexStaging.sol:NexStaging","label":"nexLabs","offset":0,"slot":"0","type":"t_contract(IERC20)42009"},{"astId":30,"contract":"contracts/NexStaging.sol:NexStaging","label":"feePercent","offset":0,"slot":"1","type":"t_uint256"},{"astId":32,"contract":"contracts/NexStaging.sol:NexStaging","label":"_nextId","offset":0,"slot":"2","type":"t_uint176"},{"astId":54,"contract":"contracts/NexStaging.sol:NexStaging","label":"tokensAPY","offset":0,"slot":"3","type":"t_mapping(t_address,t_uint256)"},{"astId":58,"contract":"contracts/NexStaging.sol:NexStaging","label":"numberOfStakersByTokenAddress","offset":0,"slot":"4","type":"t_mapping(t_address,t_uint256)"},{"astId":63,"contract":"contracts/NexStaging.sol:NexStaging","label":"_positions","offset":0,"slot":"5","type":"t_mapping(t_uint256,t_struct(StakePositions)50_storage)"}],"types":{"t_address":{"encoding":"inplace","label":"address","numberOfBytes":"20"},"t_bool":{"encoding":"inplace","label":"bool","numberOfBytes":"1"},"t_contract(IERC20)42009":{"encoding":"inplace","label":"contract IERC20","numberOfBytes":"20"},"t_mapping(t_address,t_uint256)":{"encoding":"mapping","key":"t_address","label":"mapping(address => uint256)","numberOfBytes":"32","value":"t_uint256"},"t_mapping(t_uint256,t_struct(StakePositions)50_storage)":{"encoding":"mapping","key":"t_uint256","label":"mapping(uint256 => struct NexStaging.StakePositions)","numberOfBytes":"32","value":"t_struct(StakePositions)50_storage"},"t_struct(StakePositions)50_storage":{"encoding":"inplace","label":"struct NexStaging.StakePositions","numberOfBytes":"256","members":[{"astId":35,"contract":"contracts/NexStaging.sol:NexStaging","label":"owner","offset":0,"slot":"0","type":"t_address"},{"astId":37,"contract":"contracts/NexStaging.sol:NexStaging","label":"stakeToken","offset":0,"slot":"1","type":"t_address"},{"astId":39,"contract":"contracts/NexStaging.sol:NexStaging","label":"rewardToken","offset":0,"slot":"2","type":"t_address"},{"astId":41,"contract":"contracts/NexStaging.sol:NexStaging","label":"stakeAmount","offset":0,"slot":"3","type":"t_uint256"},{"astId":43,"contract":"contracts/NexStaging.sol:NexStaging","label":"rewardEarned","offset":0,"slot":"4","type":"t_uint256"},{"astId":45,"contract":"contracts/NexStaging.sol:NexStaging","label":"apy","offset":0,"slot":"5","type":"t_uint256"},{"astId":47,"contract":"contracts/NexStaging.sol:NexStaging","label":"startTime","offset":0,"slot":"6","type":"t_uint256"},{"astId":49,"contract":"contracts/NexStaging.sol:NexStaging","label":"autoCompound","offset":0,"slot":"7","type":"t_bool"}]},"t_uint176":{"encoding":"inplace","label":"uint176","numberOfBytes":"22"},"t_uint256":{"encoding":"inplace","label":"uint256","numberOfBytes":"32"}}},"id":0}