{"abi":[{"type":"fallback","stateMutability":"payable"},{"type":"receive","stateMutability":"payable"},{"type":"function","name":"feePercent","inputs":[],"outputs":[{"name":"","type":"uint256","internalType":"uint256"}],"stateMutability":"view"},{"type":"function","name":"initialize","inputs":[{"name":"_nexLabsAddress","type":"address","internalType":"address"},{"name":"_tokenAddresses","type":"address[]","internalType":"address[]"},{"name":"_indexTokens","type":"address[]","internalType":"address[]"},{"name":"_feePercent","type":"uint256","internalType":"uint256"},{"name":"_erc4626Factory","type":"address","internalType":"address"},{"name":"_uniswapRouter","type":"address","internalType":"address"}],"outputs":[],"stateMutability":"nonpayable"},{"type":"function","name":"nexLabsToken","inputs":[],"outputs":[{"name":"","type":"address","internalType":"contract IERC20"}],"stateMutability":"view"},{"type":"function","name":"numberOfStakersByTokenAddress","inputs":[{"name":"","type":"address","internalType":"address"}],"outputs":[{"name":"","type":"uint256","internalType":"uint256"}],"stateMutability":"view"},{"type":"function","name":"owner","inputs":[],"outputs":[{"name":"","type":"address","internalType":"address"}],"stateMutability":"view"},{"type":"function","name":"poolTokens","inputs":[{"name":"","type":"uint256","internalType":"uint256"}],"outputs":[{"name":"","type":"address","internalType":"address"}],"stateMutability":"view"},{"type":"function","name":"pools","inputs":[{"name":"","type":"address","internalType":"address"}],"outputs":[{"name":"vault","type":"address","internalType":"address"},{"name":"indexToken","type":"address","internalType":"contract IERC20"},{"name":"totalStaked","type":"uint256","internalType":"uint256"},{"name":"totalSupply","type":"uint256","internalType":"uint256"}],"stateMutability":"view"},{"type":"function","name":"positions","inputs":[{"name":"positionId","type":"uint256","internalType":"uint256"}],"outputs":[{"name":"positionOwner","type":"address","internalType":"address"},{"name":"stakeToken","type":"address","internalType":"address"},{"name":"vault","type":"address","internalType":"address"},{"name":"stakeAmount","type":"uint256","internalType":"uint256"},{"name":"shares","type":"uint256","internalType":"uint256"},{"name":"startTime","type":"uint256","internalType":"uint256"}],"stateMutability":"view"},{"type":"function","name":"qouterV2","inputs":[],"outputs":[{"name":"","type":"address","internalType":"contract IQuoterV2"}],"stateMutability":"view"},{"type":"function","name":"renounceOwnership","inputs":[],"outputs":[],"stateMutability":"nonpayable"},{"type":"function","name":"shareHolder","inputs":[{"name":"","type":"address","internalType":"address"}],"outputs":[{"name":"","type":"uint256","internalType":"uint256"}],"stateMutability":"view"},{"type":"function","name":"stake","inputs":[{"name":"tokenAddress","type":"address","internalType":"address"},{"name":"amount","type":"uint256","internalType":"uint256"}],"outputs":[{"name":"positionId","type":"uint256","internalType":"uint256"}],"stateMutability":"nonpayable"},{"type":"function","name":"transferOwnership","inputs":[{"name":"newOwner","type":"address","internalType":"address"}],"outputs":[],"stateMutability":"nonpayable"},{"type":"function","name":"uniswapRouter","inputs":[],"outputs":[{"name":"","type":"address","internalType":"contract ISwapRouter"}],"stateMutability":"view"},{"type":"function","name":"unstake","inputs":[{"name":"positionId","type":"uint256","internalType":"uint256"},{"name":"rewardToken","type":"address","internalType":"address"},{"name":"receiver","type":"address","internalType":"address"}],"outputs":[],"stateMutability":"nonpayable"},{"type":"function","name":"weth","inputs":[],"outputs":[{"name":"","type":"address","internalType":"contract IWETH9"}],"stateMutability":"view"},{"type":"event","name":"Initialized","inputs":[{"name":"version","type":"uint64","indexed":false,"internalType":"uint64"}],"anonymous":false},{"type":"event","name":"OwnershipTransferred","inputs":[{"name":"previousOwner","type":"address","indexed":true,"internalType":"address"},{"name":"newOwner","type":"address","indexed":true,"internalType":"address"}],"anonymous":false},{"type":"event","name":"RewardsDistributed","inputs":[{"name":"tokenAddress","type":"address","indexed":true,"internalType":"address"},{"name":"amount","type":"uint256","indexed":false,"internalType":"uint256"},{"name":"timestamp","type":"uint256","indexed":false,"internalType":"uint256"}],"anonymous":false},{"type":"event","name":"Staked","inputs":[{"name":"positionId","type":"uint256","indexed":true,"internalType":"uint256"},{"name":"user","type":"address","indexed":true,"internalType":"address"},{"name":"tokenAddress","type":"address","indexed":true,"internalType":"address"},{"name":"vault","type":"address","indexed":false,"internalType":"address"},{"name":"amount","type":"uint256","indexed":false,"internalType":"uint256"},{"name":"shares","type":"uint256","indexed":false,"internalType":"uint256"},{"name":"timestamp","type":"uint256","indexed":false,"internalType":"uint256"}],"anonymous":false},{"type":"event","name":"Unstaked","inputs":[{"name":"positionId","type":"uint256","indexed":true,"internalType":"uint256"},{"name":"user","type":"address","indexed":true,"internalType":"address"},{"name":"tokenAddress","type":"address","indexed":true,"internalType":"address"},{"name":"vault","type":"address","indexed":false,"internalType":"address"},{"name":"amount","type":"uint256","indexed":false,"internalType":"uint256"},{"name":"shares","type":"uint256","indexed":false,"internalType":"uint256"},{"name":"timestamp","type":"uint256","indexed":false,"internalType":"uint256"}],"anonymous":false},{"type":"error","name":"InvalidInitialization","inputs":[]},{"type":"error","name":"NotInitializing","inputs":[]},{"type":"error","name":"OwnableInvalidOwner","inputs":[{"name":"owner","type":"address","internalType":"address"}]},{"type":"error","name":"OwnableUnauthorizedAccount","inputs":[{"name":"account","type":"address","internalType":"address"}]},{"type":"error","name":"SafeERC20FailedOperation","inputs":[{"name":"token","type":"address","internalType":"address"}]}],"bytecode":{"object":"0x6080604052348015600e575f80fd5b50611a708061001c5f395ff3fe6080604052600436106100f6575f3560e01c80637fd6f15c11610089578063adc9772e11610058578063adc9772e1461044f578063dced1a5a1461046e578063f071f4fd1461048d578063f2fde38b146104b85761015e565b80637fd6f15c146102e15780638da5cb5b146102f657806399fbab881461030a578063a4063dbc146103d75761015e565b80635d15ac91116100c55780635d15ac91146102705780635d43361a1461028f578063715018a6146102ae578063735de9f7146102c25761015e565b8063373ee31d146101bd5780633fc8cef3146101dc5780634f5aa4c214610218578063548d3e67146102375761015e565b3661015e5761015c600580548060200260200160405190810160405280929190818152602001828054801561015257602002820191905f5260205f20905b81546001600160a01b03168152600190910190602001808311610134575b50505050506104d7565b005b61015c600580548060200260200160405190810160405280929190818152602001828054801561015257602002820191905f5260205f209081546001600160a01b031681526001909101906020018083116101345750505050506104d7565b3480156101c8575f80fd5b5061015c6101d73660046117a9565b61067a565b3480156101e7575f80fd5b506003546101fb906001600160a01b031681565b6040516001600160a01b0390911681526020015b60405180910390f35b348015610223575f80fd5b5061015c61023236600461184e565b610b15565b348015610242575f80fd5b5061026261025136600461188d565b600a6020525f908152604090205481565b60405190815260200161020f565b34801561027b575f80fd5b506004546101fb906001600160a01b031681565b34801561029a575f80fd5b506002546101fb906001600160a01b031681565b3480156102b9575f80fd5b5061015c610e55565b3480156102cd575f80fd5b506001546101fb906001600160a01b031681565b3480156102ec575f80fd5b5061026260065481565b348015610301575f80fd5b506101fb610e68565b348015610315575f80fd5b506103996103243660046118af565b5f90815260096020908152604091829020825160c08101845281546001600160a01b0390811680835260018401548216948301859052600284015490911694820185905260038301546060830181905260048401546080840181905260059094015460a0909301839052909593949390929190565b604080516001600160a01b039788168152958716602087015293909516928401929092526060830152608082015260a081019190915260c00161020f565b3480156103e2575f80fd5b506104246103f136600461188d565b60086020525f908152604090208054600182015460028301546003909301546001600160a01b0392831693919092169184565b604080516001600160a01b03958616815294909316602085015291830152606082015260800161020f565b34801561045a575f80fd5b506102626104693660046118c6565b610e96565b348015610479575f80fd5b506101fb6104883660046118af565b611201565b348015610498575f80fd5b506102626104a736600461188d565b600b6020525f908152604090205481565b3480156104c3575f80fd5b5061015c6104d236600461188d565b611229565b5f6104e0611266565b90505f5b8251811015610675575f60085f858481518110610503576105036118f0565b60200260200101516001600160a01b03166001600160a01b031681526020019081526020015f2090505f83838151811061053f5761053f6118f0565b60209081029190910101516003546040516370a0823160e01b81523060048201526001600160a01b03909116906370a0823190602401602060405180830381865afa158015610590573d5f803e3d5ffd5b505050506040513d601f19601f820116820180604052508101906105b49190611904565b6105be919061192f565b60018054600354918501549293505f926105e9926001600160a01b03928316929081169116856113a4565b905080836002015f8282546105fe919061194c565b92505081905550858481518110610617576106176118f0565b60200260200101516001600160a01b03167fe4e801442ed461792c0bdfa7f5c25444d391d67d68422437bd9005796c67cb238242604051610662929190918252602082015260400190565b60405180910390a25050506001016104e4565b505050565b7ff0c57e16840df040f15088dc2f81fe391c3923bec73e23a9662efc9c229c6a008054600160401b810460ff16159067ffffffffffffffff165f811580156106bf5750825b90505f8267ffffffffffffffff1660011480156106db5750303b155b9050811580156106e9575080155b156107075760405163f92ee8a960e01b815260040160405180910390fd5b845467ffffffffffffffff19166001178555831561073157845460ff60401b1916600160401b1785555b61073a33611492565b6001600160a01b038b166107a15760405162461bcd60e51b815260206004820152602360248201527f496e76616c6964206164647265737320666f72205f6e65784c6162734164647260448201526265737360e81b60648201526084015b60405180910390fd5b6001600160a01b0387166108035760405162461bcd60e51b815260206004820152602360248201527f496e76616c6964206164647265737320666f72205f65726334363236466163746044820152626f727960e81b6064820152608401610798565b6001600160a01b0386166108645760405162461bcd60e51b815260206004820152602260248201527f496e76616c6964206164647265737320666f72205f756e6973776170526f757460448201526132b960f11b6064820152608401610798565b88518a51146108c35760405162461bcd60e51b815260206004820152602560248201527f546f6b656e20616e6420696e64657820746f6b656e206c656e677468206d69736044820152640dac2e8c6d60db1b6064820152608401610798565b865f806101000a8154816001600160a01b0302191690836001600160a01b031602179055508560015f6101000a8154816001600160a01b0302191690836001600160a01b031602179055508a60045f6101000a8154816001600160a01b0302191690836001600160a01b031602179055508760068190555060016007819055505f5b8a51811015610ac1575f80548c516001600160a01b03909116906381122b84908e9085908110610977576109776118f0565b60200260200101516040518263ffffffff1660e01b81526004016109aa91906001600160a01b0391909116815260200190565b6020604051808303815f875af11580156109c6573d5f803e3d5ffd5b505050506040513d601f19601f820116820180604052508101906109ea919061195f565b90506040518060800160405280826001600160a01b031681526020018d8481518110610a1857610a186118f0565b60200260200101516001600160a01b031681526020015f81526020015f81525060085f8e8581518110610a4d57610a4d6118f0565b6020908102919091018101516001600160a01b0390811683528282019390935260409182015f20845181549085166001600160a01b03199182161782559185015160018083018054929096169190931617909355908301516002830155606090920151600390910155919091019050610945565b508315610b0857845460ff60401b19168555604051600181527fc7f505b2f371ae2175ee4913f4499e1f2633a7b5936321eed1cdaeb6115181d29060200160405180910390a15b5050505050505050505050565b5f83815260096020526040902080546001600160a01b03163314610b8b5760405162461bcd60e51b815260206004820152602760248201527f596f7520617265206e6f7420746865206f776e6572206f66207468697320706f60448201526639b4ba34b7b71760c91b6064820152608401610798565b5f816003015411610bde5760405162461bcd60e51b815260206004820152601b60248201527f4e6f207374616b6520616d6f756e7420746f20756e7374616b652e00000000006044820152606401610798565b60018101546001600160a01b03165f90815260086020526040812060038301546006549192918291610c0f916114a3565b8454600487810154604051632d182be560e21b8152918201526001600160a01b038981166024830152336044830152939550919350919091169063b460af94906064016020604051808303815f875af1158015610c6e573d5f803e3d5ffd5b505050506040513d601f19601f82011682018060405250810190610c929190611904565b5060018401546001600160a01b0390811690871603610ce9576001830154610cc4906001600160a01b031633836114d1565b610ce4610ccf610e68565b60018501546001600160a01b031690846114d1565b610d5b565b600180549085015460038601545f92610d12926001600160a01b03918216929116908a906113a4565b90505f80610d22836006546114a3565b9092509050610d3b6001600160a01b038a1633836114d1565b610d57610d46610e68565b6001600160a01b038b1690846114d1565b5050505b6001840154835460038601546004870154604080516001600160a01b0394851681526020810193909352820152426060820152911690339089907f48d6ef2d69851719de58c2636e4c6ff5d38f62766e0c8cf6cec14be151611f159060800160405180910390a48360030154836002015f828254610dd9919061197a565b90915550506004840154335f908152600b602052604081208054909190610e0190849061197a565b9091555050505f9586525050600960205250506040822080546001600160a01b0319908116825560018201805482169055600282018054909116905560038101839055600481018390556005019190915550565b610e5d611530565b610e665f611562565b565b7f9016d09d72d40fdae2fd8ceac6b6234c7706214fd39c1cd1e609a0528c199300546001600160a01b031690565b5f6001600160a01b038316610eed5760405162461bcd60e51b815260206004820181905260248201527f546f6b656e206e6f7420737570706f7274656420666f72207374616b696e672e6044820152606401610798565b5f8211610f4e5760405162461bcd60e51b815260206004820152602960248201527f5374616b696e6720616d6f756e74206d757374206265206772656174657220746044820152683430b7103d32b9379760b91b6064820152608401610798565b6001600160a01b038084165f9081526008602052604090208054909116610fb75760405162461bcd60e51b815260206004820152601960248201527f506f6f6c206e6f7420666f756e6420666f7220746f6b656e2e000000000000006044820152606401610798565b5f80610fc5856006546114a3565b909250905085610fe06001600160a01b0382163330856115d2565b610ffe33610fec610e68565b6001600160a01b0384169190866115d2565b83546040516394bf804d60e01b8152600481018490523360248201526001600160a01b03909116906394bf804d906044016020604051808303815f875af115801561104b573d5f803e3d5ffd5b505050506040513d601f19601f8201168201806040525081019061106f9190611904565b506007805483915f6110808361198d565b909155506040805160c081018252338082526001600160a01b038c811660208085018281525f92835260088252868320548416868801908152606087018c8152608088018b81524260a08a019081528b8752600986528a872099518a549089166001600160a01b0319918216178b55945160018b018054918a16918716919091179055925160028a01805491909816941693909317909555935160038701555160048601559151600590940193909355908252600b90529081208054929850839290919061114f90849061194c565b9250508190555082856002015f828254611169919061194c565b90915550506001600160a01b0388165f908152600a6020526040812080546001929061119690849061194c565b90915550508454604080516001600160a01b0392831681526020810186905290810183905242606082015290891690339088907f722cb9cda4bfb3cf33eec057c052c1cc3c3ded6b612f5f983349038e53572f899060800160405180910390a4505050505092915050565b60058181548110611210575f80fd5b5f918252602090912001546001600160a01b0316905081565b611231611530565b6001600160a01b03811661125a57604051631e4fbdf760e01b81525f6004820152602401610798565b61126381611562565b50565b60605f8060058054905067ffffffffffffffff811115611288576112886116f2565b6040519080825280602002602001820160405280156112b1578160200160208202803683370190505b5090505f5b6005548110156113115760085f600583815481106112d6576112d66118f0565b5f9182526020808320909101546001600160a01b03168352820192909252604001902060020154611307908461194c565b92506001016112b6565b505f5b60055481101561139d578260085f60058481548110611335576113356118f0565b5f9182526020808320909101546001600160a01b0316835282019290925260400190206002015461136e90670de0b6b3a764000061192f565b61137891906119a5565b82828151811061138a5761138a6118f0565b6020908102919091010152600101611314565b5092915050565b5f80604051806101000160405280866001600160a01b03168152602001856001600160a01b03168152602001610bb862ffffff168152602001306001600160a01b031681526020014261012c6113fa919061194c565b81526020018481526020015f81526020015f6001600160a01b031681525090505f866001600160a01b031663414bf389836040518263ffffffff1660e01b815260040161144791906119c4565b6020604051808303815f875af1158015611463573d5f803e3d5ffd5b505050506040513d601f19601f820116820180604052508101906114879190611904565b979650505050505050565b61149a611611565b6112638161165a565b5f806127106114b2848661192f565b6114bc91906119a5565b91506114c8828561197a565b90509250929050565b6040516001600160a01b0383811660248301526044820183905261067591859182169063a9059cbb906064015b604051602081830303815290604052915060e01b6020820180516001600160e01b038381831617835250505050611662565b33611539610e68565b6001600160a01b031614610e665760405163118cdaa760e01b8152336004820152602401610798565b7f9016d09d72d40fdae2fd8ceac6b6234c7706214fd39c1cd1e609a0528c19930080546001600160a01b031981166001600160a01b03848116918217845560405192169182907f8be0079c531659141344cd1fd0a4f28419497f9722a3daafe3b4186f6b6457e0905f90a3505050565b6040516001600160a01b03848116602483015283811660448301526064820183905261160b9186918216906323b872dd906084016114fe565b50505050565b7ff0c57e16840df040f15088dc2f81fe391c3923bec73e23a9662efc9c229c6a0054600160401b900460ff16610e6657604051631afcd79f60e31b815260040160405180910390fd5b611231611611565b5f8060205f8451602086015f885af180611681576040513d5f823e3d81fd5b50505f513d915081156116985780600114156116a5565b6001600160a01b0384163b155b1561160b57604051635274afe760e01b81526001600160a01b0385166004820152602401610798565b6001600160a01b0381168114611263575f80fd5b80356116ed816116ce565b919050565b634e487b7160e01b5f52604160045260245ffd5b5f82601f830112611715575f80fd5b813567ffffffffffffffff81111561172f5761172f6116f2565b8060051b604051601f19603f830116810181811067ffffffffffffffff8211171561175c5761175c6116f2565b604052918252602081850181019290810186841115611779575f80fd5b6020860192505b8383101561179f57611791836116e2565b815260209283019201611780565b5095945050505050565b5f805f805f8060c087890312156117be575f80fd5b86356117c9816116ce565b9550602087013567ffffffffffffffff8111156117e4575f80fd5b6117f089828a01611706565b955050604087013567ffffffffffffffff81111561180c575f80fd5b61181889828a01611706565b945050606087013592506080870135611830816116ce565b915060a0870135611840816116ce565b809150509295509295509295565b5f805f60608486031215611860575f80fd5b833592506020840135611872816116ce565b91506040840135611882816116ce565b809150509250925092565b5f6020828403121561189d575f80fd5b81356118a8816116ce565b9392505050565b5f602082840312156118bf575f80fd5b5035919050565b5f80604083850312156118d7575f80fd5b82356118e2816116ce565b946020939093013593505050565b634e487b7160e01b5f52603260045260245ffd5b5f60208284031215611914575f80fd5b5051919050565b634e487b7160e01b5f52601160045260245ffd5b80820281158282048414176119465761194661191b565b92915050565b808201808211156119465761194661191b565b5f6020828403121561196f575f80fd5b81516118a8816116ce565b818103818111156119465761194661191b565b5f6001820161199e5761199e61191b565b5060010190565b5f826119bf57634e487b7160e01b5f52601260045260245ffd5b500490565b81516001600160a01b03908116825260208084015182169083015260408084015162ffffff169083015260608084015191821690830152610100820190506080830151608083015260a083015160a083015260c083015160c083015260e083015161139d60e08401826001600160a01b0316905256fea26469706673582212209882f67f96e7efc8f904e649440c17d48e9df452e8c0af9d3fe2f33d5c1afe6a64736f6c634300081a0033","linkReferences":{}},"methodIdentifiers":{"feePercent()":"7fd6f15c","initialize(address,address[],address[],uint256,address,address)":"373ee31d","nexLabsToken()":"5d15ac91","numberOfStakersByTokenAddress(address)":"548d3e67","owner()":"8da5cb5b","poolTokens(uint256)":"dced1a5a","pools(address)":"a4063dbc","positions(uint256)":"99fbab88","qouterV2()":"5d43361a","renounceOwnership()":"715018a6","shareHolder(address)":"f071f4fd","stake(address,uint256)":"adc9772e","transferOwnership(address)":"f2fde38b","uniswapRouter()":"735de9f7","unstake(uint256,address,address)":"4f5aa4c2","weth()":"3fc8cef3"},"storageLayout":{"storage":[{"astId":268,"contract":"contracts/NexStaging.sol:NexStaging","label":"erc4626Factory","offset":0,"slot":"0","type":"t_contract(ERC4626Factory)1145"},{"astId":271,"contract":"contracts/NexStaging.sol:NexStaging","label":"uniswapRouter","offset":0,"slot":"1","type":"t_contract(ISwapRouter)7927"},{"astId":274,"contract":"contracts/NexStaging.sol:NexStaging","label":"qouterV2","offset":0,"slot":"2","type":"t_contract(IQuoterV2)7827"},{"astId":277,"contract":"contracts/NexStaging.sol:NexStaging","label":"weth","offset":0,"slot":"3","type":"t_contract(IWETH9)1191"},{"astId":280,"contract":"contracts/NexStaging.sol:NexStaging","label":"nexLabsToken","offset":0,"slot":"4","type":"t_contract(IERC20)2852"},{"astId":283,"contract":"contracts/NexStaging.sol:NexStaging","label":"poolTokens","offset":0,"slot":"5","type":"t_array(t_address)dyn_storage"},{"astId":285,"contract":"contracts/NexStaging.sol:NexStaging","label":"feePercent","offset":0,"slot":"6","type":"t_uint256"},{"astId":287,"contract":"contracts/NexStaging.sol:NexStaging","label":"_nextId","offset":0,"slot":"7","type":"t_uint256"},{"astId":315,"contract":"contracts/NexStaging.sol:NexStaging","label":"pools","offset":0,"slot":"8","type":"t_mapping(t_address,t_struct(Pools)297_storage)"},{"astId":320,"contract":"contracts/NexStaging.sol:NexStaging","label":"_positions","offset":0,"slot":"9","type":"t_mapping(t_uint256,t_struct(StakePositions)310_storage)"},{"astId":324,"contract":"contracts/NexStaging.sol:NexStaging","label":"numberOfStakersByTokenAddress","offset":0,"slot":"10","type":"t_mapping(t_address,t_uint256)"},{"astId":328,"contract":"contracts/NexStaging.sol:NexStaging","label":"shareHolder","offset":0,"slot":"11","type":"t_mapping(t_address,t_uint256)"}],"types":{"t_address":{"encoding":"inplace","label":"address","numberOfBytes":"20"},"t_array(t_address)dyn_storage":{"encoding":"dynamic_array","label":"address[]","numberOfBytes":"32","base":"t_address"},"t_contract(ERC4626Factory)1145":{"encoding":"inplace","label":"contract ERC4626Factory","numberOfBytes":"20"},"t_contract(IERC20)2852":{"encoding":"inplace","label":"contract IERC20","numberOfBytes":"20"},"t_contract(IQuoterV2)7827":{"encoding":"inplace","label":"contract IQuoterV2","numberOfBytes":"20"},"t_contract(ISwapRouter)7927":{"encoding":"inplace","label":"contract ISwapRouter","numberOfBytes":"20"},"t_contract(IWETH9)1191":{"encoding":"inplace","label":"contract IWETH9","numberOfBytes":"20"},"t_mapping(t_address,t_struct(Pools)297_storage)":{"encoding":"mapping","key":"t_address","label":"mapping(address => struct NexStaging.Pools)","numberOfBytes":"32","value":"t_struct(Pools)297_storage"},"t_mapping(t_address,t_uint256)":{"encoding":"mapping","key":"t_address","label":"mapping(address => uint256)","numberOfBytes":"32","value":"t_uint256"},"t_mapping(t_uint256,t_struct(StakePositions)310_storage)":{"encoding":"mapping","key":"t_uint256","label":"mapping(uint256 => struct NexStaging.StakePositions)","numberOfBytes":"32","value":"t_struct(StakePositions)310_storage"},"t_struct(Pools)297_storage":{"encoding":"inplace","label":"struct NexStaging.Pools","numberOfBytes":"128","members":[{"astId":289,"contract":"contracts/NexStaging.sol:NexStaging","label":"vault","offset":0,"slot":"0","type":"t_address"},{"astId":292,"contract":"contracts/NexStaging.sol:NexStaging","label":"indexToken","offset":0,"slot":"1","type":"t_contract(IERC20)2852"},{"astId":294,"contract":"contracts/NexStaging.sol:NexStaging","label":"totalStaked","offset":0,"slot":"2","type":"t_uint256"},{"astId":296,"contract":"contracts/NexStaging.sol:NexStaging","label":"totalSupply","offset":0,"slot":"3","type":"t_uint256"}]},"t_struct(StakePositions)310_storage":{"encoding":"inplace","label":"struct NexStaging.StakePositions","numberOfBytes":"192","members":[{"astId":299,"contract":"contracts/NexStaging.sol:NexStaging","label":"owner","offset":0,"slot":"0","type":"t_address"},{"astId":301,"contract":"contracts/NexStaging.sol:NexStaging","label":"stakeToken","offset":0,"slot":"1","type":"t_address"},{"astId":303,"contract":"contracts/NexStaging.sol:NexStaging","label":"vault","offset":0,"slot":"2","type":"t_address"},{"astId":305,"contract":"contracts/NexStaging.sol:NexStaging","label":"stakeAmount","offset":0,"slot":"3","type":"t_uint256"},{"astId":307,"contract":"contracts/NexStaging.sol:NexStaging","label":"shares","offset":0,"slot":"4","type":"t_uint256"},{"astId":309,"contract":"contracts/NexStaging.sol:NexStaging","label":"startTime","offset":0,"slot":"5","type":"t_uint256"}]},"t_uint256":{"encoding":"inplace","label":"uint256","numberOfBytes":"32"}}},"id":1}