{"abi":[{"type":"fallback","stateMutability":"payable"},{"type":"receive","stateMutability":"payable"},{"type":"function","name":"feePercent","inputs":[],"outputs":[{"name":"","type":"uint256","internalType":"uint256"}],"stateMutability":"view"},{"type":"function","name":"initialize","inputs":[{"name":"_nexLabsAddress","type":"address","internalType":"address"},{"name":"_tokenAddresses","type":"address[]","internalType":"address[]"},{"name":"_indexTokens","type":"address[]","internalType":"address[]"},{"name":"_feePercent","type":"uint256","internalType":"uint256"},{"name":"_erc4626Factory","type":"address","internalType":"address"},{"name":"_uniswapRouter","type":"address","internalType":"address"}],"outputs":[],"stateMutability":"nonpayable"},{"type":"function","name":"nexLabsToken","inputs":[],"outputs":[{"name":"","type":"address","internalType":"contract IERC20"}],"stateMutability":"view"},{"type":"function","name":"numberOfStakersByTokenAddress","inputs":[{"name":"","type":"address","internalType":"address"}],"outputs":[{"name":"","type":"uint256","internalType":"uint256"}],"stateMutability":"view"},{"type":"function","name":"owner","inputs":[],"outputs":[{"name":"","type":"address","internalType":"address"}],"stateMutability":"view"},{"type":"function","name":"poolTokens","inputs":[{"name":"","type":"uint256","internalType":"uint256"}],"outputs":[{"name":"","type":"address","internalType":"address"}],"stateMutability":"view"},{"type":"function","name":"pools","inputs":[{"name":"","type":"address","internalType":"address"}],"outputs":[{"name":"vault","type":"address","internalType":"address"},{"name":"indexToken","type":"address","internalType":"contract IERC20"},{"name":"totalStaked","type":"uint256","internalType":"uint256"}],"stateMutability":"view"},{"type":"function","name":"positions","inputs":[{"name":"positionId","type":"uint256","internalType":"uint256"}],"outputs":[{"name":"positionOwner","type":"address","internalType":"address"},{"name":"stakeToken","type":"address","internalType":"address"},{"name":"vault","type":"address","internalType":"address"},{"name":"stakeAmount","type":"uint256","internalType":"uint256"},{"name":"shares","type":"uint256","internalType":"uint256"},{"name":"startTime","type":"uint256","internalType":"uint256"}],"stateMutability":"view"},{"type":"function","name":"qouter","inputs":[{"name":"tokenIn","type":"address","internalType":"address"},{"name":"tokenOut","type":"address","internalType":"address"},{"name":"amount","type":"uint256","internalType":"uint256"},{"name":"fee","type":"uint24","internalType":"uint24"}],"outputs":[{"name":"amountOut","type":"uint256","internalType":"uint256"}],"stateMutability":"nonpayable"},{"type":"function","name":"qouterV2","inputs":[],"outputs":[{"name":"","type":"address","internalType":"contract IQuoterV2"}],"stateMutability":"view"},{"type":"function","name":"renounceOwnership","inputs":[],"outputs":[],"stateMutability":"nonpayable"},{"type":"function","name":"shareHolder","inputs":[{"name":"","type":"address","internalType":"address"}],"outputs":[{"name":"","type":"uint256","internalType":"uint256"}],"stateMutability":"view"},{"type":"function","name":"stake","inputs":[{"name":"tokenAddress","type":"address","internalType":"address"},{"name":"amount","type":"uint256","internalType":"uint256"}],"outputs":[{"name":"positionId","type":"uint256","internalType":"uint256"}],"stateMutability":"nonpayable"},{"type":"function","name":"transferOwnership","inputs":[{"name":"newOwner","type":"address","internalType":"address"}],"outputs":[],"stateMutability":"nonpayable"},{"type":"function","name":"uniswapRouter","inputs":[],"outputs":[{"name":"","type":"address","internalType":"contract ISwapRouter"}],"stateMutability":"view"},{"type":"function","name":"unstake","inputs":[{"name":"positionId","type":"uint256","internalType":"uint256"},{"name":"rewardToken","type":"address","internalType":"address"},{"name":"receiver","type":"address","internalType":"address"}],"outputs":[],"stateMutability":"nonpayable"},{"type":"event","name":"Initialized","inputs":[{"name":"version","type":"uint64","indexed":false,"internalType":"uint64"}],"anonymous":false},{"type":"event","name":"OwnershipTransferred","inputs":[{"name":"previousOwner","type":"address","indexed":true,"internalType":"address"},{"name":"newOwner","type":"address","indexed":true,"internalType":"address"}],"anonymous":false},{"type":"event","name":"Staked","inputs":[{"name":"positionId","type":"uint256","indexed":true,"internalType":"uint256"},{"name":"user","type":"address","indexed":true,"internalType":"address"},{"name":"tokenAddress","type":"address","indexed":true,"internalType":"address"},{"name":"vault","type":"address","indexed":false,"internalType":"address"},{"name":"amount","type":"uint256","indexed":false,"internalType":"uint256"},{"name":"shares","type":"uint256","indexed":false,"internalType":"uint256"},{"name":"timestamp","type":"uint256","indexed":false,"internalType":"uint256"}],"anonymous":false},{"type":"event","name":"Unstaked","inputs":[{"name":"positionId","type":"uint256","indexed":true,"internalType":"uint256"},{"name":"user","type":"address","indexed":true,"internalType":"address"},{"name":"tokenAddress","type":"address","indexed":true,"internalType":"address"},{"name":"vault","type":"address","indexed":false,"internalType":"address"},{"name":"amount","type":"uint256","indexed":false,"internalType":"uint256"},{"name":"shares","type":"uint256","indexed":false,"internalType":"uint256"},{"name":"timestamp","type":"uint256","indexed":false,"internalType":"uint256"}],"anonymous":false},{"type":"error","name":"InvalidInitialization","inputs":[]},{"type":"error","name":"NotInitializing","inputs":[]},{"type":"error","name":"OwnableInvalidOwner","inputs":[{"name":"owner","type":"address","internalType":"address"}]},{"type":"error","name":"OwnableUnauthorizedAccount","inputs":[{"name":"account","type":"address","internalType":"address"}]},{"type":"error","name":"SafeERC20FailedOperation","inputs":[{"name":"token","type":"address","internalType":"address"}]}],"bytecode":{"object":"0x6080604052348015600e575f80fd5b50611a988061001c5f395ff3fe6080604052600436106100f6575f3560e01c80638da5cb5b11610089578063dced1a5a11610058578063dced1a5a14610444578063f071f4fd14610463578063f2fde38b1461048e578063f712fe29146104ad5761015e565b80638da5cb5b146102d757806399fbab88146102eb578063a4063dbc146103b8578063adc9772e146104255761015e565b80635d43361a116100c55780635d43361a14610270578063715018a61461028f578063735de9f7146102a35780637fd6f15c146102c25761015e565b8063373ee31d146101bd5780634f5aa4c2146101dc578063548d3e67146101fb5780635d15ac91146102395761015e565b3661015e5761015c600480548060200260200160405190810160405280929190818152602001828054801561015257602002820191905f5260205f20905b81546001600160a01b03168152600190910190602001808311610134575b50505050506104cc565b005b61015c600480548060200260200160405190810160405280929190818152602001828054801561015257602002820191905f5260205f209081546001600160a01b031681526001909101906020018083116101345750505050506104cc565b3480156101c8575f80fd5b5061015c6101d7366004611705565b6104db565b3480156101e7575f80fd5b5061015c6101f63660046117aa565b61087d565b348015610206575f80fd5b506102266102153660046117e9565b60096020525f908152604090205481565b6040519081526020015b60405180910390f35b348015610244575f80fd5b50600354610258906001600160a01b031681565b6040516001600160a01b039091168152602001610230565b34801561027b575f80fd5b50600254610258906001600160a01b031681565b34801561029a575f80fd5b5061015c610c40565b3480156102ae575f80fd5b50600154610258906001600160a01b031681565b3480156102cd575f80fd5b5061022660055481565b3480156102e2575f80fd5b50610258610c53565b3480156102f6575f80fd5b5061037a61030536600461180b565b5f90815260086020908152604091829020825160c08101845281546001600160a01b0390811680835260018401548216948301859052600284015490911694820185905260038301546060830181905260048401546080840181905260059094015460a0909301839052909593949390929190565b604080516001600160a01b039788168152958716602087015293909516928401929092526060830152608082015260a081019190915260c001610230565b3480156103c3575f80fd5b506103ff6103d23660046117e9565b60076020525f90815260409020805460018201546002909201546001600160a01b03918216929091169083565b604080516001600160a01b03948516815293909216602084015290820152606001610230565b348015610430575f80fd5b5061022661043f366004611822565b610c81565b34801561044f575f80fd5b5061025861045e36600461180b565b610fcb565b34801561046e575f80fd5b5061022661047d3660046117e9565b600a6020525f908152604090205481565b348015610499575f80fd5b5061015c6104a83660046117e9565b610ff3565b3480156104b8575f80fd5b506102266104c736600461184c565b61102d565b6104d881610bb8611101565b50565b7ff0c57e16840df040f15088dc2f81fe391c3923bec73e23a9662efc9c229c6a008054600160401b810460ff16159067ffffffffffffffff165f811580156105205750825b90505f8267ffffffffffffffff16600114801561053c5750303b155b90508115801561054a575080155b156105685760405163f92ee8a960e01b815260040160405180910390fd5b845467ffffffffffffffff19166001178555831561059257845460ff60401b1916600160401b1785555b61059b336113e8565b88518a51146105ff5760405162461bcd60e51b815260206004820152602560248201527f546f6b656e20616e6420696e64657820746f6b656e206c656e677468206d69736044820152640dac2e8c6d60db1b60648201526084015b60405180910390fd5b865f806101000a8154816001600160a01b0302191690836001600160a01b031602179055508560015f6101000a8154816001600160a01b0302191690836001600160a01b031602179055508a60035f6101000a8154816001600160a01b0302191690836001600160a01b031602179055508760058190555060016006819055505f5b8a51811015610829575f80548c516001600160a01b039091169063f2181197908e90859081106106b3576106b36118a3565b60209081029190910101516040516001600160e01b031960e084901b1681526001600160a01b03909116600482015260606024820152600b60648201526a2b30bab63a102a37b5b2b760a91b608482015260a06044820152600660a4820152653b2a27a5a2a760d11b60c482015260e4016020604051808303815f875af1158015610740573d5f803e3d5ffd5b505050506040513d601f19601f8201168201806040525081019061076491906118b7565b90506040518060600160405280826001600160a01b031681526020018c8481518110610792576107926118a3565b60200260200101516001600160a01b031681526020015f81525060075f8e85815181106107c1576107c16118a3565b6020908102919091018101516001600160a01b0390811683528282019390935260409182015f20845181549085166001600160a01b03199182161782559185015160018083018054929096169190931617909355920151600290910155919091019050610681565b50831561087057845460ff60401b19168555604051600181527fc7f505b2f371ae2175ee4913f4499e1f2633a7b5936321eed1cdaeb6115181d29060200160405180910390a15b5050505050505050505050565b5f83815260086020526040902080546001600160a01b031633146108f35760405162461bcd60e51b815260206004820152602760248201527f596f7520617265206e6f7420746865206f776e6572206f66207468697320706f60448201526639b4ba34b7b71760c91b60648201526084016105f6565b5f8160030154116109465760405162461bcd60e51b815260206004820152601b60248201527f4e6f207374616b6520616d6f756e7420746f20756e7374616b652e000000000060448201526064016105f6565b60018101546001600160a01b03165f90815260076020526040812060038301546005549192918291610977916113f9565b8454600487810154604051632d182be560e21b8152918201526001600160a01b038981166024830152336044830152939550919350919091169063b460af94906064016020604051808303815f875af11580156109d6573d5f803e3d5ffd5b505050506040513d601f19601f820116820180604052508101906109fa91906118d2565b5060018401546001600160a01b0390811690871603610a51576001830154610a2c906001600160a01b0316338361142d565b610a4c610a37610c53565b60018501546001600160a01b0316908461142d565b610b6e565b604080516101008101825260018601546001600160a01b03908116825288166020820152610bb8918101919091523060608201525f9060808101610a974261012c6118fd565b8152602081018490525f60408083018290526060909201819052600154915163414bf38960e01b8152929350916001600160a01b039091169063414bf38990610ae4908590600401611916565b6020604051808303815f875af1158015610b00573d5f803e3d5ffd5b505050506040513d601f19601f82011682018060405250810190610b2491906118d2565b90505f80610b34836005546113f9565b9092509050610b4d6001600160a01b038b16338361142d565b610b69610b58610c53565b6001600160a01b038c16908461142d565b505050505b6001840154835460038601546004870154604080516001600160a01b0394851681526020810193909352820152426060820152911690339089907f48d6ef2d69851719de58c2636e4c6ff5d38f62766e0c8cf6cec14be151611f159060800160405180910390a48360030154836002015f828254610bec9190611993565b9091555050505f9586525050600860205250506040822080546001600160a01b0319908116825560018201805482169055600282018054909116905560038101839055600481018390556005019190915550565b610c4861148c565b610c515f6114be565b565b7f9016d09d72d40fdae2fd8ceac6b6234c7706214fd39c1cd1e609a0528c199300546001600160a01b031690565b5f6001600160a01b038316610cd85760405162461bcd60e51b815260206004820181905260248201527f546f6b656e206e6f7420737570706f7274656420666f72207374616b696e672e60448201526064016105f6565b5f8211610d395760405162461bcd60e51b815260206004820152602960248201527f5374616b696e6720616d6f756e74206d757374206265206772656174657220746044820152683430b7103d32b9379760b91b60648201526084016105f6565b6001600160a01b038084165f9081526007602052604090208054909116610da25760405162461bcd60e51b815260206004820152601960248201527f506f6f6c206e6f7420666f756e6420666f7220746f6b656e2e0000000000000060448201526064016105f6565b5f80610db0856005546113f9565b909250905085610dcb6001600160a01b03821633308561152e565b610de933610dd7610c53565b6001600160a01b03841691908661152e565b83546040516394bf804d60e01b8152600481018490523360248201526001600160a01b03909116906394bf804d906044016020604051808303815f875af1158015610e36573d5f803e3d5ffd5b505050506040513d601f19601f82011682018060405250810190610e5a91906118d2565b506006805483915f610e6b836119a6565b909155506040805160c0810182523381526001600160a01b038b811660208084018281525f92835260078252858320548416858701908152606086018b8152608087018a81524260a089019081528a87526008909552978520965187549087166001600160a01b0319918216178855925160018801805491881691851691909117905590516002808801805492909716919093161790945592516003850155935160048401559251600590920191909155870180549298508592909190610f339084906118fd565b90915550506001600160a01b0388165f908152600960205260408120805460019290610f609084906118fd565b90915550508454604080516001600160a01b0392831681526020810186905290810183905242606082015290891690339088907f722cb9cda4bfb3cf33eec057c052c1cc3c3ded6b612f5f983349038e53572f899060800160405180910390a4505050505092915050565b60048181548110610fda575f80fd5b5f918252602090912001546001600160a01b0316905081565b610ffb61148c565b6001600160a01b03811661102457604051631e4fbdf760e01b81525f60048201526024016105f6565b6104d8816114be565b6040805160a0810182526001600160a01b0386811682528581166020830190815282840186815262ffffff868116606086019081525f608087018181526002549851636352813560e11b81528851881660048201529551871660248701529351604486015290519091166064840152905183166084830152939091169063c6a5026a9060a4016080604051808303815f875af11580156110cf573d5f803e3d5ffd5b505050506040513d601f19601f820116820180604052508101906110f391906119be565b509198975050505050505050565b5f5b82518110156113e3575f60075f858481518110611122576111226118a3565b60200260200101516001600160a01b03166001600160a01b031681526020019081526020015f2090505f84838151811061115e5761115e6118a3565b60209081029190910101516040516370a0823160e01b81523060048201526001600160a01b03909116906370a0823190602401602060405180830381865afa1580156111ac573d5f803e3d5ffd5b505050506040513d601f19601f820116820180604052508101906111d091906118d2565b905080156113d9578483815181106111ea576111ea6118a3565b602090810291909101015160015460405163095ea7b360e01b81526001600160a01b0391821660048201526024810184905291169063095ea7b3906044016020604051808303815f875af1158015611244573d5f803e3d5ffd5b505050506040513d601f19601f820116820180604052508101906112689190611a0d565b505f604051806101000160405280878681518110611288576112886118a3565b6020908102919091018101516001600160a01b0390811683526001870154169082015262ffffff871660408201523060608201526080016112cb4261012c6118fd565b8152602081018490525f6040808301829052606090920152600154905163414bf38960e01b81529192506001600160a01b03169063414bf38990611313908490600401611916565b6020604051808303815f875af115801561132f573d5f803e3d5ffd5b505050506040513d601f19601f8201168201806040525081019061135391906118d2565b5060018301546040516370a0823160e01b81523060048201526001600160a01b03909116906370a0823190602401602060405180830381865afa15801561139c573d5f803e3d5ffd5b505050506040513d601f19601f820116820180604052508101906113c091906118d2565b836002015f8282546113d291906118fd565b9091555050505b5050600101611103565b505050565b6113f061156d565b6104d8816115b6565b5f80806127106114098587611a2c565b6114139190611a43565b90505f6114208287611993565b9196919550909350505050565b6040516001600160a01b038381166024830152604482018390526113e391859182169063a9059cbb906064015b604051602081830303815290604052915060e01b6020820180516001600160e01b0383818316178352505050506115be565b33611495610c53565b6001600160a01b031614610c515760405163118cdaa760e01b81523360048201526024016105f6565b7f9016d09d72d40fdae2fd8ceac6b6234c7706214fd39c1cd1e609a0528c19930080546001600160a01b031981166001600160a01b03848116918217845560405192169182907f8be0079c531659141344cd1fd0a4f28419497f9722a3daafe3b4186f6b6457e0905f90a3505050565b6040516001600160a01b0384811660248301528381166044830152606482018390526115679186918216906323b872dd9060840161145a565b50505050565b7ff0c57e16840df040f15088dc2f81fe391c3923bec73e23a9662efc9c229c6a0054600160401b900460ff16610c5157604051631afcd79f60e31b815260040160405180910390fd5b610ffb61156d565b5f8060205f8451602086015f885af1806115dd576040513d5f823e3d81fd5b50505f513d915081156115f4578060011415611601565b6001600160a01b0384163b155b1561156757604051635274afe760e01b81526001600160a01b03851660048201526024016105f6565b6001600160a01b03811681146104d8575f80fd5b80356116498161162a565b919050565b634e487b7160e01b5f52604160045260245ffd5b5f82601f830112611671575f80fd5b813567ffffffffffffffff81111561168b5761168b61164e565b8060051b604051601f19603f830116810181811067ffffffffffffffff821117156116b8576116b861164e565b6040529182526020818501810192908101868411156116d5575f80fd5b6020860192505b838310156116fb576116ed8361163e565b8152602092830192016116dc565b5095945050505050565b5f805f805f8060c0878903121561171a575f80fd5b86356117258161162a565b9550602087013567ffffffffffffffff811115611740575f80fd5b61174c89828a01611662565b955050604087013567ffffffffffffffff811115611768575f80fd5b61177489828a01611662565b94505060608701359250608087013561178c8161162a565b915060a087013561179c8161162a565b809150509295509295509295565b5f805f606084860312156117bc575f80fd5b8335925060208401356117ce8161162a565b915060408401356117de8161162a565b809150509250925092565b5f602082840312156117f9575f80fd5b81356118048161162a565b9392505050565b5f6020828403121561181b575f80fd5b5035919050565b5f8060408385031215611833575f80fd5b823561183e8161162a565b946020939093013593505050565b5f805f806080858703121561185f575f80fd5b843561186a8161162a565b9350602085013561187a8161162a565b925060408501359150606085013562ffffff81168114611898575f80fd5b939692955090935050565b634e487b7160e01b5f52603260045260245ffd5b5f602082840312156118c7575f80fd5b81516118048161162a565b5f602082840312156118e2575f80fd5b5051919050565b634e487b7160e01b5f52601160045260245ffd5b80820180821115611910576119106118e9565b92915050565b81516001600160a01b03908116825260208084015182169083015260408084015162ffffff169083015260608084015191821690830152610100820190506080830151608083015260a083015160a083015260c083015160c083015260e083015161198c60e08401826001600160a01b03169052565b5092915050565b81810381811115611910576119106118e9565b5f600182016119b7576119b76118e9565b5060010190565b5f805f80608085870312156119d1575f80fd5b845160208601519094506119e48161162a565b604086015190935063ffffffff811681146119fd575f80fd5b6060959095015193969295505050565b5f60208284031215611a1d575f80fd5b81518015158114611804575f80fd5b8082028115828204841417611910576119106118e9565b5f82611a5d57634e487b7160e01b5f52601260045260245ffd5b50049056fea2646970667358221220d49b650bb3965bdf48f9f17deedf5e49ccde8689839ac9318a693d9a040c4d4864736f6c634300081a0033","linkReferences":{}},"methodIdentifiers":{"feePercent()":"7fd6f15c","initialize(address,address[],address[],uint256,address,address)":"373ee31d","nexLabsToken()":"5d15ac91","numberOfStakersByTokenAddress(address)":"548d3e67","owner()":"8da5cb5b","poolTokens(uint256)":"dced1a5a","pools(address)":"a4063dbc","positions(uint256)":"99fbab88","qouter(address,address,uint256,uint24)":"f712fe29","qouterV2()":"5d43361a","renounceOwnership()":"715018a6","shareHolder(address)":"f071f4fd","stake(address,uint256)":"adc9772e","transferOwnership(address)":"f2fde38b","uniswapRouter()":"735de9f7","unstake(uint256,address,address)":"4f5aa4c2"},"storageLayout":{"storage":[{"astId":308,"contract":"contracts/NexStaging.sol:NexStaging","label":"erc4626Factory","offset":0,"slot":"0","type":"t_contract(ERC4626Factory)1164"},{"astId":311,"contract":"contracts/NexStaging.sol:NexStaging","label":"uniswapRouter","offset":0,"slot":"1","type":"t_contract(ISwapRouter)7806"},{"astId":314,"contract":"contracts/NexStaging.sol:NexStaging","label":"qouterV2","offset":0,"slot":"2","type":"t_contract(IQuoterV2)7706"},{"astId":317,"contract":"contracts/NexStaging.sol:NexStaging","label":"nexLabsToken","offset":0,"slot":"3","type":"t_contract(IERC20)2731"},{"astId":320,"contract":"contracts/NexStaging.sol:NexStaging","label":"poolTokens","offset":0,"slot":"4","type":"t_array(t_address)dyn_storage"},{"astId":322,"contract":"contracts/NexStaging.sol:NexStaging","label":"feePercent","offset":0,"slot":"5","type":"t_uint256"},{"astId":324,"contract":"contracts/NexStaging.sol:NexStaging","label":"_nextId","offset":0,"slot":"6","type":"t_uint256"},{"astId":350,"contract":"contracts/NexStaging.sol:NexStaging","label":"pools","offset":0,"slot":"7","type":"t_mapping(t_address,t_struct(Pools)332_storage)"},{"astId":355,"contract":"contracts/NexStaging.sol:NexStaging","label":"_positions","offset":0,"slot":"8","type":"t_mapping(t_uint256,t_struct(StakePositions)345_storage)"},{"astId":359,"contract":"contracts/NexStaging.sol:NexStaging","label":"numberOfStakersByTokenAddress","offset":0,"slot":"9","type":"t_mapping(t_address,t_uint256)"},{"astId":363,"contract":"contracts/NexStaging.sol:NexStaging","label":"shareHolder","offset":0,"slot":"10","type":"t_mapping(t_address,t_uint256)"}],"types":{"t_address":{"encoding":"inplace","label":"address","numberOfBytes":"20"},"t_array(t_address)dyn_storage":{"encoding":"dynamic_array","label":"address[]","numberOfBytes":"32","base":"t_address"},"t_contract(ERC4626Factory)1164":{"encoding":"inplace","label":"contract ERC4626Factory","numberOfBytes":"20"},"t_contract(IERC20)2731":{"encoding":"inplace","label":"contract IERC20","numberOfBytes":"20"},"t_contract(IQuoterV2)7706":{"encoding":"inplace","label":"contract IQuoterV2","numberOfBytes":"20"},"t_contract(ISwapRouter)7806":{"encoding":"inplace","label":"contract ISwapRouter","numberOfBytes":"20"},"t_mapping(t_address,t_struct(Pools)332_storage)":{"encoding":"mapping","key":"t_address","label":"mapping(address => struct NexStaging.Pools)","numberOfBytes":"32","value":"t_struct(Pools)332_storage"},"t_mapping(t_address,t_uint256)":{"encoding":"mapping","key":"t_address","label":"mapping(address => uint256)","numberOfBytes":"32","value":"t_uint256"},"t_mapping(t_uint256,t_struct(StakePositions)345_storage)":{"encoding":"mapping","key":"t_uint256","label":"mapping(uint256 => struct NexStaging.StakePositions)","numberOfBytes":"32","value":"t_struct(StakePositions)345_storage"},"t_struct(Pools)332_storage":{"encoding":"inplace","label":"struct NexStaging.Pools","numberOfBytes":"96","members":[{"astId":326,"contract":"contracts/NexStaging.sol:NexStaging","label":"vault","offset":0,"slot":"0","type":"t_address"},{"astId":329,"contract":"contracts/NexStaging.sol:NexStaging","label":"indexToken","offset":0,"slot":"1","type":"t_contract(IERC20)2731"},{"astId":331,"contract":"contracts/NexStaging.sol:NexStaging","label":"totalStaked","offset":0,"slot":"2","type":"t_uint256"}]},"t_struct(StakePositions)345_storage":{"encoding":"inplace","label":"struct NexStaging.StakePositions","numberOfBytes":"192","members":[{"astId":334,"contract":"contracts/NexStaging.sol:NexStaging","label":"owner","offset":0,"slot":"0","type":"t_address"},{"astId":336,"contract":"contracts/NexStaging.sol:NexStaging","label":"stakeToken","offset":0,"slot":"1","type":"t_address"},{"astId":338,"contract":"contracts/NexStaging.sol:NexStaging","label":"vault","offset":0,"slot":"2","type":"t_address"},{"astId":340,"contract":"contracts/NexStaging.sol:NexStaging","label":"stakeAmount","offset":0,"slot":"3","type":"t_uint256"},{"astId":342,"contract":"contracts/NexStaging.sol:NexStaging","label":"shares","offset":0,"slot":"4","type":"t_uint256"},{"astId":344,"contract":"contracts/NexStaging.sol:NexStaging","label":"startTime","offset":0,"slot":"5","type":"t_uint256"}]},"t_uint256":{"encoding":"inplace","label":"uint256","numberOfBytes":"32"}}},"id":1}